:100000000C94B7000C9406150C942D150C94DF007D
:100010000C94DF000C94DF000C94DF000C94DF00E4
:100020000C94DF000C94DF000C94DF000C94DF00D4
:100030000C94DF000C94DF000C94DF000C94DF00C4
:100040000C9465150C94DF000C9429140C945B142B
:100050000C94DF000C94DF000C94DF000C94DF00A4
:100060000C94B3110C94DF0008000000BE922449E8
:10007000123EABAAAA2ABECDCCCC4C3E00000080DA
:10008000BEABAAAAAA3E00000000BF000000803F4D
:100090000000000000084178D3BB4387D1133D190D
:1000A0000E3CC3BD4282AD2B3E68EC8276BED98F3A
:1000B000E1A93E4C80EFFFBE01C4FF7F3F0000007E
:1000C0000000701919008B000000701919008000E1
:1000D00000008B000000CD000000578B2E008080B8
:1000E0000000A09E5F00FF0000008B8B0000ED95DC
:1000F0006400D4FF7F00578B2E00FFFF0000FACE74
:100100008700000000090003020000040508000049
:100110000000000000000000000102040810204060
:1001200080010204081020010204081020408040D1
:10013000040404040404040402020202020203038D
:10014000030303030202030000000023002600292A
:100150000000000000250028002B00000000002403
:100160000027002A00007709490BBC108B141124CA
:100170001FBECFEFD8E0DEBFCDBF11E0A0E0B1E001
:10018000E6E7F5E302C005900D92AC34B107D9F76C
:1001900025E0ACE4B1E001C01D92A036B207E1F762
:1001A00010E0C7EBD0E004C02197FE010E94B31A13
:1001B000C33BD107C9F70E9456150C94B91A0C9489
:1001C0000000FC01858596850895CF93DF9300D0CC
:1001D00000D000D0CDB7DEB7AB011C821D821E82DD
:1001E000DC01ED91FC910190F081E02D19821A82E1
:1001F0001B829E012F5F3F4FBE016C5F7F4F0995B1
:1002000026960FB6F894DEBF0FBECDBFDF91CF911B
:10021000089590E080E00895809181018F5F809340
:100220008101089580917C018F5F80937C01089506
:10023000FC0160810C94410A64EF71E080E090E081
:100240000E94E01526E040E855E260E070E08AEBAD
:1002500094E00E94CD1380914D01811145C0109210
:100260005801109257018FEF80935B0180935C01DE
:1002700080935D0180935E0180935F0180936001B4
:1002800081E08093610110926301109262011092EB
:100290005A01109259018091EA039091EB03892B46
:1002A00031F485E591E09093EB038093EA03E091CC
:1002B000E803F091E903309721F085E591E095831B
:1002C000848385E591E09093E9038093E8038DE1D1
:1002D00091E0909356018093550110926501109220
:1002E000640181E080934D0130E020E042E050E085
:1002F00068ED73E085E591E00E940E0B809112019C
:100300008093EC0382EC90E0A8EAB3E0FC01459115
:100310005591659174916C9311965C931197129617
:100320004C9312970496139623E0A83DB20771F7F9
:100330002BE235E045E350E060E070E08BEF92E0C7
:100340000E94F00B28E333E049EB5BE060E070E0F3
:100350008FE492E00E94F00B27EA33E04DE252E096
:1003600060E070E083EA91E00E94F00B70E060E0F2
:1003700082E891E00E94210E41E660E182E891E08E
:100380000E943F0D44E067E182E891E00E943F0D4A
:100390004EE968E582E891E00E943F0D4CE869E58E
:1003A00082E891E00E943F0D4FE76AE582E891E024
:1003B0000E943F0D41E86BE582E891E00E943F0D0D
:1003C0004FE06CE582E891E00E943F0D48E46EE565
:1003D00082E891E00E943F0D40E26FE582E891E003
:1003E0000E943F0D60E082E00E94F81643E050E07A
:1003F0006CE071E080E00E94E61460E083E00E941F
:10040000F81643E050E062E171E081E00E94E614FA
:1004100062E081E10E94F81662E080E10E94F81635
:1004200061E08AE00E94F81661E089E00E94F81617
:1004300082EA8093800089E080938100089581E0C2
:1004400080937B0110927A0161E070E08AE00E9463
:10045000721660917A0170E089E00E947216E09154
:10046000A7038E2F90E0FC01EE0FFF1FE80FF91F8E
:10047000E852FC4F128211821082E09113018E2FFC
:1004800090E0FC01EE0FFF1FE80FF91FE852FC4F50
:100490001282118210828CEE93E00C9418010F935B
:1004A0001F930E94AF15009168011091690120917E
:1004B0006A0130916B01601B710B820B930B6C3BDB
:1004C00072408105910580F081E0809366010E9471
:1004D000AF15609368017093690180936A019093EE
:1004E0006B011F910F9108950E94AF150091680153
:1004F0001091690120916A0130916B01601B710BB1
:10050000820B930B6C3B72408105910550F70E9462
:100510001F0210926601DBCF6091100170E089E04C
:100520000E94721664E670E080E090E00E94E015A0
:1005300060917A0170E089E00C9472160F931F931A
:100540000E94AF1500917201109173012091740106
:1005500030917501601B710B820B930B6C3B7240E9
:100560008105910580F081E0809370010E94AF15B4
:10057000609372017093730180937401909375017D
:100580001F910F9108950E94AF1500917201109173
:1005900073012091740130917501601B710B820B06
:1005A000930B6C3B72408105910550F70E948C02C1
:1005B00010927001DBCF8EE480937C0064E070E0E9
:1005C00080E090E00E94E01580917A008064809342
:1005D0007A0080917A0086FDFCCF8091780020918E
:1005E0007900322F282F032E000C440B550B60E2AC
:1005F00075E681E190E00E947A1ACA01B901089576
:10060000DF92EF92FF920F931F93CF93DF933AE025
:10061000D32ED0E0C0E0EE24EA94FE2C10E000E0FF
:100620000E94DB029B016E157F0508F47B01021717
:10063000130708F48B01C60FD71F64E070E080E059
:1006400090E00E94E015DA94D110EACFCE018E1925
:100650009F09801B910B23E0969587952A95E1F7DA
:10066000DF91CF911F910F91FF90EF90DF90089550
:100670008F929F92AF92BF92EF92FF920F931F9330
:10068000CF93DF930E9400030091040110910501B4
:100690009801285C3109C091130182179307E0F09B
:1006A0008C2F90E0EC01CC0FDD1FC80FD91FC85272
:1006B000DC4F84E68A8386EE898318828CEE93E091
:1006C000DF91CF911F910F91FF90EF90BF90AF906E
:1006D0009F908F900C941801E0900201F09003011C
:1006E0008E199F09BC0190E080E00E94A0184B0188
:1006F0005C010E191F09B80190E080E00E94A0186B
:100700009B01AC01C501B4010E94F81720E030E064
:1007100048EC52E40E947E190E946A182FEF269F2F
:10072000A001279F500D1124CA0164E670E00E94C9
:10073000441A8C2F90E0EC01CC0FDD1FC80FD91F9D
:10074000C852DC4F1A82698360956883B7CF8F9255
:100750009F92AF92BF92CF92DF92EF92FF920F9350
:100760001F93CF93DF930E9400036C01E09004017C
:10077000F090050180910201909103018701081B0F
:10078000190BC0910801D0910901CE15DF0520F4A5
:10079000C00FD11FCC19DD09B80190E080E00E94A4
:1007A000A0184B015C01BE0190E080E00E94A018FF
:1007B000A50194010E94F81720E030E048EC52E4D3
:1007C0000E947E190E946A182FEF269FA001279F82
:1007D000500D1124CA0164E670E00E94441A60932F
:1007E000100160910601709107016E157F0520F4DC
:1007F000600F711F6C197D0990E080E00E94A018C5
:10080000A50194010E94F81720E030E048EC52E482
:100810000E947E190E946A182FEF269FA001279F31
:10082000500D1124CA0164E670E00E94441A6093DE
:100830001101DF91CF911F910F91FF90EF90DF9009
:10084000CF90BF90AF909F908F900895E091A703B5
:100850002E2F30E0F901EE0FFF1FE20FF31FE852D9
:10086000FC4F982F90959283118280838CEE93E0B9
:100870000E941801089560917B016630C0F41092C7
:100880007B0170E060E08AE00E94721680917B013B
:1008900090E00E9426046EE170E080E090E00E940B
:1008A000E01580E10E946217019729F708956550CD
:1008B00060937B0170E0E7CFCF92DF92EF92FF92DF
:1008C000BC01990F880B990B0E94A2189B01AC01E7
:1008D00060E070E080E894E40E94F81720E030E0E7
:1008E00040E85FE30E948B1720E030E44CE156E4DF
:1008F0000E947E190E9436196B017C0129E537E4BC
:100900004CEB53E30E947E19A70196010E947E19C9
:1009100023E73FE745E759E30E948C17A7019601BB
:100920000E947E192BEE3FEF43E95AE30E948C1799
:100930009B01AC0160E070E080E89FE30E94F81743
:1009400023E333E948E853E40E948B17FF90EF90CC
:10095000DF90CF900895DF92EF92FF920F931F9355
:10096000CF93DF9380E480937C003AE0D32ED0E0F5
:10097000C0E0EE24EA94FE2C10E000E080E00E944B
:1009800054160E945C040E9471189B016E157F052D
:1009900008F47B010217130708F48B01C60FD71F59
:1009A00064E070E080E090E00E94E015DA94D110FD
:1009B000E5CFCE018E199F09801B910B23E0969500
:1009C00087952A95E1F7DF91CF911F910F91FF90C5
:1009D000EF90DF900895DF92EF92FF920F931F93B5
:1009E000CF93DF9381E480937C003AE0D32ED0E074
:1009F000C0E0EE24EA94FE2C10E000E081E00E94CA
:100A000054160E945C040E9471189B016E157F05AC
:100A100008F47B010217130708F48B01C60FD71FD8
:100A200064E070E080E090E00E94E015DA94D1107C
:100A3000E5CFCE018E199F09801B910B23E096957F
:100A400087952A95E1F7DF91CF911F910F91FF9044
:100A5000EF90DF9008950E94AB0420910A012817BF
:100A6000190638F410927A0170E060E089E00E9483
:100A700072160E94EB0420910B012817190638F416
:100A800010927B0170E060E08AE00E9472160E9482
:100A9000AB0420910C0130910D012817390758F44F
:100AA00060917A01633038F0625060937A0170E0AF
:100AB00089E00E9472160E94EB0420910E01309191
:100AC0000F012817390758F460917B01633038F023
:100AD000625060937B0170E08AE00E947216809100
:100AE0007D018130A1F480917E01811110C01092AE
:100AF0007A0170E060E089E00E94721610927B013A
:100B000070E060E08AE00E94721610927D01809190
:100B10007E01813009F097C00E94EB0420910E0104
:100B200030910F018217930768F460917B018091E7
:100B30001101681738F46F5F60937B0170E08AE001
:100B40000E947216809180018130E1F580917F01D1
:100B50008130B9F40E94AB0420910C0130910D0159
:100B60008217930770F46091100180917A018617C3
:100B700040F460937A0170E089E00E94721610924E
:100B80007F010E94AB0420910C0130910D0182176E
:100B9000930768F460917A0180911001681738F426
:100BA0006F5F60937A0170E089E00E947216809115
:100BB0007B01823038F010927B0170E060E08AE0C7
:100BC0000E9472168091800181113DC080917F0149
:100BD000811118C00E94EB0420910E0130910F0189
:100BE0008217930778F46091110180917B01861739
:100BF00048F460937B0170E08AE00E94721681E005
:100C000080937F010E94EB0420910E0130910F012F
:100C10008217930768F460917B0180911101681736
:100C200038F46F5F60937B0170E08AE00E94721677
:100C300080917A01823038F010927A0170E060E0A1
:100C400089E00E94721680917A0190E00C9426044B
:100C5000CF93DF930E94AB04C1E020910C0130914F
:100C60000D012817390708F0C0E00E94EB0420911D
:100C70000E0130910F012817390710F0CC2351F1E4
:100C80008AE080937B0110927A016AE070E00E9412
:100C9000721660917A0170E089E00E947216C3E1D9
:100CA000D0E08EE690E00E9426046CE271E080E0E5
:100CB00090E00E94E0158FEF90E00E94260464E629
:100CC00070E080E090E00E94E015219751F7DF91FD
:100CD000CF91089560917B0120911101822F90E0C6
:100CE000AC014550510964171506BCF020937B01F7
:100CF000BC018AE00E94721680917B0190E00E9404
:100D000026046EE170E080E090E00E94E01581E151
:100D10000E9462170197F1F6DACF6B5F60937B0157
:100D200070E0E7CF0F931F93CF93DF938BEF92E0A9
:100D30000E94350C8FE492E00E94350C83EA91E02A
:100D40000E94350C80918101882399F06CE271E05A
:100D500080E090E00E94E01580918101813009F0EF
:100D6000B4C0909180019111ADC080938001109228
:100D7000810181E10E946217EC01009709F0B6C081
:100D800080910101882351F00E94AF156093760194
:100D9000709377018093780190937901809101019C
:100DA000811118C00E94AF15009176011091770152
:100DB0002091780130917901601B710B820B930BAC
:100DC0006B3F71058105910528F00E94280681E09E
:100DD0008093710181E0CD2B09F480E080930101C3
:100DE000809170018130B9F40E94AF1500917201B9
:100DF000109173012091740130917501601B710B8A
:100E0000820B930B6D3B72408105910520F00E948F
:100E100028061092700180E10E946217EC01009791
:100E200009F08CC080910001882351F00E94AF1519
:100E300060936C0170936D0180936E0190936F01CC
:100E400080910001811118C00E94AF1500916C01C2
:100E500010916D0120916E0130916F01601B710B3B
:100E6000820B930B6B3F71058105910528F00E9461
:100E70003B0481E08093670181E0CD2B09F480E0A1
:100E800080930001809166018130B9F40E94AF1512
:100E9000009168011091690120916A0130916B0104
:100EA000601B710B820B930B6D3B724081059105AA
:100EB00020F00E943B0410926601DF91CF911F91B8
:100EC0000F9108951092800152CF823008F44FCFD5
:100ED00080917E01811104C081E080937E0147CF23
:100EE00010927E0181E080937D0141CF019709F04E
:100EF00071CF8091010181116DCF0E94AF150091DA
:100F00007601109177012091780130917901601B71
:100F1000710B820B930B633371058105910530F0E2
:100F200080917101813011F00E949E0280917101C7
:100F3000813009F04FCF109271014CCF019709F029
:100F40009BCF80910001811197CF0E94AF15009136
:100F50006C0110916D0120916E0130916F01601B49
:100F6000710B820B930B633371058105910530F092
:100F700080916701813011F00E944F0280916701DA
:100F8000813009F079CF1092670176CFDC018D9125
:100F90009C91009739F0DC01ED91FC910280F38186
:100FA000E02D09940895569A559A0F960C94C60709
:100FB00087FF2FC05E9A5D9A00145D9886FF2BC054
:100FC0005E9A5D9A00145D9885FF27C05E9A5D9ACF
:100FD00000145D9884FF23C05E9A5D9A00145D98AA
:100FE00083FF1FC05E9A5D9A00145D9882FF1BC04C
:100FF0005E9A5D9A00145D9881FF17C05E9A5D9AB3
:1010000000145D9880FF13C05E9A5D9A00145D988D
:1010100008955E98D0CF5E98D4CF5E98D8CF5E9872
:10102000DCCF5E98E0CF5E98E4CF5E98E8CF5E9824
:10103000ECCFAF92BF92CF92DF92EF92FF920F93DD
:101040001F93CF93DF93EB017C012FE0E20EF11CA5
:10105000DC011F968D919C91009739F0DC01ED9198
:10106000FC910190F081E02D0995CE84BD84AC8483
:1010700080E00E94D80780E00E94D80780E00E94AC
:10108000D80780E00E94D8078C819D811816190628
:101090000CF044C0E881F98188899989E80FF91F2B
:1010A00010812A2D129F010E10E0111D11240181C3
:1010B0003B2D039F000E00E0011D1124D2802D2D39
:1010C0003C2D239F020E20E0211D1124D22E8FEFF4
:1010D0000E94D8078D2D0E94D807802F0E94D80724
:1010E000812F0E94D80789859E81891B8E838A85DE
:1010F0009F81891B8F838B859885891B88872F8586
:1011000088819981820F911D27FD9A959983888303
:101110008C819D8101979D838C83B6CF0A80DB8172
:10112000C02DD7FD6F9685E0D595C7958A95E1F7D7
:101130008FEF0E94D80780E00E94D80780E00E94CD
:10114000D80780E00E94D807219790F7C701DF9168
:10115000CF911F910F91FF90EF90DF90CF90BF90B4
:10116000AF900C94C6070F931F93CF93DF932091FA
:101170004C012F5F322F377030934C0120FF2BC072
:1011800020E831FD2064347009F02062205FFC010A
:10119000EC01239600E011E06485662329F070E0FD
:1011A000C8010E94441A6F5F6187322F369F030E79
:1011B00030E0311D1124311110C01682662311F068
:1011C000615061873196EC17FD0731F7DF91CF91C0
:1011D0001F910F91089520E0D4CF31503683EECF88
:1011E0000F931F93CF93DF93CDB7DEB762970FB600
:1011F000F894DEBF0FBECDBF8C01F901DC011C9657
:101200008C917A8369835C834B835E834D83908169
:101210009D8791819E8792819F878130F1F4CE01D5
:1012200001960E94B30883E0888B1A8A198AD80134
:10123000ED91FC910484F585E02DBE016F5F7F4F39
:10124000C801099562960FB6F894DEBF0FBECDBFF8
:10125000DF91CF911F910F9108951C861B861A86EE
:10126000198618861F82DFCF0F931F93CF93DF93CA
:10127000CDB7DEB762970FB6F894DEBF0FBECDBF15
:101280008C01F901DC011C968C917A8369835C8363
:101290004B835E834D8390819D8791819E87928150
:1012A0009F878130E9F4CE0101960E94B308188A25
:1012B0001A8A198AD801ED91FC910484F585E02DF4
:1012C000BE016F5F7F4FC801099562960FB6F89413
:1012D000DEBF0FBECDBFDF91CF911F910F9108955B
:1012E0001C861B861A86198618861F82E0CF8BEF14
:1012F00092E00E944D0B8FE492E00E944D0B83EA36
:1013000091E00E944D0B4AE660E082E891E00C9487
:101310000A0D7F928F929F92AF92BF92CF92DF92EF
:10132000EF92FF920F931F93CF93DF93FC0169011C
:101330001082118212826623B9F18A01C1E0D0E0E5
:10134000862E912CB12CA12CD8012D918D01222318
:1013500039F17E01B1E0EB1AF108D601AE0DBF1DE7
:101360007C907720E9F030E050E040E02F5F3F4F85
:101370004F4F5F4FC501B4010E94201A9B01AC0181
:10138000872D90E0B0E0A0E0BC01CD016F5F7F4F02
:101390008F4F9F4F0E94201ADF01AE0DBF1D8C930F
:1013A0002196C430D10581F6CF01DF91CF911F91F5
:1013B0000F91FF90EF90DF90CF90BF90AF909F90F4
:1013C0008F907F900895FC018FEF808312821182AD
:1013D000148613868FEF9FEFDC0187839087A187A8
:1013E000B2870895CF92DF92EF92FF92CF93DF936F
:1013F0002091E2033091E303A9014F5F5F4F5093C7
:10140000E3034093E20326173707A4F1EC010E949F
:10141000AF159B01AC01E091E203F091E30388EE8C
:1014200093E0E89FB001E99F700DF89F700D1124C3
:10143000072E000C880B990BC090DE03D090DF03C1
:10144000E090E003F090E1032C193D094E095F099B
:101450000E94581A3A8329831092E3031092E20300
:101460000E94AF156093DE037093DF038093E00367
:101470009093E103DF91CF91FF90EF90DF90CF90B9
:101480000895AF92BF92CF92DF92EF92FF920F93A7
:101490001F93CF93DF9300D01F92CDB7DEB77C01AF
:1014A000D62EF70183819481A581B681892B8A2B61
:1014B0008B2BD1F00E94BB150091E4031091E50342
:1014C0002091E6033091E703601B710B820B930BB5
:1014D000D70113960D911D912D913C911697601790
:1014E000710782079307E8F20E94BB156093E4033B
:1014F0007093E5038093E6039093E703D7011B966F
:10150000ED91FC911C97309749F017964D915D91A4
:101510006D917C911A978D2D0995D82E0091EA0333
:101520001091EB030115110569F1F801C484D7018D
:1015300011968D919C918436910508F41486D801FA
:10154000ED91FC91A280B3809801275F3F4FA801E5
:101550004A5F5F4F6D2DCE0101960E948909F80107
:1015600045855685628173819E012F5F3F4FC8017B
:10157000F5010995D8011C96CC921C9714960D91F3
:101580001C91D0CF69E170E0C7010E94F2090F9071
:101590000F900F90DF91CF911F910F91FF90EF90DF
:1015A000DF90CF90BF90AF900895CF93DF93EC0181
:1015B0004423F1F061157105C1F09B0150E040E05A
:1015C00060E472E48FE090E00E947A1A8B819C8143
:1015D000AD81BE8182179307A407B50710F4DA0125
:1015E000C9018B839C83AD83BE83DF91CF91089526
:1015F0006115710571F09B0150E040E060E472E418
:101600008FE090E00E947A1A2B833C834D835E83A7
:10161000ECCF1B821C821D821E82E7CFCF92DF920D
:10162000EF92FF920F931F93CF93DF93EC016B0127
:101630007A0110E000E01216130614F48A01790111
:10164000E881F9810480F581E02DCE010995C8017A
:10165000880F991F080F191FC00ED11EDB82CA8286
:10166000ED86FE86E881F9810284F385E02DCE01C6
:10167000099541E0BC018CEE93E00E94D50ACE01B1
:10168000DF91CF911F910F91FF90EF90DF90CF905E
:1016900008958CEE93E00C94E309CF92DF92EF92E1
:1016A000FF92CF93DF93EC010E94AF157E012CE8EF
:1016B000E20EF11CFE01B8966E019E01245C3F4FC4
:1016C000D7011D927D0111921192D6016D937D93E8
:1016D0008D939D936D01AF01425B5F4FDA011D92C7
:1016E0001C92E217F30761F7C655DF4F1982188283
:1016F000DF91CF91FF90EF90DF90CF900895FC01A4
:10170000E655FF4F208131812A30310564F4E258DB
:10171000F10990E080E021913191232B31F0019685
:101720008A309105C1F78FEF9FEF08954F925F9236
:101730006F927F92AF92BF92CF92DF92EF92FF9221
:101740000F931F93CF93DF93EC012A013B017901A3
:1017500068010E947F0B8C0197FD3FC0E114F104EA
:10176000E1F15C01AA0CBB1CAA0CBB1CAC0EBD1E9B
:10177000F50144AE55AE66AE77AEF801EE0FFF1F31
:10178000EC0FFD1FF1A6E0A6EC59FF4FD182C082FD
:10179000FE01E00FF11FE457FF4F81E080830E94BC
:1017A000AF15F5016083718382839383C655DF4F44
:1017B00088819981019699838883C801DF91CF91AF
:1017C0001F910F91FF90EF90DF90CF90BF90AF905F
:1017D0007F906F905F904F9008950FEF1FEFEDCFC8
:1017E0000F931F9310E000E00E94960B1F910F9142
:1017F0000895CF93DF936A307105A4F5DC01A655F7
:10180000BF4F2D913C9111972115310559F1FB01E5
:10181000EE0FFF1FE80FF91F40A551A5452B11F151
:1018200011A610A6EC01C60FD71FC457DF4F1882B0
:10183000EF01CA56DF4F19821882615F7F4F660F32
:10184000771F660F771F680F791FEB0118821982C7
:101850001A821B82E858FF4F1182108221503109F1
:101860002D933C93DF91CF9108952F923F924F9209
:101870005F926F927F928F929F92AF92BF92CF9220
:10188000DF92EF92FF920F931F93CF93DF93EC01C0
:101890000E94AF15FE01B8964E01B12CA12C41E07B
:1018A00050E022E0222E312C8F0102591F4FD80127
:1018B0001D921C92208131813296232BA1F1D401FB
:1018C0000D911D912D913C911397DC96CD90DD905B
:1018D000ED90FC90DF972B013C01401A510A620AFF
:1018E000730A4C145D046E047F04E8F00C0D1D1D9A
:1018F0002E1D3F1D0D931D932D933C931397950122
:1019000024573F4F2C0F3D1FD9012C91222359F012
:1019100022AD33AD21153105C1F59F0124593F4F4B
:10192000D9014D935C93BFEFAB1ABB0A24E0820E42
:10193000911CAAE0AA16B10409F0B6CF7E01B6E95F
:10194000EB0EF11C10E000E0F701819191917F0115
:1019500081309105C1F10297E9F10F5F1F4F0A3005
:10196000110591F7DF91CF911F910F91FF90EF90AB
:10197000DF90CF90BF90AF909F908F907F906F90AF
:101980005F904F903F902F9008956F01BEE4CB0E73
:10199000D11CD601ED90FC90E216F30624F68F01DF
:1019A00004591F4FD8014D935C93BFEFEB1AFB0A0C
:1019B000D601ED92FC92E216F3060CF4B4CFD801F6
:1019C0002D923C92B0CFE057F1090190F081E02DCB
:1019D0000995C3CFE057F1090190F081E02D0995F9
:1019E000B801CE010E94F90BB8CF8EBD00000DB436
:1019F00007FEFDCF8EB50895FC018BE681838AE05A
:101A000082836083611102C041830895613009F4CB
:101A100042830895CF93DF93EC010E94FC0C81E098
:101A20008B8320ED37E03D832C8320EA31E03F8338
:101A30002E8340E951E0598748878A878B878C87B6
:101A40008D8740E150E05F874E87398B288B24E6F5
:101A500030E03B8B2A8B8C8B8D8B8E8B8F8B88EB26
:101A60009BE0998F888F8AE090E09B8F8A8F1C8EF5
:101A70001E8E1D8E18A21F8EDF91CF9108950F9399
:101A80001F93CF93DF93EC01062F142F88818823B7
:101A900029F0813009F180E090E019C0698189EF77
:101AA00093E00E943610602F89EF93E00E94D00FE0
:101AB000612F89EF93E00E94D00F89EF93E00E949D
:101AC000B91021E090E0811101C020E0822FDF9168
:101AD000CF911F910F91089560E08A810E94341781
:101AE000802F0E94F50C812F0E94F50C61E08A8105
:101AF0000E943417D0CFCF92DF92EF92FF921F93C4
:101B0000CF93DF937C016B01C42FFC01808188237C
:101B100089F08130B1F1D0E0C0E010E0F60110832F
:101B20008D2F9C2FDF91CF911F91FF90EF90DF9031
:101B3000CF900895618189EF93E00E9436106C2F59
:101B400089EF93E00E94D00F89EF93E00E94B910D3
:101B5000D1E0C0E0811101C0D0E041E0F701618136
:101B600089EF93E00E94B61010E089EF93E00E94A5
:101B7000A60F892B99F289EF93E00E94AD0F182FE1
:101B8000F4CF60E082810E9434178C2F80680E941D
:101B9000F50C80E00E94F50C182F61E0F7018281BE
:101BA0000E943417D5E01F3F09F0D0E0C0E0B6CF67
:101BB0000F931F93CF93DF9300D0CDB7DEB78C0187
:101BC000FC0180818823F9F0813011F11A8280E1D3
:101BD00097E22A812F5F2A830197D9F74FE0BE0150
:101BE0006F5F7F4FC8010E947B0D81E090E02981EB
:101BF000293611F490E080E00F900F90DF91CF91A3
:101C00001F910F91089589EF93E00E942C10DECF71
:101C10000E94D3128CB58C7F8CBD8DB58E7F8DBD0F
:101C20008CB58F7D8CBD8CB58C608CBD61E0F8016E
:101C300082810E94F81661E0F80182810E943417C7
:101C4000C5CFCF92DF92EF92FF920F931F93CF9366
:101C5000DF9300D0CDB7DEB78C016B011A820E94F2
:101C6000D80D7C01C114D10409F458C0F801838156
:101C7000F6018083F80184819581F6019283818346
:101C8000F80186819781F60194838383F80180852A
:101C90009185F60196838583F8018285F601878315
:101CA000F8018385F6018087F8018485F601818734
:101CB000F8018585F6018287F80186859785F6010A
:101CC00094878387F80180899189F60196878587B3
:101CD000F80182899389F601908B8787F8018489BE
:101CE000F601818BF8018589F601828BF8018689DE
:101CF000F601838BF8018789F601848BF801808DCA
:101D0000918DF601968B858BF801828D938DF6016E
:101D1000908F878BF801848DF601818F1A82F801EC
:101D20002485213009F077C0828993898436910512
:101D300009F130F4C297D9F080E9F801848706C030
:101D4000883C9105C9F080399140B1F78A81F8014A
:101D50002685378524303105C9F080F422303105DD
:101D6000B9F020E130E0F801378726870DC083E025
:101D70008A83ECCF82E0FCCF2A83E8CF283031057C
:101D800021F12031310569F7846001C088608A83C0
:101D90008A81F80120893189203AF1E03F0709F46E
:101DA00071C0E8F42433310509F46AC080F42D30A1
:101DB000310579F12A31310509F460C028E630E0B7
:101DC000F801318B208B806425C08C60E0CF2836F1
:101DD0003105C9F3203D310589F780651BC02230EC
:101DE000EDE03E0709F452C050F4213493E0390786
:101DF00009F44AC02C37364009F780680BC02430FC
:101E0000FAE13F0709F444C022313443B9F6806B4C
:101E100001C080618A834A8160E1C8010E943F0D50
:101E200043E1BE016E5F7F4FC8010E947B0D8A8136
:101E30008F778A83F8019585913011F480688A83C1
:101E40004A8163E1C8010E943F0D1A82F801838133
:101E50008130F1F584819581843FF1E09F0709F499
:101E60004FC0C0F48D379105F1F0853F9105E9F041
:101E700080ED97E0F8019583848313C08062CACF18
:101E80008063C8CF8066C6CF8067C4CF8069C2CF69
:101E9000806AC0CF883EE3E09E07A1F1803D974075
:101EA00039F78CE001C082E08A838A81F8012681BB
:101EB000378128363105A9F138F52A313105E1F1AC
:101EC00024333105D9F12D30310531F580618A8314
:101ED0004A8161E1C8010E943F0D4FE0BE016F5F82
:101EE0007F4FC8010E947B0DC7010F900F90DF91BB
:101EF000CF911F910F91FF90EF90DF90CF900895B9
:101F000084E0D2CF88E0D0CF203AF1E03F07D1F093
:101F100050F4203D3105A1F028E630E0F801378388
:101F200026838064D4CF2134E3E03E0769F02C3768
:101F3000364091F78068CBCF8062C9CF8063C7CF2E
:101F40008065C5CF8066C3CF8067C1CF80912904EB
:101F500090912A04891B990B089590912A048091ED
:101F600029042FEF3FEF981748F4E92FF0E0E55DE3
:101F7000FB4F208130E09F5F90932A04C9010895B0
:101F8000E0912A0480912904E81730F4F0E0E55D3F
:101F9000FB4F808190E008958FEF9FEF08950895A3
:101FA000CF93DF931F92CDB7DEB7698320910504ED
:101FB0002223F9F020910604203258F021E030E08D
:101FC000FC013383228390E080E00F90DF91CF917A
:101FD000089580910704E82FF0E0E85FFB4F9981B6
:101FE00090838F5F809307048093060481E090E0E4
:101FF000ECCF61E0CE0101960E948A11F7CFCF921B
:10200000DF92EF92FF920F931F93CF93DF937C01A8
:10201000CB018A0120910504222389F0EB016B0199
:10202000C40ED51ECC15DD0569F06991D701ED917F
:10203000FC910190F081E02DC7010995F3CF642F49
:102040000E948A11C801DF91CF911F910F91FF90DB
:10205000EF90DF90CF90089510922A0410922904F7
:1020600010920704109206040C94CD1081E0809326
:102070000504609328041092070410920604089542
:102080000F93062F21E04091060468E074E08091F0
:1020900028040E9433111092070410920604109233
:1020A00005040F9108954F925F926F927F92AF92C5
:1020B000BF92CF92EF92FF920F931F93CF93DF9334
:1020C0005C01F62ED42F28013901EE2019F10E946F
:1020D0003610CE2DC43008F0C3E0C150B8F028E06F
:1020E000C29FC0011124A301920104C056954795D7
:1020F000379527958A95D2F7B901D501ED91FC91D5
:102100000190F081E02DC5010995E7CF60E0C501A0
:102110000E9440104D2FD13208F040E22C2D6BE28E
:1021200074E08F2D0E94EB1010922A0480932904F2
:10213000DF91CF911F910F91FF90EF90CF90BF90C3
:10214000AF907F906F905F904F900895CF92EF92F5
:102150000F931F93C22EE12C00E010E098010E9423
:1021600053101F910F91EF90CF90089521E00C94A0
:10217000A61061E00C944010E9EFF3E013821282A4
:1021800088EE93E0A0E0B0E084839583A683B783D4
:102190008FE291E09183808308951092B80481E0EA
:1021A0008093B6041092B50461E082E10E94341776
:1021B00061E083E10E943417E9EBF0E080818E7FDB
:1021C000808380818D7F808380E28093B80085E466
:1021D0008093BC000895413208F043C09091B80448
:1021E0009111FCCF91E09093B8042093B6042FEFA7
:1021F00020934B0410929004240F20938F0490930B
:10220000B7049091B704880F892B8093B70480910D
:10221000B504813009F51092B5048091B70480931C
:10222000BB008091BC0083FDF8CF85EC8093BC009F
:102230008091B8048130E1F380919004841710F408
:1022400040919004A1E9B4E0962FFB018E2F891BE9
:10225000841720F0842F089585EEE8CF8D91819327
:10226000F5CF40E0F7CF0F93413208F04BC090918B
:10227000B8049111FCCF92E09093B8040093B60497
:102280009FEF90934B041092900440938F04362F4D
:10229000A1E9B4E0FB019E2F931B941770F11092FB
:1022A000B7049091B704880F892B8093B70480916D
:1022B000B504813029F51092B5048091B70480935C
:1022C000BB008091BC0083FDF8CF85EC8093BC00FF
:1022D000222321F08091B8048230D1F380914B0405
:1022E0008F3F91F080914B04803281F080914B04BC
:1022F000803371F084E00F91089591919D93CBCF3D
:1023000085EEE4CF81E0F7CF80E0F5CF82E0F3CF38
:1023100083E0F1CF613298F42091B804243089F43D
:1023200060936D04282FAFE6B4E0FC018E2F821B72
:10233000861710F080E0089581918D93F7CF81E0AA
:10234000089582E0089585ED8093BC008091BC00E3
:1023500084FDFCCF1092B804089585EC8093BC00F6
:102360001092B80408951F920F920FB60F92112485
:102370002F933F934F935F936F937F938F939F938D
:10238000AF93BF93EF93FF938091B900887F80361E
:1023900009F44CC008F03FC0883209F4A8C018F511
:1023A000803109F49CC0B8F4882309F4F9C088305E
:1023B00009F495C0FF91EF91BF91AF919F918F91DB
:1023C0007F916F915F914F913F912F910F900FBE31
:1023D0000F901F901895883109F489C0803251F709
:1023E00080934B0415C0803409F49EC048F48033B8
:1023F000B9F38833F9F680934B040E94AD11DACF1C
:10240000803509F485C0883509F496C0883491F682
:102410000E94A311CFCF883909F48CC038F58837D2
:1024200029F050F4883611F0803721F683E080934C
:10243000B80410924C0457C0883809F47BC0803926
:1024400019F0803809F0B6CF80914C04803208F042
:1024500071C0E0914C0481E08E0F80934C04809118
:10246000BB00F0E0E35BFB4F80833DC0803B39F075
:10247000E0F4803A09F479C0883A09F09BCF84E00F
:102480008093B80410926E0410926D04E091B3042E
:10249000F091B404099580916D0481110FC081E021
:1024A00080936D0410926F0409C0803C09F476C0DB
:1024B000883C09F473C0883B09F07CCFE0916E043E
:1024C00081E08E0F80936E04F0E0E159FB4F808134
:1024D0008093BB0090916E0480916D0429C080911F
:1024E000B7048093BB0085EC8093BC0063CF9091D0
:1024F000900480918F04981758F5E091900481E042
:102500008E0F80939004F0E0EF56FB4F8081E9CF6F
:10251000E091900481E08E0F809390048091BB0045
:10252000F0E0EF56FB4F80839091900480918F04F0
:102530009817C8F285E8D8CFE091900481E08E0F1B
:10254000809390048091BB00F0E0EF56FB4F8083B6
:102550008091B60481115CCF81E08093B50484EA58
:102560008093BC001092B80425CF0E94AD118091D9
:102570004C04803230F4E0914C04F0E0E35BFB4F1C
:10258000108260914C0470E0E091B104F091B204CB
:102590008DE494E0099510924C040CCF85ECE0CFCB
:1025A00010924B0435CFCF93CFB7F8948091B904F4
:1025B000811127C0EAE3F1E08491E3E2F1E0949134
:1025C000E82FF0E0EE0FFF1FE55AFE4FA591B49102
:1025D000EC91E92321F461E08AE00E94341761E084
:1025E0008AE00E94F8168CB580618CBD8CB5806441
:1025F0008CBD61E08DE00E94F81661E08BE00E94E6
:10260000F8168091B9048F5F8093B904CFBFCF9142
:102610000895FC01918D228D892F90E0805C9F4F61
:10262000821B91098F7399270895FC01918D828DEA
:10263000981731F0828DE80FF11D858D90E0089597
:102640008FEF9FEF0895FC01918D828D981761F0B7
:10265000A28DAE0FBF2FB11D5D968C91928D9F5FA5
:102660009F73928F90E008958FEF9FEF089581E818
:1026700094E1892B49F080E090E0892B29F00E94B9
:10268000811481110C9400000895FC01A48DA80F01
:10269000B92FB11DA35ABF4F2C91848D90E00196A4
:1026A0008F739927848FA689B7892C93A089B189C4
:1026B0008C9180648C93938D848D981306C00288CE
:1026C000F389E02D80818F7D80830895CF93DF9300
:1026D000EC01888D8823B9F0AA89BB89E889F9893A
:1026E0008C9185FD03C0808186FD0DC00FB607FC6F
:1026F000F7CF8C9185FFF2CF808185FFEDCFCE01A2
:102700000E944513E9CFDF91CF910895EF92FF9298
:102710000F931F93CF93DF93EC0181E0888F9B8D04
:102720008C8D981316C0E889F989808185FF11C0C6
:10273000EE89FF896083E889F989808180648083DC
:1027400081E090E0DF91CF911F910F91FF90EF908A
:102750000895F62E0B8D10E00F5F1F4F0F7311279A
:10276000E02E8C8D8E110CC00FB607FCFACFE889D5
:10277000F989808185FFF5CFCE010E944513F1CF05
:10278000EB8DEC0FFD2FF11DE35AFF4FF0820B8F05
:10279000EA89FB8980818062D2CFCF92DF92EF926B
:1027A000FF921F93CF93DF93EC016A017B01122FFD
:1027B00060E874E88EE190E0A70196010E94581A43
:1027C000215031094109510956954795379527956B
:1027D000E889F98982E08083211580E1380798F043
:1027E000E889F989108260E472E48FE090E0A70143
:1027F00096010E94581A21503109410951095695F4
:10280000479537952795EC85FD853083EE85FF85C7
:102810002083188EEC89FD891083EA89FB898081E9
:1028200080618083EA89FB89808188608083EA896E
:10283000FB89808180688083EA89FB8980818F7D24
:102840008083DF91CF911F91FF90EF90DF90CF9029
:1028500008951F920F920FB60F9211242F938F930A
:102860009F93EF93FF93E091CA04F091CB04808192
:10287000E091D004F091D10482FD1BC09081809141
:10288000D3048F5F8F732091D404821741F0E091BD
:10289000D304F0E0E654FB4F958F8093D304FF916F
:1028A000EF919F918F912F910F900FBE0F901F90DE
:1028B00018958081F4CF1F920F920FB60F921124BA
:1028C0002F933F934F935F936F937F938F939F9338
:1028D000AF93BF93EF93FF938AEB94E00E9445136D
:1028E000FF91EF91BF91AF919F918F917F916F91E8
:1028F0005F914F913F912F910F900FBE0F901F90BE
:1029000018958AEB94E00E94091321E0892B09F4C1
:1029100020E0822F0895EAEBF4E01382128288EE21
:1029200093E0A0E0B0E084839583A683B7838FE330
:1029300091E09183808385EC90E09587848784EC97
:1029400090E09787868780EC90E0918B808B81EC7C
:1029500090E0938B828B82EC90E0958B848B86EC5D
:1029600090E0978B868B118E128E138E148E0895A5
:10297000AF92BF92CF92DF92EF92FF920F931F938D
:10298000CF93DF936C017B018B01040F151FEB01CB
:102990005E01AE18BF08C017D10759F06991D60182
:1029A000ED91FC910190F081E02DC6010995892BF4
:1029B00079F7C501DF91CF911F910F91FF90EF90B3
:1029C000DF90CF90BF90AF90089508958230E8F4E3
:1029D000E82FF0E0EE0FFF1FEC5EFE4F7183608387
:1029E000813041F0809169008C7F482B40936900D1
:1029F000E89A089580916900837F440F551F440F22
:102A0000551F482B40936900E99A08951F920F9231
:102A10000FB60F9211242F933F934F935F936F93B1
:102A20007F938F939F93AF93BF93EF93FF93E09127
:102A30001401F09115010995FF91EF91BF91AF91AC
:102A40009F918F917F916F915F914F913F912F91C6
:102A50000F900FBE0F901F9018951F920F920FB6F8
:102A60000F9211242F933F934F935F936F937F9314
:102A70008F939F93AF93BF93EF93FF93E0911601D2
:102A8000F09117010995FF91EF91BF91AF919F913F
:102A90008F917F916F915F914F913F912F910F9007
:102AA0000FBE0F901F901895089508950E94191653
:102AB0000E9455150E941C01C7E3D3E10E949206B3
:102AC0002097E1F30E943713F9CF1F920F920FB6B0
:102AD0000F9211242F933F938F939F93AF93BF93A4
:102AE0008091580590915905A0915A05B0915B05C8
:102AF0003091570526E0230F2D3758F50296A11D7A
:102B0000B11D209357058093580590935905A093C4
:102B10005A05B0935B0580915C0590915D05A0918D
:102B20005E05B0915F050196A11DB11D80935C0506
:102B300090935D05A0935E05B0935F05BF91AF9143
:102B40009F918F913F912F910F900FBE0F901F90EB
:102B5000189529E8230F0396A11DB11DD2CF2FB7D9
:102B6000F894609158057091590580915A0590919B
:102B70005B052FBF08953FB7F89480915C05909155
:102B80005D05A0915E05B0915F0526B5A89B05C0C7
:102B90002F3F19F00196A11DB11D3FBFBA2FA92FDC
:102BA000982F8827BC01CD01620F711D811D911DD9
:102BB00043E0660F771F881F991F4A95D1F7089544
:102BC0008F929F92AF92BF92CF92DF92EF92FF923D
:102BD0006B017C010E94BB154B015C01C114D10447
:102BE000E104F104E9F00E9454150E94BB15681934
:102BF00079098A099B09683E73408105910570F344
:102C000021E0C21AD108E108F10888EE880E83E0BD
:102C1000981EA11CB11CC114D104E104F10429F7D0
:102C2000FF90EF90DF90CF90BF90AF909F908F90EC
:102C30000895789484B5826084BD84B5816084BD34
:102C400085B5826085BD85B5816085BDEEE6F0E025
:102C5000808181608083E1E8F0E010828081826081
:102C60008083808181608083E0E8F0E08081816002
:102C70008083E1EBF0E0808184608083E0EBF0E032
:102C8000808181608083EAE7F0E0808184608083D6
:102C900080818260808380818E7F80838081806854
:102CA00080831092C1000895883020F08D3008F4A0
:102CB0008DE08E502091180190E4299F90011124FD
:102CC0008770822B80937C0080917A00806480934F
:102CD0007A0080917A0086FDFCCF809178009091F7
:102CE000790008951F93CF93DF93182FEB0161E0D4
:102CF0000E94F816209739F460E0812FDF91CF9180
:102D00001F910C943417CF3FD10511F461E0F5CF3A
:102D1000E12FF0E0EE5FFE4FE491E43031F140F45A
:102D2000E230B1F0E330E1F0C038D1057CF7E4CF18
:102D3000E83029F1E93059F1E530B1F780918000B0
:102D4000806280938000D0938B00C0938A0004C07F
:102D500084B5806884BDC7BDDF91CF911F91089570
:102D600084B5806284BDC8BDF7CF80918000806843
:102D700080938000D0938900C0938800EDCF80912C
:102D8000B00080688093B000C093B300E5CF80911D
:102D9000B00080628093B000C093B400DDCF843077
:102DA00081F028F4823099F08330A9F008958830BA
:102DB000A9F08930C9F08530B1F4809180008F7D11
:102DC00003C0809180008F7780938000089584B540
:102DD0008F7784BD089584B58F7DFBCF8091B0003F
:102DE0008F778093B00008958091B0008F7DF9CFE8
:102DF000CF93DF9390E0FC01E75EFE4F2491805D6E
:102E00009E4FFC0184918823C9F090E0880F991FA0
:102E1000FC01E55AFE4FA591B491FC01EF5AFE4F1B
:102E2000C591D49161110DC09FB7F8948C912095F4
:102E300082238C938881282328839FBFDF91CF91A1
:102E40000895623051F49FB7F8943C91822F809599
:102E500083238C93E8812E2BEFCF8FB7F894EC91DE
:102E60002E2B2C938FBFEACF1F93CF93DF93282F66
:102E700030E0F901EE5FFE4F8491F901E75EFE4F0D
:102E8000D491F901E05DFE4FC491CC23A9F0162F37
:102E900081110E94CF16EC2FF0E0EE0FFF1FEF5ACA
:102EA000FE4FA591B4918FB7F894EC91111108C021
:102EB000D095DE23DC938FBFDF91CF911F910895D2
:102EC000DE2BF8CFCF93DF93282F30E0F901EE5FB0
:102ED000FE4F8491F901E75EFE4FD491F901E05D68
:102EE000FE4FC491CC23A1F081110E94CF16EC2F8C
:102EF000F0E0EE0FFF1FE95BFE4FA591B491EC915E
:102F0000ED2381E090E009F480E0DF91CF91089516
:102F100080E090E0FACF5058BB27AA270E94A31761
:102F20000C94F4180E94E61838F00E94ED1820F076
:102F300039F49F3F19F426F40C94E3180EF4E0954D
:102F4000E7FB0C94DD18E92F0E94051958F3BA1716
:102F5000620773078407950720F079F4A6F50C94AF
:102F600027190EF4E0950B2EBA2FA02D0B01B901F5
:102F700090010C01CA01A0011124FF27591B99F0EF
:102F8000593F50F4503E68F11A16F040A22F232FFB
:102F9000342F4427585FF3CF469537952795A7954B
:102FA000F0405395C9F77EF41F16BA0B620B730BF2
:102FB000840BBAF09150A1F0FF0FBB1F661F771F63
:102FC000881FC2F70EC0BA0F621F731F841F48F418
:102FD000879577956795B795F7959E3F08F0B0CFA1
:102FE0009395880F08F09927EE0F97958795089588
:102FF0000E940C180C94F4180E94ED1858F00E94CE
:10300000E61840F029F45F3F29F00C94DD185111C7
:103010000C9428190C94E3180E94051968F399235D
:10302000B1F3552391F3951B550BBB27AA276217C4
:103030007307840738F09F5F5F4F220F331F441FD1
:10304000AA1FA9F335D00E2E3AF0E0E832D0915005
:103050005040E695001CCAF72BD0FE2F29D0660FF2
:10306000771F881FBB1F261737074807AB07B0E835
:1030700009F0BB0B802DBF01FF2793585F4F3AF03B
:103080009E3F510578F00C94DD180C9428195F3F91
:10309000E4F3983ED4F3869577956795B795F795C1
:1030A0009F5FC9F7880F911D9695879597F90895A9
:1030B000E1E0660F771F881FBB1F62177307840745
:1030C000BA0720F0621B730B840BBA0BEE1F88F754
:1030D000E09508950E9471186894B1110C94281914
:1030E00008950E940D1988F09F5798F0B92F9927DD
:1030F000B751B0F0E1F0660F771F881F991F1AF0E3
:10310000BA95C9F714C0B13091F00E942719B1E007
:1031100008950C942719672F782F8827B85F39F006
:10312000B93FCCF3869577956795B395D9F73EF47B
:1031300090958095709561957F4F8F4F9F4F089523
:10314000E89409C097FB3EF4909580957095619541
:103150007F4F8F4F9F4F9923A9F0F92F96E9BB27F7
:103160009395F695879577956795B795F111F8CF73
:10317000FAF4BB0F11F460FF1BC06F5F7F4F8F4FDE
:103180009F4F16C0882311F096E911C0772321F0D4
:103190009EE8872F762F05C0662371F096E8862F6C
:1031A00070E060E02AF09A95660F771F881FDAF7C3
:1031B000880F9695879597F9089597F99F6780E806
:1031C00070E060E008959FEF80EC089500240A9479
:1031D0001616170618060906089500240A941216F2
:1031E0001306140605060895092E0394000C11F425
:1031F000882352F0BB0F40F4BF2B11F460FF04C0D2
:103200006F5F7F4F8F4F9F4F089557FD9058440F2A
:10321000551F59F05F3F71F04795880F97FB991F35
:1032200061F09F3F79F087950895121613061406F2
:10323000551FF2CF4695F1DF08C01616170618067F
:10324000991FF1CF86957105610508940895E8945A
:10325000BB2766277727CB0197F9089516F00C94C2
:10326000EB190C94E31868940C94DD180E940D1966
:10327000A8F39923C1F3AEF3DF93CF931F930F937A
:10328000FF92C92FDD2788232AF02197660F771F29
:10329000881FDAF720E030E040E85FEB9FE38839F1
:1032A00020F0803E38F021968F770E948C17E8E658
:1032B000F0E004C00E948C17E5E9F0E00E94F919E3
:1032C0008B01BE01EC01FB2E6F5771097595771FBD
:1032D000880B990B0E94A21828E132E741E35FE3D3
:1032E0000E949119AF2D9801AE01FF900F911F918F
:1032F000CF91DF910E94A3170C94F4180E949119AA
:103300000C94F4180E94E61838F00E94ED1820F092
:10331000952311F00C94DD180C94E31811240C94EF
:1033200028190E94051970F3959FC1F3950F50E07D
:10333000551F629FF001729FBB27F00DB11D639F67
:10334000AA27F00DB11DAA1F649F6627B00DA11D0D
:10335000661F829F2227B00DA11D621F739FB00DB3
:10336000A11D621F839FA00D611D221F749F332723
:10337000A00D611D231F849F600D211D822F762FBC
:103380006A2F11249F5750409AF0F1F088234AF099
:10339000EE0FFF1FBB1F661F771F881F9150504005
:1033A000A9F79E3F510580F00C94DD180C94281964
:1033B0005F3FE4F3983ED4F3869577956795B7958C
:1033C000F795E7959F5FC1F7FE2B880F911D9695A6
:1033D000879597F908959F3F31F0915020F4879594
:1033E00077956795B795880F911D9695879597F96D
:1033F0000895DF93CF931F930F93FF92EF92DF9285
:103400007B018C01689406C0DA2EEF010E949119AD
:10341000FE01E894A5912591359145915591A6F32A
:10342000EF010E94A317FE019701A801DA9469F742
:10343000DF90EF90FF900F911F91CF91DF91089552
:10344000DB018F939F930E94A81ABF91AF91A29F17
:10345000800D911DA39F900DB29F900D1124089592
:10346000AA1BBB1B51E107C0AA1FBB1FA617B707AA
:1034700010F0A61BB70B881F991F5A95A9F78095C6
:103480009095BC01CD01089597FB072E16F400948A
:1034900007D077FD09D00E94301A07FC05D03EF412
:1034A000909581959F4F0895709561957F4F0895F0
:1034B000A1E21A2EAA1BBB1BFD010DC0AA1FBB1F38
:1034C000EE1FFF1FA217B307E407F50720F0A21BAA
:1034D000B30BE40BF50B661F771F881F991F1A9417
:1034E00069F760957095809590959B01AC01BD0141
:1034F000CF010895052E97FB1EF400940E94911AA7
:1035000057FD07D00E94581A07FC03D04EF40C94C4
:10351000911A50954095309521953F4F4F4F5F4FF1
:10352000089590958095709561957F4F8F4F9F4F2F
:103530000895A29FB001B39FC001A39F700D811D8C
:103540001124911DB29F700D811D1124911D0895AC
:103550000E94991AA59F900DB49F900DA49F800D75
:10356000911D11240895EE0FFF1F0590F491E02D99
:063570000994F894FFCF5E
:103576000101BE0A2111B80BF00A3C3C2D002800BF
:103586009696FF01E514000001000000003409F0E2
:1035960008D307E500E1000901190800000000D082
:1035A6000FFF0FA60FAD0FC00FCF0F000000008654
:0C35B60013B81409132313151366130037
:00000001FF
