:1000000071C08BC08AC089C088C087C086C085C0C7
:1000100084C0EFC482C081C080C07FC07EC07DC06C
:100020007CC07BC07AC008000000BE922449123E0A
:10003000ABAAAA2ABECDCCCC4C3E00000080BEAB01
:10004000AAAAAA3E00000000BF000000803F0000F6
:10005000000000084178D3BB4387D1133D190E3C03
:10006000C3BD4282AD2B3E68EC8276BED98FE1A93A
:100070003E4C80EFFFBE01C4FF7F3F000000000048
:100080000000000000000000000304060000000063
:100090000000000000000001020408102040800160
:1000A00002040810200102040810204080400404CB
:1000B0000404040404040202020202020303030310
:1000C000030302020300000000360033003000008A
:1000D0000000003800350032000000000037003416
:1000E0000031000011241FBECFE5D4E0DEBFCDBF3C
:1000F00010E0A0E6B0E0E8E8F3E102C005900D9260
:10010000A037B107D9F720E0A0E7B0E001C01D9209
:10011000A539B207E1F733D635C972CFCF92DF9256
:10012000EF92FF92BC01990F880B990B37D79B0177
:10013000AC0160E070E080E894E495D620E030E027
:1001400040E85FE327D620E030E44CE156E41FD8D6
:10015000DED76B017C0129E537E44CEB53E317D87C
:10016000A701960114D823E73FE745E759E313D6E3
:10017000A70196010CD82BEE3FEF43E95AE30BD6CB
:100180009B01AC0160E070E080E89FE36CD623E364
:1001900033E948E853E4FED5FF90EF90DF90CF902D
:1001A00008958EE487B962E070E080E090E09DD42D
:1001B000369A3699FECF24B185B130E0382B032E24
:1001C000000C440B550B60EB74EC82E190E088D896
:1001D000CA01B901089581EA8FBD8BE08EBD60E050
:1001E00080E039D561E08AE036D561E089E033D539
:1001F00061E081E030D561E08FE02DD561E080E104
:100200002AD561E081E127D561E082E124D561E072
:1002100083E121C5CF93DF93609166007091670001
:1002200080E890E04AD87093790060937800C0919C
:100230006400D091650080916600909167008C17F2
:100240009D0774F0BE018AE0BDD460917800709182
:100250007900072E000C880B990B47D42196EBCF21
:10026000C0916400D0916500809166009091670014
:10027000C817D907BCF0BE018AE0A4D46091780009
:100280007091790077FF02C0695F7F4F83E07595B9
:1002900067958A95E1F7072E000C880B990B25D4FA
:1002A0002197E2CFDF91CF9108957BDF77D69B0135
:1002B000AC01609374007093750080937600909306
:1002C000770060E070EC88E295E4CDD56093700033
:1002D000709371008093720090937300209162007C
:1002E000309163002F5F3F4F2530310511F421E03D
:1002F00030E03093630020936200209162003091DF
:1003000063002130310529F41092670010926600D5
:100310001FC02230310539F488E090E090936700E7
:100320008093660015C02330310529F420E030E0C9
:1003300040E053E407C02430310599F420E030E078
:100340004FE753E424D7F7D57093670060936600B6
:1003500061DF8091660090916700909365008093C3
:1003600064000895CF93DF9360917C0070917D00CD
:1003700080E490E0A2D77093790060937800C091F8
:100380007A00D0917B0080917C0090917D008C1749
:100390009D0774F0BE0189E015D4609178007091DA
:1003A0007900072E000C880B990B9FD32196EBCF79
:1003B000C0917A00D0917B0080917C0090917D006B
:1003C000C817D907BCF0BE0189E0FCD36091780062
:1003D0007091790077FF02C0695F7F4F83E0759568
:1003E00067958A95E1F7072E000C880B990B7DD352
:1003F0002197E2CFDF91CF91089580916000909195
:10040000610001968530910511F481E090E09093B0
:100410006100809360008091600090916100813064
:10042000910529F410927D0010927C0024C0823046
:10043000910529F490937D0080937C001CC083304B
:10044000910529F420E030E040E053E406C0049731
:10045000D9F420E030E04FE753E4609170007091F0
:100460007100809172009091730091D664D5709361
:100470007D0060937C0076DF80917C0090917D0010
:1004800090937B0080937A0008950F931F93FBD283
:1004900000917E0010917F002091800030918100BA
:1004A000AB01BC01401B510B620B730B80916800C8
:1004B00090916900092E000CAA0BBB0B4817590735
:1004C0006A077B0738F081E090E090938700809383
:1004D000860021C0D8D200917E0010917F0020912B
:1004E000800030918100AB01BC01401B510B620BBD
:1004F000730B8091680090916900092E000CAA0B83
:10050000BB0B481759076A077B0770F476DF109218
:10051000870010928600B7D260937E0070937F00B0
:1005200080938000909381001F910F910895CF9246
:10053000DF92EF92FF921092740010927500109269
:100540007600109277002DDE29D5609374007093A9
:100550007500809376009093770020E030E048E4C7
:1005600055E47DD487FF0FC061E08FE0B0D360E039
:1005700080E1ADD360E081E1AAD360E082E1A7D35E
:1005800060E083E1A4D3C0907400D0907500E09047
:100590007600F090770020E030E048E455E4C701B1
:1005A000B601ACD51816C4F420E030E844E555E4B3
:1005B000C701B60154D487FF0FC061E08FE087D335
:1005C00061E080E184D360E081E181D360E082E199
:1005D0007ED360E083E17BD3C0907400D09075003F
:1005E000E0907600F090770020E030E844E555E4B4
:1005F000C701B60183D51816C4F420E030E041E607
:1006000055E4C701B6012BD487FF0FC061E08FE02E
:100610005ED361E080E15BD361E081E158D360E0CB
:1006200082E155D360E083E152D3C0907400D09052
:100630007500E0907600F090770020E030E041E631
:1006400055E4C701B6015AD51816C4F420E030E0CD
:100650004AE755E4C701B60102D487FF0FC061E045
:100660008FE035D361E080E132D361E081E12FD3C7
:1006700061E082E12CD360E083E129D320E030E027
:100680004AE755E46091740070917500809176009E
:100690009091770033D518167CF461E08FE017D382
:1006A00061E080E114D361E081E111D361E082E196
:1006B0000ED361E083E10BD362E070E080E090E074
:1006C000FF90EF90DF90CF9010C260E08FE0FFD2FC
:1006D00060E080E1FCD260E081E1F9D260E082E19B
:1006E000F6D260E083E1F3C2CF92DF92EF92FF9205
:1006F0000F931F93CF93DF9354DD50D46093740016
:1007000070937500809376009093770020E030EC32
:1007100048E255E460917400709175008091760014
:10072000909177009CD387FF43C060E08AE0CFD2EE
:1007300060E089E0CCD261E08FE0C9D260E080E186
:10074000C6D260E081E1C3D260E082E1C0D260E065
:1007500083E1BDD268EC70E080E090E0C6D160E05B
:100760008FE0B5D268EC70E080E090E0BED161E04F
:100770008FE0ADD268EC70E080E090E0B6D160E050
:100780008FE0A5D260E273E080E090E0AED120E09F
:1007900030E84BE355E460917400709175008091EE
:1007A000760090917700AAD418160CF0AFCFBFDE78
:1007B0006AD1683E734081059105D8F460E070E02D
:1007C0008AE000D260E070E089E0FCD1B0DE60ED4C
:1007D00077E080E090E089D178DF609166007091E9
:1007E00067008AE0EFD160917C0070917D0089E024
:1007F000E9D180E0D3D192DC6B017C01C8E0D0E08C
:1008000020E030E048E452E4C701B60177D418167E
:1008100074F5D0936700C0936600D0936500C093D1
:100820006400F8DC61E081E052D262E370E080E0D5
:1008300090E05BD160E081E04AD262E370E080E06A
:1008400090E053D180E0AAD169DC20E030E040E2C2
:1008500052E405D387FFD4CF80E890E090936700FF
:10086000809366009093650080936400D3DC80E001
:100870005DD2EC018130910589F480918A009091DC
:100880008B00892B09F07AC0FED0609382007093B0
:100890008300809384009093850070C0892B09F0B9
:1008A00040C080918A0090918B000197D1F5EBD0E8
:1008B0000091820010918300209184003091850086
:1008C000AB01BC01401B510B620B730B80916C00A0
:1008D00090916D00092E000CAA0BBB0B8417950795
:1008E000A607B70738F48091880090918900019796
:1008F00009F074C08091880090918900019789F473
:10090000E4DE60916600709167008AE05BD16091DF
:100910007C0070917D0089E055D110928900109281
:100920008800D0938B00C0938A00809186009091BC
:100930008700019709F054C0A6D000917E00109165
:100940007F002091800030918100AB01BC01401BF1
:10095000510B620B730B8091680090916900092E16
:10096000000CAA0BBB0B84179507A607B707C0F5A9
:100970009CDC109287001092860032C000918A00A1
:1009800010918B000130110561F67DD0C09082007E
:10099000D0908300E0908400F0908500AB01BC0112
:1009A0004C195D096E097F0980916A0090916B0076
:1009B000092E000CAA0BBB0B84179507A607B707D7
:1009C00008F0AFCF60E08AE082D160E089E07FD1BB
:1009D000AEDD1093890000938800A3CF56DD8ACF47
:1009E000DF91CF911F910F91FF90EF90DF90CF900B
:1009F00008951F920F920FB60F9211242F933F93D9
:100A00008F939F93AF93BF9380918D0090918E00B1
:100A1000A0918F00B091900030918C0026E0230FC0
:100A20002D3720F40296A11DB11D05C029E8230F22
:100A30000396A11DB11D20938C0080938D0090938F
:100A40008E00A0938F00B0939000809191009091C0
:100A50009200A0919300B09194000196A11DB11D48
:100A60008093910090939200A0939300B093940090
:100A7000BF91AF919F918F913F912F910F900FBE9A
:100A80000F901F9018952FB7F89460918D0070917A
:100A90008E0080918F00909190002FBF08953FB7F6
:100AA000F8948091910090919200A0919300B09160
:100AB000940022B708B600FE05C02F3F19F001963A
:100AC000A11DB11D3FBFBA2FA92F982F8827820FD4
:100AD000911DA11DB11DBC01CD0143E0660F771F23
:100AE000881F991F4A95D1F708958F929F92AF92D0
:100AF000BF92CF92DF92EF92FF926B017C01CFDF2A
:100B00004B015C01C114D104E104F104F1F041D1C5
:100B1000C6DFDC01CB0188199909AA09BB09883E07
:100B20009340A105B10570F321E0C21AD108E10894
:100B3000F10888EE880E83E0981EA11CB11CC11438
:100B4000D104E104F10421F7DDCFFF90EF90DF90B5
:100B5000CF90BF90AF909F908F900895789483B777
:100B6000826083BF83B7816083BF89B7816089BF9B
:100B70001EBC8EB582608EBD8EB581608EBD8FB578
:100B800081608FBD85B5846085BD85B5806485BD78
:100B9000329A319A3098379A1AB808958E3008F000
:100BA0008E50877020916E0090E4299F900111244F
:100BB000822B87B9369A3699FECF84B125B190E061
:100BC000922B08951F93CF93DF93182FEB0161E0D1
:100BD00042D0209711F460E004C0CF3FD10531F43A
:100BE00061E0812FDF91CF911F9171C0E12FF0E083
:100BF000E058FF4FE491E43051F0E63071F0E3301B
:100C000089F48FB580688FBDDBBDCABD0FC08FB5BD
:100C100080628FBDD9BDC8BD09C085B5806285BD64
:100C2000C3BD04C0C038D105DCF6D5CFDF91CF916C
:100C30001F910895843039F0863049F0833051F4A3
:100C40008FB58F7702C08FB58F7D8FBD089585B525
:100C50008F7D85BD0895CF93DF9390E0FC01E95629
:100C6000FF4F2491FC01E255FF4F8491882361F1ED
:100C700090E0880F991FFC01E752FF4FC591D49176
:100C8000FC01E153FF4FA591B491611109C09FB7D9
:100C9000F8948881209582238883EC912E230BC0C1
:100CA000623061F49FB7F8943881822F8095832356
:100CB0008883EC912E2B2C939FBF06C08FB7F8949E
:100CC000E8812E2B28838FBFDF91CF9108951F934A
:100CD000CF93DF93282F30E0F901E058FF4F849144
:100CE000F901E956FF4FD491F901E255FF4FC49144
:100CF000CC23C1F0162F81119DDFEC2FF0E0EE0F19
:100D0000FF1FE153FF4FA591B4918FB7F8941111D4
:100D100005C09C91ED2FE095E92302C0EC91ED2BED
:100D2000EC938FBFDF91CF911F910895CF93DF9305
:100D3000282F30E0F901E058FF4F8491F901E9567E
:100D4000FF4FD491F901E255FF4FC491CC2389F0B4
:100D5000811170DFEC2FF0E0EE0FFF1FEB53FF4F20
:100D6000A591B491EC91ED2381E090E021F480E035
:100D700002C080E090E0DF91CF9108950895EEDE0B
:100D8000FDDF29DAC0E0D0E0AFDC2097E9F338D905
:100D9000FBCF08955058BB27AA270ED075C166D146
:100DA00030F06BD120F031F49F3F11F41EF45BC1A1
:100DB0000EF4E095E7FB51C1E92F77D180F3BA1724
:100DC000620773078407950718F071F49EF58FC1C9
:100DD0000EF4E0950B2EBA2FA02D0B01B901900156
:100DE0000C01CA01A0011124FF27591B99F0593F9A
:100DF00050F4503E68F11A16F040A22F232F342FE2
:100E00004427585FF3CF469537952795A795F0402F
:100E10005395C9F77EF41F16BA0B620B730B840B44
:100E2000BAF09150A1F0FF0FBB1F661F771F881FFC
:100E3000C2F70EC0BA0F621F731F841F48F4879554
:100E400077956795B795F7959E3F08F0B3CF939543
:100E5000880F08F09927EE0F979587950895D9D0B8
:100E600008F481E008950CD00FC107D140F0FED006
:100E700030F021F45F3F19F0F0C0511139C1F3C0D7
:100E800014D198F39923C9F35523B1F3951B550B4E
:100E9000BB27AA2762177307840738F09F5F5F4F4D
:100EA000220F331F441FAA1FA9F333D00E2E3AF08E
:100EB000E0E830D091505040E695001CCAF729D0A8
:100EC000FE2F27D0660F771F881FBB1F26173707F7
:100ED0004807AB07B0E809F0BB0B802DBF01FF2727
:100EE00093585F4F2AF09E3F510568F0B6C000C18D
:100EF0005F3FECF3983EDCF3869577956795B79561
:100F0000F7959F5FC9F7880F911D9695879597F97B
:100F10000895E1E0660F771F881FBB1F62177307F4
:100F20008407BA0720F0621B730B840BBA0BEE1F09
:100F300088F7E095089504D06894B111D9C0089558
:100F4000BCD088F09F5790F0B92F9927B751A0F0E7
:100F5000D1F0660F771F881F991F1AF0BA95C9F74D
:100F600012C0B13081F0C3D0B1E00895C0C0672F86
:100F7000782F8827B85F39F0B93FCCF386957795FD
:100F80006795B395D9F73EF49095809570956195E6
:100F90007F4F8F4F9F4F0895E89409C097FB3EF411
:100FA00090958095709561957F4F8F4F9F4F9923B6
:100FB000A9F0F92F96E9BB279395F6958795779534
:100FC0006795B795F111F8CFFAF4BB0F11F460FFF4
:100FD0001BC06F5F7F4F8F4F9F4F16C0882311F04C
:100FE00096E911C0772321F09EE8872F762F05C060
:100FF000662371F096E8862F70E060E02AF09A95FB
:10100000660F771F881FDAF7880F9695879597F9EF
:101010000895990F0008550FAA0BE0E8FEEF161689
:101020001706E807F907C0F012161306E407F507DC
:1010300098F0621B730B840B950B39F40A2661F050
:10104000232B242B252B21F408950A2609F4A140F3
:10105000A6958FEF811D811D089597F99F6780E800
:1010600070E060E008959FEF80EC089500240A94FA
:101070001616170618060906089500240A94121673
:101080001306140605060895092E0394000C11F4A6
:10109000882352F0BB0F40F4BF2B11F460FF04C053
:1010A0006F5F7F4F8F4F9F4F089557FD9058440FAC
:1010B000551F59F05F3F71F04795880F97FB991FB7
:1010C00061F09F3F79F08795089512161306140674
:1010D000551FF2CF4695F1DF08C016161706180601
:1010E000991FF1CF86957105610508940895E894DC
:1010F000BB2766277727CB0197F908958ADF08F485
:101100008FEF08950EF0A6C0AECF6894A6CFD5DFBE
:10111000C8F39923D1F3C6F3DF93CF931F930F93B3
:10112000FF92C92FDD2788232AF02197660F771FAA
:10113000881FDAF720E030E040E85FEB9FE3883972
:1011400020F0803E30F021968F7725DEE6E2F0E059
:1011500003C021DEE3E5F0E08BD08B01BE01EC01A2
:10116000FB2E6F5771097595771F880B990B16DF4A
:1011700028E132E741E35FE316D0AF2D9801AE01DD
:10118000FF900F911F91CF91DF9116DE7DCF0BD095
:101190007BCF6CDF28F071DF18F0952309F05DCF6D
:1011A00062CF1124A5CF81DFA0F3959FD1F3950FD6
:1011B00050E0551F629FF001729FBB27F00DB11DDB
:1011C000639FAA27F00DB11DAA1F649F6627B00D6B
:1011D000A11D661F829F2227B00DA11D621F739F54
:1011E000B00DA11D621F839FA00D611D221F749F62
:1011F0003327A00D611D231F849F600D211D822FA9
:10120000762F6A2F11249F5750408AF0E1F08823EF
:101210004AF0EE0FFF1FBB1F661F771F881F9150FC
:101220005040A9F79E3F510570F017CF61CF5F3F47
:10123000ECF3983EDCF3869577956795B795F7952F
:10124000E7959F5FC1F7FE2B880F911D96958795B7
:1012500097F908959F3F31F0915020F48795779545
:101260006795B795880F911D9695879597F908957D
:10127000DF93CF931F930F93FF92EF92DF927B0147
:101280008C01689405C0DA2EEF018DDFFE01E89431
:10129000A5912591359145915591AEF3EF018CDDE6
:1012A000FE019701A801DA9479F7DF90EF90FF90A3
:1012B0000F911F91CF91DF91089597FB072E16F4A0
:1012C000009406D077FD08D027D007FC05D03EF467
:1012D000909581959F4F0895709561957F4F0895E2
:1012E000052E97FB16F400940FD057FD05D028D09B
:1012F00007FC02D046F408C05095409530952195E2
:101300003F4F4F4F5F4F0895909580957095619531
:101310007F4F8F4F9F4F0895AA1BBB1B51E107C002
:10132000AA1FBB1FA617B70710F0A61BB70B881F75
:10133000991F5A95A9F780959095BC01CD01089504
:10134000A1E21A2EAA1BBB1BFD010DC0AA1FBB1FC9
:10135000EE1FFF1FA217B307E407F50720F0A21B3B
:10136000B30BE40BF50B661F771F881F991F1A94A8
:1013700069F760957095809590959B01AC01BD01D2
:08138000CF010895F894FFCF9E
:101388000100030078007800F401FA00320001003F
:00000001FF
