:100000000C9498000C94C0000C94C0000C94C00098
:100010000C94C0000C94C0000C94C0000C94C00060
:100020000C94C0000C9449070C94C0000C94C000C0
:100030000C94C0000C94C0000C94C0000C94C00040
:100040000C94C0000C94C0000C94C0000C94C00030
:100050000C94C00008000000BE922449123EABAAD6
:10006000AA2ABECDCCCC4C3E00000080BEABAAAAD2
:10007000AA3E00000000BF000000803F000000001A
:1000800000084178D3BB4387D1133D190E3CC3BD53
:100090004282AD2B3E68EC8276BED98FE1A93E4C00
:1000A00080EFFFBE01C4FF7F3F00000000000000A2
:1000B0000001000000000000000004030006000032
:1000C000000000000000000000000000000001022D
:1000D0000408102040800102040810204080010222
:1000E0000408102040800102040810204080020211
:1000F00002020202020204040404040404040303CE
:1001000003030303030301010101010101010000D5
:10011000390036003300300000003B003800350065
:10012000320000003A0037003400310089068F06A3
:1001300011241FBECFE5D4E0DEBFCDBF12E0A0E6A4
:10014000B0E0EEEEFAE102C005900D92A83BB107D7
:10015000D9F722E0A8EBB2E001C01D92AA3FB20796
:10016000E1F710E0C7E9D0E004C02197FE010E944A
:10017000640DC639D107C9F70E945E0A0C946A0D56
:100180000C940000CF92DF92EF92FF92BC01990F86
:10019000880B990B0E94540B9B01AC0160E070E04E
:1001A00080E894E40E94E00A20E030E040E85FE369
:1001B0000E946E0A20E030E44CE156E40E94590CA3
:1001C0000E94110C6B017C0129E537E44CEB53E3F1
:1001D0000E94590CA70196010E94590C23E73FE7A2
:1001E00045E759E30E946F0AA70196010E94590C46
:1001F0002BEE3FEF43E95AE30E946F0A9B01AC01EB
:1002000060E070E080E89FE30E94E00A23E333E9C6
:1002100048E853E40E946E0AFF90EF90DF90CF9081
:1002200008958EE587B964E070E080E090E00E9478
:10023000C507369A3699FECF24B185B130E0382B08
:10024000032E000C440B550B64E572EB82E190E049
:100250000E940F0DCA01B901089560E089E00E9473
:100260009B0860E088E00E949B0861E086E10E94B4
:100270009B0861E081E10E949B0861E082E10E94AD
:100280009B0861E083E10E949B0861E084E10E9499
:100290009B0861E085E10E949B086DE08BEB92E09A
:1002A0000E9401078BEB92E00C94F5060F931F93CD
:1002B0000E9493070091CD021091CE022091CF02AF
:1002C0003091D002AB01BC01401B510B620B730B90
:1002D0008091A4029091A502092E000CAA0BBB0BE1
:1002E000481759076A077B0738F081E090E0909340
:1002F000D6028093D50221C00E9493070091CD02BF
:100300001091CE022091CF023091D002AB01BC01FE
:10031000401B510B620B730B8091A4029091A502BC
:10032000092E000CAA0BBB0B481759076A077B075D
:1003300070F41092D6021092D5020E949307609337
:10034000CD027093CE028093CF029093D0021F9182
:100350000F9108951F93CF93DF938091DB029091CB
:10036000DC0201968530910511F481E090E09093D4
:10037000DC028093DB028091DB029091DC02813011
:100380009105F1F4C0E0D0E01092BA021092B802E8
:100390001092B9022091B8023091B9024091BA028C
:1003A000BE018BEB92E00E94A9062196C033D105D5
:1003B00059F78BEB92E0DF91CF911F910C94D4060B
:1003C00082309105C9F4C0E0D0E014E11093BA0284
:1003D0001093B8021093B9022091B8023091B9027B
:1003E0004091BA02BE018BEB92E00E94A9062196D1
:1003F000C033D10559F7DDCF83309105C9F4C0E092
:10040000D0E014E61093BA021093B8021093B90228
:100410002091B8023091B9024091BA02BE018BEB33
:1004200092E00E94A9062196C033D10559F7C1CFA9
:100430000497C9F4C0E0D0E01CED1093BA02109309
:10044000B8021093B9022091B8023091B9024091DC
:10045000BA02BE018BEB92E00E94A9062196C0333E
:10046000D10559F7A6CFDF91CF911F9108950F9332
:100470001F93CF93DF938091DD029091DE0201966E
:100480008630910511F481E090E09093DE02809334
:10049000DD028091DD029091DE028130910501F54F
:1004A000C0E0D0E014E61093BA021092B8021092A5
:1004B000B9022091B8023091B9024091BA02BE014E
:1004C0008BEB92E00E94A9062196C033D10559F723
:1004D0008BEB92E0DF91CF911F910F910C94D4069A
:1004E00082309105C9F4C0E0D0E014E61092BA025F
:1004F0001092B8021093B9022091B8023091B9025B
:100500004091BA02BE018BEB92E00E94A9062196AF
:10051000C033D10559F7DCCF83309105C9F4C0E071
:10052000D0E014E61092BA021093B8021092B90209
:100530002091B8023091B9024091BA02BE018BEB12
:1005400092E00E94A9062196C033D10559F7C0CF89
:1005500084309105F9F4C0E8D1E000E010E0888132
:100560008093BA028A818093B8028C818093B90209
:100570002091B8023091B9024091BA02B8018BEBD8
:1005800092E00E94A9060F5F1F4F269606331105C1
:1005900031F79ECF0597F9F4C0E6D0E000E010E017
:1005A00088818093BA028A818093B8028C8180937B
:1005B000B9022091B8023091B9024091BA02B80153
:1005C0008BEB92E00E94A9060F5F1F4F2696063321
:1005D000110531F77DCFDF91CF911F910F910895D4
:1005E0000F931F930E9493070091DF021091E00286
:1005F0002091E1023091E202AB01BC01401B510BA2
:10060000620B730B8091AA029091AB02092E000C31
:10061000AA0BBB0B481759076A077B0738F081E024
:1006200090E09093E8028093E70223C00E94930732
:100630000091DF021091E0022091E1023091E2028C
:10064000AB01BC01401B510B620B730B8091AA02E2
:100650009091AB02092E000CAA0BBB0B481759074F
:100660006A077B0780F40E9437021092E80210921A
:10067000E7020E9493076093DF027093E002809389
:10068000E1029093E2021F910F910895CF92DF92C1
:10069000EF92FF92CF93DF930E9411016B017C01D7
:1006A000EB0180E8C8168CE0D806A0F461E081E197
:1006B0000E94D70860E082E10E94D70860E083E1F1
:1006C0000E94D70860E084E10E94D70860E085E1DD
:1006D0000E94D708C60181589C40873C9105A0F430
:1006E00061E081E10E94D70861E082E10E94D708C1
:1006F00060E083E10E94D70860E084E10E94D708AF
:1007000060E085E10E94D708C60189549D40873C7E
:100710009105A0F461E081E10E94D70861E082E1E7
:100720000E94D70861E083E10E94D70860E084E17D
:100730000E94D70860E085E10E94D70881E1C81ACD
:100740008EE0D80A8FE8C81681E0D80690F461E000
:1007500081E10E94D70861E082E10E94D70861E050
:1007600083E10E94D70861E084E10E94D70860E03D
:1007700014C0C13ADF40D0F061E081E10E94D708A7
:1007800061E082E10E94D70861E083E10E94D7081E
:1007900061E084E10E94D70861E085E1DF91CF91BB
:1007A000FF90EF90DF90CF900C94D708DF91CF911E
:1007B000FF90EF90DF90CF90089560E081E10E947C
:1007C000D70860E082E10E94D70860E083E10E94E0
:1007D000D70860E084E10E94D70860E085E10C94CE
:1007E000D70860E070E08CE00C943F08CF93DF9373
:1007F000C0E0D0E01092BA021092B8021092B90292
:100800002091B8023091B9024091BA02BE018BEB3F
:1008100092E00E94A9062196C033D10559F78BEBCF
:1008200092E0DF91CF910C94D406CF92DF92EF92B9
:10083000FF92CF93DF936091CB027091CC0280E85E
:1008400090E00E94FB0CCB01770FAA0BBB0B8093AF
:10085000C7029093C802A093C902B093CA02C09184
:10086000A002D091A1028091CB029091CC028C1772
:100870009D0784F0BE018CE00E943F086091C70292
:100880007091C8028091C9029091CA020E94C50766
:100890002196E9CFC091A002D091A10288E0C82E94
:1008A000D12CE12CF12C8091CB029091CC02C81775
:1008B000D907B4F0BE018CE00E943F086091C702E6
:1008C0007091C8028091C9029091CA02A701960155
:1008D0000E940F0DCA01B9010E94C5072197E3CFFD
:1008E000DF91CF91FF90EF90DF90CF9008958091AE
:1008F000A2029091A30201968530910511F481E046
:1009000090E09093A3028093A2028091A202909122
:10091000A3028130910529F41092CC021092CB02EF
:1009200014C08230910519F488E090E00AC0833049
:10093000910519F48FE790E004C0049781F48AEEE2
:1009400090E09093CC028093CB020E94150480919A
:10095000CB029091CC029093A1028093A0020895C3
:10096000CF92DF92EF92FF920F931F93CF93DF937B
:100970000E949307683E73408105910550F40E94E0
:10098000460360ED77E080E090E00E94C5070E949A
:10099000DD0380EC87B980E00E9427080E94C20036
:1009A0006B017C01C8E0D0E020E030E040EA52E496
:1009B000C701B6010E94040C1816CCF561E086E16F
:1009C0000E94D70862E370E080E090E00E94C507D3
:1009D00060E086E10E94D70862E370E080E090E08A
:1009E0000E94C507D093CC02C093CB02D093A10242
:1009F000C093A0020E9415040E94F60380E00E94AA
:100A000027080E94C20020E030E040E752E40E9444
:100A1000DB0A87FFC9CF84E690E09093CC028093F5
:100A2000CB029093A1028093A0020E94150489E05A
:100A30000E940709EC018130910591F48091EB024D
:100A40009091EC02892B09F0ECC00E94930760930F
:100A5000E3027093E4028093E5029093E602E1C022
:100A6000892BB1F58091EB029091EC02019781F511
:100A70000E9493070091E3021091E4022091E502A5
:100A80003091E602AB01BC01401B510B620B730BB2
:100A90008091AE029091AF02092E000CAA0BBB0B05
:100AA00084179507A607B70738F48091E90290915B
:100AB000EA02019709F0E6C08091E9029091EA020A
:100AC000019731F40E94DD031092EA021092E902CC
:100AD000D093EC02C093EB028091E7029091E80280
:100AE0000197F1F40E9493070091DF021091E00258
:100AF0002091E1023091E202AB01BC01401B510B9D
:100B0000620B730B8091AA029091AB02092E000C2C
:100B1000AA0BBB0B84179507A607B70708F4B5C047
:100B200088E00E940709EC018130910591F48091E1
:100B3000D9029091DA02892B09F0AEC00E94930786
:100B40006093D1027093D2028093D3029093D40227
:100B5000A3C0892BB1F58091D9029091DA02019757
:100B600081F50E9493070091D1021091D202209149
:100B7000D3023091D402AB01BC01401B510B620B7C
:100B8000730B8091A8029091A902092E000CAA0B68
:100B9000BB0B84179507A607B70738F48091D702D7
:100BA0009091D802019709F0A8C08091D702909146
:100BB000D802019731F40E94DD031092D8021092FE
:100BC000D702D093DA02C093D9028091D5029091D6
:100BD000D602019709F094C00E9493070091CD02BC
:100BE0001091CE022091CF023091D002AB01BC0116
:100BF000401B510B620B730B8091A4029091A502D4
:100C0000092E000CAA0BBB0B84179507A607B70784
:100C100008F076C00E9477041092D6021092D50296
:100C20006FC00091EB021091EC020130110509F048
:100C30004FCF0E949307C090E302D090E402E0906F
:100C4000E502F090E602AB01BC014C195D096E09AA
:100C50007F098091AC029091AD02092E000CAA0B85
:100C6000BB0B84179507A607B70708F031CF0E9482
:100C7000F6030E94F1030E9446031093EA020093D8
:100C8000E90226CF0E94F00217CF0E94AA0110921B
:100C9000E8021092E70244CF0091D9021091DA02E3
:100CA0000130110509F08DCF0E949307C090D10249
:100CB000D090D202E090D302F090D402AB01BC01FC
:100CC0004C195D096E097F098091A6029091A702D7
:100CD000092E000CAA0BBB0B84179507A607B707B4
:100CE00008F06FCF0E94F6030E94F1030E944603B2
:100CF0001093D8020093D70264CF0E94560155CFBB
:100D0000DF91CF911F910F91FF90EF90DF90CF90E7
:100D1000089560E370E08BEB92E00C9493068BEB0C
:100D200092E00C94FC06CF93DF93EC017983688307
:100D3000CB01880F991F860F971F0E9430099B8354
:100D40008A831D8281E08C8382E08E83DF91CF9144
:100D50000895CF93DF93EC01888199816817790713
:100D6000F8F4FB01EE0FFF1F6E0F7F1F8C81AA812D
:100D7000BB81A60FB71FA80FB11D3C938D81AA811F
:100D8000BB81A60FB71FA80FB11D2C938E81EA81DE
:100D9000FB81E60FF71FE80FF11D408380E001C0E3
:100DA00081E0DF91CF910895EF92FF920F931F930F
:100DB000FC01A185B2859C918385892B8C93E1846C
:100DC000F2840781108540815181CA01880F991FE3
:100DD000480F591F628173812385CF010E94290723
:100DE0001F910F91FF90EF900895FC01158281E013
:100DF000848382E086830895FC01828193810C9430
:100E0000C509DC0170E0FB01E253FF4FE4911B9642
:100E1000EC931B9762517F4FFB018491E82FF0E028
:100E2000EE0FFF1FE85EFE4F8591949118969C93FC
:100E30008E931797FB016491E62FF0E0EE0FFF1FF2
:100E4000EE5DFE4F859194911A969C938E9319971F
:100E500008950F931F93D8018C91922F909598230A
:100E6000822B2FB7F894FB01460F571FE417F507A5
:100E700061F0319168E08C9337FF9C93330F00C091
:100E800008F49C936A95B9F7F1CF2FBF1F910F918A
:100E900008951F920F920FB60F9211242F933F9334
:100EA0008F939F93AF93BF938091EE029091EF0247
:100EB000A091F002B091F1023091ED0226E0230FF3
:100EC0002D3720F40296A11DB11D05C029E8230F7E
:100ED0000396A11DB11D2093ED028093EE02909325
:100EE000EF02A093F002B093F1028091F202909190
:100EF000F302A091F402B091F5020196A11DB11D7B
:100F00008093F2029093F302A093F402B093F5025F
:100F1000BF91AF919F918F913F912F910F900FBEF5
:100F20000F901F9018952FB7F8946091EE02709172
:100F3000EF028091F0029091F1022FBF08953FB728
:100F4000F8948091F2029091F302A091F402B09192
:100F5000F50222B708B600FE05C02F3F19F0019632
:100F6000A11DB11D3FBFBA2FA92F982F8827820F2F
:100F7000911DA11DB11DBC01CD0143E0660F771F7E
:100F8000881F991F4A95D1F708958F929F92AF922B
:100F9000BF92CF92DF92EF92FF926B017C010E9491
:100FA0009F074B015C01C114D104E104F10401F17C
:100FB0000E946D0A0E949F07DC01CB0188199909E4
:100FC000AA09BB09883E9340A105B10560F321E061
:100FD000C21AD108E108F10888EE880E83E0981E55
:100FE000A11CB11CC114D104E104F10419F7DBCF39
:100FF000FF90EF90DF90CF90BF90AF909F908F9039
:101000000895789483B7826083BF83B7816083BF7C
:1010100083B7806483BF83B7886083BF89B78160EB
:1010200089BF1EBC8EB582608EBD8EB581608EBDBF
:101030008FB581608FBD85B5846085BD85B58064C1
:1010400085BD329A319A309A379A1AB80895883005
:1010500028F0883110F0885101C08FEF87702091FF
:10106000B00290E4299F90011124822B87B9369A0F
:101070003699FECF84B125B190E0922B08951F934D
:10108000CF93DF93182FEB0161E00E949B0820971C
:1010900011F460E004C0CF3FD10539F461E0812F45
:1010A000DF91CF911F910C94D708E12FF0E0E2552A
:1010B000FF4FE491E33089F038F4E130D1F483B7A5
:1010C000806283BFCCBF19C0E43069F0E63089F498
:1010D00085B5806285BDC3BD10C08FB580688FBDEA
:1010E000DBBDCABD0AC08FB580628FBDD9BDC8BD8A
:1010F00004C0C038D10594F6CCCFDF91CF911F91B9
:101100000895833049F018F4813089F008958430CF
:1011100031F0863041F008958FB58F7702C08FB5DA
:101120008F7D8FBD089585B58F7D85BD089583B76B
:101130008F7D83BF0895CF93DF9390E0FC01E2534E
:10114000FF4F2491FC01E251FF4F8491882361F10C
:1011500090E0880F991FFC01EE5DFE4FC591D49180
:10116000FC01E85EFE4FA591B491611109C09FB7E3
:10117000F8948881209582238883EC912E230BC0DC
:10118000623061F49FB7F8943881822F8095832371
:101190008883EC912E2B2C939FBF06C08FB7F894B9
:1011A000E8812E2B28838FBFDF91CF9108951F9365
:1011B000CF93DF93282F30E0F901E255FF4F849160
:1011C000F901E253FF4FD491F901E251FF4FC4916D
:1011D000CC23C9F0162F81110E948108EC2FF0E07A
:1011E000EE0FFF1FE85EFE4FA591B4918FB7F89404
:1011F000111105C09C91ED2FE095E92302C0EC91FF
:10120000ED2BEC938FBFDF91CF911F910895CF937A
:10121000DF93282F30E0F901E255FF4F8491F90167
:10122000E253FF4FD491F901E251FF4FC491CC2317
:1012300091F081110E948108EC2FF0E0EE0FFF1F6A
:10124000E25FFE4FA591B491EC91ED2381E090E037
:1012500021F480E002C080E090E0DF91CF9108951A
:10126000CF93DF938230910510F482E090E0E0911B
:10127000F802F091F90220E030E0C0E0D0E03097D1
:1012800011F14081518148175907C0F0481759079B
:1012900061F482819381209719F09B838A832BC00C
:1012A0009093F9028093F80226C02115310519F0B8
:1012B0004217530718F49A01BE01DF01EF010280C3
:1012C000F381E02DDCCF2115310509F1281B390B05
:1012D0002430310590F412968D919C9113976115ED
:1012E000710521F0FB019383828304C09093F9027E
:1012F0008093F802FD01329644C0FD01E20FF31F16
:1013000081939193225031092D933C933AC02091BF
:10131000F6023091F702232B41F42091B302309171
:10132000B4023093F7022093F6022091B10230917B
:10133000B2022115310541F42DB73EB74091B502F7
:101340005091B602241B350BE091F602F091F702A2
:10135000E217F307A0F42E1B3F0B2817390778F08C
:10136000AC014E5F5F4F2417350748F04E0F5F1FEB
:101370005093F7024093F6028193919302C0E0E00C
:10138000F0E0CF01DF91CF9108950F931F93CF939A
:10139000DF93009709F48CC0FC013297138212820C
:1013A0000091F8021091F9020115110581F42081D4
:1013B0003181820F931F2091F6023091F702281796
:1013C000390779F5F093F702E093F60271C0D8017E
:1013D00040E050E0AE17BF0750F412962D913C91BB
:1013E0001397AD012115310509F1D901F3CF9D0105
:1013F000DA013383228360817181860F971F821700
:10140000930769F4EC0128813981260F371F2E5F7D
:101410003F4F318320838A819B8193838283452B35
:1014200029F4F093F902E093F80242C01396FC937A
:10143000EE931297ED01499159919E01240F351FAA
:10144000E217F30771F480819181840F951F029652
:1014500011969C938E938281938113969C938E9385
:101460001297E0E0F0E0D80112968D919C911397CD
:10147000009719F0F8018C01F6CF8D919C9198019D
:101480002E5F3F4F820F931F2091F6023091F7029B
:101490002817390769F4309729F41092F90210924D
:1014A000F80202C0138212821093F7020093F60230
:1014B000DF91CF911F910F91089508950E94010827
:1014C0000E945D0A0E942D01C0E0D0E00E94B0049D
:1014D0002097E1F30E940000F9CF08955058BB27F0
:1014E000AA270E94860A0C94CA0B0E94BC0B38F0F3
:1014F0000E94C30B20F039F49F3F19F426F40C949A
:10150000B90B0EF4E095E7FB0C94B30BE92F0E94A6
:10151000DB0B58F3BA17620773078407950720F0AF
:1015200079F4A6F50C94FD0B0EF4E0950B2EBA2F72
:10153000A02D0B01B90190010C01CA01A0011124D9
:10154000FF27591B99F0593F50F4503E68F11A1685
:10155000F040A22F232F342F4427585FF3CF469516
:1015600037952795A795F0405395C9F77EF41F1638
:10157000BA0B620B730B840BBAF09150A1F0FF0F02
:10158000BB1F661F771F881FC2F70EC0BA0F621FEE
:10159000731F841F48F4879577956795B795F795DE
:1015A0009E3F08F0B0CF9395880F08F09927EE0F73
:1015B0009795879508950E948F0B08F481E0089510
:1015C0000E94F40A0C94CA0B0E94C30B58F00E94AC
:1015D000BC0B40F029F45F3F29F00C94B30B511180
:1015E0000C94FE0B0C94B90B0E94DB0B68F399234F
:1015F000B1F3552391F3951B550BBB27AA2762170F
:101600007307840738F09F5F5F4F220F331F441F1B
:10161000AA1FA9F335D00E2E3AF0E0E832D091504F
:101620005040E695001CCAF72BD0FE2F29D0660F3C
:10163000771F881FBB1F261737074807AB07B0E87F
:1016400009F0BB0B802DBF01FF2793585F4F3AF085
:101650009E3F510578F00C94B30B0C94FE0B5F3F4A
:10166000E4F3983ED4F3869577956795B795F7950B
:101670009F5FC9F7880F911D9695879597F90895F3
:10168000E1E0660F771F881FBB1F6217730784078F
:10169000BA0720F0621B730B840BBA0BEE1F88F79E
:1016A000E0950895E89409C097FB3EF490958095E5
:1016B000709561957F4F8F4F9F4F9923A9F0F92F18
:1016C00096E9BB279395F695879577956795B79596
:1016D000F111F8CFFAF4BB0F11F460FF1BC06F5F7C
:1016E0007F4F8F4F9F4F16C0882311F096E911C08E
:1016F000772321F09EE8872F762F05C0662371F0AF
:1017000096E8862F70E060E02AF09A95660F771FC2
:10171000881FDAF7880F9695879597F90895990F9E
:101720000008550FAA0BE0E8FEEF16161706E807AB
:10173000F907C0F012161306E407F50798F0621BCC
:10174000730B840B950B39F40A2661F0232B242BA1
:10175000252B21F408950A2609F4A140A6958FEFC0
:10176000811D811D089597F99F6780E870E060E012
:1017700008959FEF80EC089500240A94161617062A
:1017800018060906089500240A9412161306140672
:1017900005060895092E0394000C11F4882352F0D5
:1017A000BB0F40F4BF2B11F460FF04C06F5F7F4F8D
:1017B0008F4F9F4F089557FD9058440F551F59F074
:1017C0005F3F71F04795880F97FB991F61F09F3F2E
:1017D00079F087950895121613061406551FF2CF57
:1017E0004695F1DF08C0161617061806991FF1CFA7
:1017F00086957105610508940895E894BB276627CE
:101800007727CB0197F908950E948F0B08F48FEF8B
:10181000089516F00C94C60C0C94B90B68940C94B3
:10182000B30B0E94E30BA8F39923C1F3AEF3DF934C
:10183000CF931F930F93FF92C92FDD2788232AF0A0
:101840002197660F771F881FDAF720E030E040E825
:101850005FEB9FE3883920F0803E38F021968F7748
:101860000E946F0AE4E5F0E004C00E946F0AE1E81C
:10187000F0E00E94D40C8B01BE01EC01FB2E6F57EF
:1018800071097595771F880B990B0E94540B28E1FD
:1018900032E741E35FE30E946C0CAF2D9801AE018B
:1018A000FF900F911F91CF91DF910E94860A0C94B7
:1018B000CA0B0E946C0C0C94CA0B0E94BC0B38F033
:1018C0000E94C30B20F0952311F00C94B30B0C94E1
:1018D000B90B11240C94FE0B0E94DB0B70F3959F47
:1018E000C1F3950F50E0551F629FF001729FBB2717
:1018F000F00DB11D639FAA27F00DB11DAA1F649FB3
:101900006627B00DA11D661F829F2227B00DA11D65
:10191000621F739FB00DA11D621F839FA00D611DEB
:10192000221F749F3327A00D611D231F849F600D0C
:10193000211D822F762F6A2F11249F5750409AF035
:10194000F1F088234AF0EE0FFF1FBB1F661F771FC1
:10195000881F91505040A9F79E3F510580F00C948C
:10196000B30B0C94FE0B5F3FE4F3983ED4F38695E3
:1019700077956795B795F795E7959F5FC1F7FE2B2C
:10198000880F911D9695879597F908959F3F31F09F
:10199000915020F4879577956795B795880F911D9D
:1019A0009695879597F90895DF93CF931F930F939B
:1019B000FF92EF92DF927B018C01689406C0DA2ED1
:1019C000EF010E946C0CFE01E894A59125913591E0
:1019D00045915591A6F3EF010E94860AFE019701F9
:1019E000A801DA9469F7DF90EF90FF900F911F91B3
:1019F000CF91DF91089597FB072E16F4009407D03E
:101A000077FD09D00E942E0D07FC05D03EF490957D
:101A100081959F4F0895709561957F4F0895052E8C
:101A200097FB1EF400940E94260D57FD07D00E94DC
:101A3000420D07FC03D04EF40C94260D50954095B2
:101A4000309521953F4F4F4F5F4F0895909580956A
:101A5000709561957F4F8F4F9F4F0895AA1BBB1BB9
:101A600051E107C0AA1FBB1FA617B70710F0A61B9E
:101A7000B70B881F991F5A95A9F780959095BC01BF
:101A8000CD010895A1E21A2EAA1BBB1BFD010DC0BA
:101A9000AA1FBB1FEE1FFF1FA217B307E407F5071E
:101AA00020F0A21BB30BE40BF50B661F771F881FFA
:101AB000991F1A9469F760957095809590959B0190
:101AC000AC01BD01CF010895EE0FFF1F0590F49109
:101AD000E02D099410E0C7E9D0E004C0FE010E94A7
:0E1AE000640D2196C839D107C9F7F894FFCFDD
:101AEE0000000000000000001400140000001400AC
:101AFE001400000014001400000014001400000074
:101B0E000000000000001400140000001400140077
:101B1E000000140014000000140014000000140053
:101B2E00140000001400140000001400140014002F
:101B3E00140014000000140014000000140014001F
:101B4E00140014001400000014001400000014000F
:101B5E001400000014001400000014001400000013
:101B6E0014001400000014001400000014001400EF
:101B7E0000001400140014001400140014001400CB
:101B8E0014001400140014001400140014000000BB
:101B9E0014001400000014001400000000002800BF
:101BAE0000000000280000001400140000001400C3
:101BBE0014000000140014000000140014000000B3
:101BCE00140014000000140014000000140014008F
:101BDE0000001400140000001400140000000000A7
:101BEE000000000014001400000014001400000097
:101BFE001400140000001400140000000000000087
:101C0E0000000000000000000000000000000000C6
:101C1E0000004B00000064004B0000006400000058
:101C2E00000000004B00000064004B000000640048
:101C3E004B00000064004B00000064000000000038
:101C4E0000000000000000000000000000004B003B
:101C5E00000064004B00000064004B0000006400B4
:101C6E004B00000064004B00000064000000000008
:101C7E0000004B00000064004B00000064004B00AD
:101C8E00000064004B00000064004B000000640084
:101C9E000000000000004B00000064004B0000003C
:101CAE0064004B00000064004B00000064004B0019
:101CBE00000064004B00000064004B000000640054
:101CCE004B00000064004B000000640000000000A8
:101CDE0000000000000000000000000000000000F6
:101CEE00000000000000000000004B000000640037
:101CFE004B00000064000000000000000000000027
:101D0E0000000000000000000000000000000000C5
:101D1E0000000000000000000000000000000000B5
:101D2E0008000100F401FA003200F401FA0032005A
:081D3E00010000FA0280000020
:00000001FF
