:100000000C9498000C94C0000C94C0000C94C00098
:100010000C94C0000C94C0000C94C0000C94C00060
:100020000C94C0000C9427030C94C0000C94C000E6
:100030000C94C0000C94C0000C94C0000C94C00040
:100040000C94C0000C94C0000C94C0000C94C00030
:100050000C94C00008000000BE922449123EABAAD6
:10006000AA2ABECDCCCC4C3E00000080BEABAAAAD2
:10007000AA3E00000000BF000000803F000000001A
:1000800000084178D3BB4387D1133D190E3CC3BD53
:100090004282AD2B3E68EC8276BED98FE1A93E4C00
:1000A00080EFFFBE01C4FF7F3F00000000000000A2
:1000B000390036003300300000000001000000006D
:1000C0000000000004030006000000000000000023
:1000D000000000000000000000003A00370034007B
:1000E000310000003B0038003500320002020202FD
:1000F00002020202040404040404040403030303CC
:1001000003030303010101010101010101020408CC
:1001100010204080010204081020408001020408E1
:100120001020408080402010080402019105AB059A
:1001300011241FBECFE5D4E0DEBFCDBF20E0A6E690
:10014000B0E001C01D92A33DB207E1F710E0A0E6C8
:10015000B0E0EAE8F3E102C005900D92A636B107DF
:10016000D9F710E0C7E9D0E004C02197FE010E9452
:100170008508C639D107C9F70E9471030C94B809E4
:100180000C940000DC01E9E1F1E0E4911B96EC93B2
:100190001B9729EF30E0F9018491E82FF0E0EE0F92
:1001A000FF1FEE51FF4F8591949118969C938E936B
:1001B0001797F9012491E22FF0E0EE0FFF1FE852AC
:1001C000FF4F859194911A969C938E931997089559
:1001D000843039F0863049F0833051F48FB58F7711
:1001E00002C08FB58F7D8FBD089585B58F7D85BD8C
:1001F0000895CF93DF93282F30E0F901E854FF4FA3
:100200008491F901E45FFE4FD491F901E451FF4F6D
:10021000C491CC2391F081110E94E800EC2FF0E012
:10022000EE0FFF1FE255FF4FA591B491EC91ED2326
:1002300081E090E021F480E002C080E090E0DF9176
:10024000CF9108951F93CF93DF93282F30E0F901CA
:10025000E854FF4F8491F901E45FFE4FD491F90116
:10026000E451FF4FC491CC23C9F0162F81110E9495
:10027000E800EC2FF0E0EE0FFF1FEE51FF4FA591CD
:10028000B4918FB7F894111105C09C91ED2FE095B2
:10029000E92302C0EC91ED2BEC938FBFDF91CF915E
:1002A0001F910895CF93DF9390E0FC01E45FFE4F30
:1002B0002491FC01E451FF4F8491882361F190E087
:1002C000880F991FFC01E852FF4FC591D491FC01A2
:1002D000EE51FF4FA591B491611109C09FB7F894F9
:1002E0008881209582238883EC912E230BC0623075
:1002F00061F49FB7F8943881822F80958323888397
:10030000EC912E2B2C939FBF06C08FB7F894E881F9
:100310002E2B28838FBFDF91CF9108953FB7F8949C
:100320008091730090917400A0917500B091760057
:1003300022B708B600FE05C02F3F19F00196A11D97
:10034000B11D3FBFBA2FA92F982F8827820F911D6B
:10035000A11DB11DBC01CD0143E0660F771F881FB1
:10036000991F4A95D1F708958F929F92AF92BF92AD
:10037000CF92DF92EF92FF926B017C010E948E017F
:100380004B015C01C114D104E104F104F1F00E94BD
:100390008E01DC01CB0188199909AA09BB09883EA5
:1003A0009340A105B10570F321E0C21AD108E1081C
:1003B000F10888EE880E83E0981EA11CB11CC114C0
:1003C000D104E104F10419F7DDCFFF90EF90DF9045
:1003D000CF90BF90AF909F908F9008952FB7F894D3
:1003E00060916F0070917000809171009091720027
:1003F0002FBF0895FF920F931F93CF93DF93FC01BC
:10040000008111810230110564F5F62EEC01F8012E
:100410003196EE0FFF1FEC0FFD1F608371830E946A
:10042000EE01000F111F000F111FFE01E00FF11F61
:100430006683778380879187088119818F2D0E9439
:10044000F900F8013796EE0FFF1FEC0FFD1F9183A7
:100450008083888199819C012F5F3F4F3983288356
:1004600002C08FEF9FEFDF91CF911F910F91FF900F
:100470000895CF92DF92EF92FF9280E487B9369A87
:100480003699FECF64B185B170E0782B072E000C51
:10049000880B990B0E949D069B01AC0160E070E007
:1004A00080E894E40E94290620E030E040E85FE321
:1004B0000E94B70520E030E44CE156E40E94A20718
:1004C0000E945A076B017C0129E537E44CEB53E3AA
:1004D0000E94A207A70196010E94A20723E73FE717
:1004E00045E759E30E94B805A70196010E94A207BB
:1004F0002BEE3FEF43E95AE30E94B8059B01AC01A4
:1005000060E070E080E89FE30E94290623E333E97E
:1005100048E853E40E94B705FF90EF90DF90CF903A
:100520000895FF920F931F93CF93DF93EC0180E325
:1005300090E09983888380E990E00E948B089B83F8
:100540008A831D82FF24F394FC8282E08E838E01D5
:10055000045F1F4F1D861C861F861E86198A188AF7
:100560001A8A1B8A1C8A1D8A1E8A1F8A188E198E57
:100570001B8E1A8E1D8E1C8E0E94EE016E8F7F8F39
:1005800088A399A380916600811102C0F092660051
:1005900060E089E00E94520160E088E00E94520120
:1005A00061E086E10E94520161E081E10E94520116
:1005B00061E082E10E94520161E083E10E94520108
:1005C00061E084E10E94520161E085E10E945201F4
:1005D000CE010E94C20068E070E0C8010E94FA01EA
:1005E00069E070E0C8010E94FA011D8281E08C83FD
:1005F00082E08E8380E090E020E030E04881598105
:1006000024173507C0F44C81EA81FB81E80FF91FFC
:10061000E40FF11D10824D81EA81FB81E80FF91F83
:10062000E40FF11D10824E81EA81FB81E80FF91F72
:10063000E40FF11D10822F5F3F4F039620333105E9
:10064000E9F6DF91CF911F910F91FF9008951F92CE
:100650000F920FB60F9211242F933F938F939F9376
:10066000AF93BF9380916F0090917000A091710043
:10067000B091720030916E0026E0230F2D3720F4E8
:100680000296A11DB11D05C029E8230F0396A11DE7
:10069000B11D20936E0080936F0090937000A09323
:1006A0007100B09372008091730090917400A091DA
:1006B0007500B09176000196A11DB11D8093730065
:1006C00090937400A0937500B0937600BF91AF91A2
:1006D0009F918F913F912F910F900FBE0F901F9080
:1006E0001895CF93DF93CDB7DEB72C970FB6F8945C
:1006F000DEBF0FBECDBF789483B7826083BF83B760
:10070000816083BF89B7816089BF1EBC8EB582605E
:100710008EBD8EB581608EBD8FB581608FBD85B574
:10072000846085BD85B5806485BD329A319A3098E4
:10073000379A1AB860E089E00E94520160E088E0D0
:100740000E94520161E086E10E94520161E081E174
:100750000E94520161E082E10E94520161E083E166
:100760000E94520161E084E10E94520161E085E152
:100770000E94520181EA90E00E94C2001092A600FD
:1007800011E01093A50082E08093A70061E081E171
:100790000E94220180919900811106C087E790E0B4
:1007A0000E949102109399000091790010917A00B3
:1007B00061E082E10E9422018EE587B964E070E089
:1007C00080E090E00E94B401369A3699FECF24B1C1
:1007D00085B130E0382B032E000C440B550B64E53B
:1007E00072EB82E190E00E944408C90120386CE07D
:1007F000360730F461E081E10E94220160E00BC025
:10080000B90161587C40673C710570F461E081E199
:100810000E94220161E082E10E94220160E083E106
:100820000E94220160E022C0B90169547D40673C0A
:10083000710550F461E081E10E94220161E082E1F2
:100840000E94220161E0EBCF21513E402F38314020
:1008500090F461E081E10E94220161E082E10E9466
:10086000220161E083E10E94220161E084E10E94B3
:10087000220160E014C0813A9F40A0F061E081E174
:100880000E94220161E082E10E94220161E083E195
:100890000E94220161E084E10E94220161E085E181
:1008A0000E94220160ED77E080E090E00E94B401B8
:1008B00060E081E10E94220160E082E10E94220169
:1008C00060E083E10E94220160E084E10E94220155
:1008D00060E085E10E942201C8010E94200980ECAD
:1008E00087B90E94390220E030E040EA52E40E94D9
:1008F0004D07181694F561E086E10E94220162E33B
:1009000070E080E090E00E94B40160E086E10E9427
:10091000220162E370E080E090E00E94B4010E9456
:10092000390220E030E040E752E40E94240687FFCD
:10093000E2CF61E083E10E94220164EF71E080E098
:1009400090E00E94B40160E083E10E94220164EF24
:1009500071E080E090E00E94B40168E070E089EB13
:1009600090E00E94FA0169E070E089EB90E00E945B
:10097000FA011A8619861C861B8619821A821B8226
:100980001C821D821E821F8218868DEAC82E80E07E
:10099000D82E8E01075F1F4F9BEBE92E90E0F92EBA
:1009A0009E012F5F3F4F4901A12CB12C8091B900CE
:1009B0009091BA00A816B9060CF05AC00E94EE0138
:1009C0001B012C01F7018081F2E0EF0EF11C0E9467
:1009D000F9003C01F60182899389A489B589A201B5
:1009E0009101281B390B4A0B5B0BF40121933193C6
:1009F000419351934F01F1E06F167104A9F4F7018F
:100A000082859385009759F40E94EE01F601628B6E
:100A1000738B848B958BF801718260821DC0019766
:100A2000C1F422E030E011C06114710491F4F701C7
:100A300082859385019769F40E94EE01F601628B2D
:100A4000738B848B958B23E030E0F8013183208316
:100A500003C0F80111821082F70173866286FFEFEE
:100A6000AF1ABF0A24E0C20ED11C0E5F1F4F9ECFEB
:100A700089859A858130910559F489819A81AB8164
:100A8000BC81C397A105B10564F161E084E127C091
:100A90008230910561F489819A81AB81BC818B3F61
:100AA0009105A105B105ECF061E083E118C0039761
:100AB000C1F489819A81AB81BC818B3F9105A105ED
:100AC000B1051CF061E082E10AC0C397A109B10938
:100AD000873C9105A105B10520F461E081E10E9408
:100AE00022018B859C85029709F037CF8D819E81ED
:100AF000AF81B8858B3F9105A105B1050CF42DCFD1
:100B000060E081E10E94220160E084E10E94220114
:100B100060E083E10E94220160E082E10E94220104
:100B20001CCFCF93DF938DEA90E00E949102C1EA3F
:100B3000D0E080E390E09983888380E990E00E9490
:100B40008B089B838A831D8281E08C8382E08E8365
:100B5000DF91CF9108958091A3009091A4000E940D
:100B600020098091AF009091B0000C94200950585A
:100B7000BB27AA270E94CF050C9413070E940507E4
:100B800038F00E940C0720F039F49F3F19F426F446
:100B90000C9402070EF4E095E7FB0C94FC06E92F99
:100BA0000E94240758F3BA17620773078407950752
:100BB00020F079F4A6F50C9446070EF4E0950B2E80
:100BC000BA2FA02D0B01B90190010C01CA01A0019F
:100BD0001124FF27591B99F0593F50F4503E68F1FA
:100BE0001A16F040A22F232F342F4427585FF3CF3B
:100BF000469537952795A795F0405395C9F77EF40C
:100C00001F16BA0B620B730B840BBAF09150A1F054
:100C1000FF0FBB1F661F771F881FC2F70EC0BA0FDA
:100C2000621F731F841F48F4879577956795B79562
:100C3000F7959E3F08F0B0CF9395880F08F099275D
:100C4000EE0F9795879508950E94D80608F481E0E5
:100C500008950E943D060C9413070E940C0758F05B
:100C60000E94050740F029F45F3F29F00C94FC0630
:100C700051110C9447070C9402070E94240768F353
:100C80009923B1F3552391F3951B550BBB27AA2745
:100C900062177307840738F09F5F5F4F220F331F7F
:100CA000441FAA1FA9F335D00E2E3AF0E0E832D047
:100CB00091505040E695001CCAF72BD0FE2F29D04A
:100CC000660F771F881FBB1F261737074807AB071C
:100CD000B0E809F0BB0B802DBF01FF2793585F4F91
:100CE0003AF09E3F510578F00C94FC060C944707AF
:100CF0005F3FE4F3983ED4F3869577956795B79573
:100D0000F7959F5FC9F7880F911D9695879597F97D
:100D10000895E1E0660F771F881FBB1F62177307F6
:100D20008407BA0720F0621B730B840BBA0BEE1F0B
:100D300088F7E0950895E89409C097FB3EF49095F4
:100D40008095709561957F4F8F4F9F4F9923A9F0A4
:100D5000F92F96E9BB279395F69587957795679533
:100D6000B795F111F8CFFAF4BB0F11F460FF1BC077
:100D70006F5F7F4F8F4F9F4F16C0882311F096E90A
:100D800011C0772321F09EE8872F762F05C06623B8
:100D900071F096E8862F70E060E02AF09A95660F71
:100DA000771F881FDAF7880F9695879597F908952A
:100DB000990F0008550FAA0BE0E8FEEF161617066C
:100DC000E807F907C0F012161306E407F50798F0D4
:100DD000621B730B840B950B39F40A2661F0232BED
:100DE000242B252B21F408950A2609F4A140A69569
:100DF0008FEF811D811D089597F99F6780E870E04E
:100E000060E008959FEF80EC089500240A94161680
:100E1000170618060906089500240A9412161306E8
:100E2000140605060895092E0394000C11F4882376
:100E300052F0BB0F40F4BF2B11F460FF04C06F5F92
:100E40007F4F8F4F9F4F089557FD9058440F551F68
:100E500059F05F3F71F04795880F97FB991F61F03C
:100E60009F3F79F087950895121613061406551FB3
:100E7000F2CF4695F1DF08C0161617061806991F1F
:100E8000F1CF86957105610508940895E894BB2714
:100E900066277727CB0197F908950E94D80608F4B2
:100EA0008FEF089516F00C940F080C9402076894C5
:100EB0000C94FC060E942C07A8F39923C1F3AEF30F
:100EC000DF93CF931F930F93FF92C92FDD278823C2
:100ED0002AF02197660F771F881FDAF720E030E0AD
:100EE00040E85FEB9FE3883920F0803E38F02196A0
:100EF0008F770E94B805E4E5F0E004C00E94B805D1
:100F0000E1E8F0E00E941D088B01BE01EC01FB2E20
:100F10006F5771097595771F880B990B0E949D0675
:100F200028E132E741E35FE30E94B507AF2D980166
:100F3000AE01FF900F911F91CF91DF910E94CF05DD
:100F40000C9413070E94B5070C9413070E94050721
:100F500038F00E940C0720F0952311F00C94FC0649
:100F60000C94020711240C9447070E94240770F385
:100F7000959FC1F3950F50E0551F629FF001729F3E
:100F8000BB27F00DB11D639FAA27F00DB11DAA1F4D
:100F9000649F6627B00DA11D661F829F2227B00D9A
:100FA000A11D621F739FB00DA11D621F839FA00D25
:100FB000611D221F749F3327A00D611D231F849F75
:100FC000600D211D822F762F6A2F11249F575040CC
:100FD0009AF0F1F088234AF0EE0FFF1FBB1F661F47
:100FE000771F881F91505040A9F79E3F510580F010
:100FF0000C94FC060C9447075F3FE4F3983ED4F34F
:10100000869577956795B795F795E7959F5FC1F7B3
:10101000FE2B880F911D9695879597F908959F3F10
:1010200031F0915020F4879577956795B795880FA3
:10103000911D9695879597F90895DF93CF931F9308
:101040000F93FF92EF92DF927B018C01689406C0B0
:10105000DA2EEF010E94B507FE01E894A5912591D3
:10106000359145915591A6F3EF010E94CF05FE0100
:101070009701A801DA9469F7DF90EF90FF900F9144
:101080001F91CF91DF910895052E97FB1EF40094D8
:101090000E945B0857FD07D00E94630807FC03D03D
:1010A0004EF40C945B0850954095309521953F4F38
:1010B0004F4F5F4F089590958095709561957F4F44
:1010C0008F4F9F4F0895A1E21A2EAA1BBB1BFD0153
:1010D0000DC0AA1FBB1FEE1FFF1FA217B307E40717
:1010E000F50720F0A21BB30BE40BF50B661F771F6F
:1010F000881F991F1A9469F760957095809590954F
:101100009B01AC01BD01CF010895EE0FFF1F0590BB
:10111000F491E02D0994CF93DF938230910510F480
:1011200082E090E0E091D100F091D20020E030E048
:10113000C0E0D0E0309711F1408151814817590744
:10114000C0F04817590761F482819381209719F004
:101150009B838A832BC09093D2008093D10026C0BA
:101160002115310519F04217530718F49A01BE01F1
:10117000DF01EF010280F381E02DDCCF2115310585
:1011800009F1281B390B2430310590F412968D910A
:101190009C9113976115710521F0FB019383828364
:1011A00004C09093D2008093D100FD01329644C0D8
:1011B000FD01E20FF31F81939193225031092D938A
:1011C0003C933AC02091CF003091D000232B41F4C2
:1011D00020916200309163003093D0002093CF00C3
:1011E00020916000309161002115310541F42DB747
:1011F0003EB74091640050916500241B350BE0918F
:10120000CF00F091D000E217F307A0F42E1B3F0BA4
:101210002817390778F0AC014E5F5F4F2417350768
:1012200048F04E0F5F1F5093D0004093CF00819342
:10123000919302C0E0E0F0E0CF01DF91CF910895FB
:101240000F931F93CF93DF93009709F48CC0FC0199
:101250003297138212820091D1001091D2000115B1
:10126000110581F420813181820F931F2091CF00DD
:101270003091D0002817390779F5F093D000E0932A
:10128000CF0071C0D80140E050E0AE17BF0750F466
:1012900012962D913C911397AD012115310509F15D
:1012A000D901F3CF9D01DA013383228360817181FB
:1012B000860F971F8217930769F4EC012881398103
:1012C000260F371F2E5F3F4F318320838A819B81FA
:1012D00093838283452B29F4F093D200E093D100CD
:1012E00042C01396FC93EE931297ED0149915991E8
:1012F0009E01240F351FE217F30771F4808191815D
:10130000840F951F029611969C938E9382819381F0
:1013100013969C938E931297E0E0F0E0D80112961A
:101320008D919C911397009719F0F8018C01F6CFDD
:101330008D919C9198012E5F3F4F820F931F2091BA
:10134000CF003091D0002817390769F4309729F47D
:101350001092D2001092D10002C013821282109318
:10136000D0000093CF00DF91CF911F910F9108958E
:1013700010E0C7E9D0E004C0FE010E948508219674
:0A138000C839D107C9F7F894FFCF70
:06138A000000D30080000A
:00000001FF
