:100000000C94DD020C9405030C9405030C94050379
:100010000C9405030C9405030C9405030C94050340
:100020000C9405030C9405030C9405030C94050330
:100030000C9405030C9405030C9405030C94050320
:100040000C949B210C9405030C9405030C9405035C
:100050000C9405030C9405030C9405030C94050300
:100060000C94081F0C9405035F00030304040304AD
:10007000050C0BFFFE08FE08FE01760345048B20ED
:100080000500CC09210882C4894B8C002208336DFD
:100090008B884A0023128744BC4830123245829133
:1000A0009029128CC4002410A53CAB58252209319C
:1000B0004524915A080025198AC41D914C2289496A
:1000C000122529224944128C486221492C260126F6
:1000D0001188C42CA92428894A233291126522014F
:1000E0002706316D8A01280CA4B4BA504822D226C2
:1000F0000B06290CA4B48A604C498B280D002A0BEE
:10010000555CAB949449A610002B0A554CAB60A8E3
:10011000140C012C0842B4098A04002D06135C8AD1
:10012000012E0622C409022F0C84C4BAA458281632
:100130008AC500300B85449B89842F9209003109C0
:1001400084451BC9482F04320D85449B89842213A2
:1001500089628701330E85449B898422125228923A
:100160000900340C8544AB95882432BA8906350CD5
:1001700085448B8324C842914C00360D85449B896D
:10018000844691B0482600370B84448B432C140BD3
:100190006901380E85449B898422994858241300AC
:1001A000390D85449B89844542A34826003A07526D
:1001B000C40912013B0872B4091245023C0856CC2E
:1001C0004B91B2023D0735548B6A013E0956CC0B68
:1001D000B19222003F0D85449B899A481407C94477
:1001E000004014A93CBDA14C148D8428FA49228AF0
:1001F00043E420120041108943CC38603C0D094390
:10020000B253503222421087440C938A4852521102
:100210004944870800430E8744AC491A71AA18095B
:10022000862800441288C40C9B2C2493C82432894D
:100230004C228B9800450F86C40B8B2822099124F1
:1002400021514474461086C40B8B28228A484224CC
:1002500049484602470F8744AC491A712AAA4962A5
:10026000A24900481189440D0A452692894E3291CF
:100270004C249330490984C40A8A482F044A0C86C6
:10028000C42B9A5045979068044B1189C40C925A1C
:100290004C1494448B22990A69004C0B86C40B9A27
:1002A00050A788E8004D198B440E1A65368A4822FB
:1002B000A28824228A4822A29052486522214E1404
:1002C00088C40CD944161A8528A10829348A49669D
:1002D00011004F0D8744AC598A8C9B24161B01508A
:1002E0000F87440C938A48229294A4421A00511416
:1002F000983CAC612C2493C824320945241152A2A5
:100300001200520D88C40C9B48A7584DA485325347
:100310000C86C49B255AB1469A4C00540C86C48B5B
:100320008B9690501B0500551388C40CCA44169236
:1003300085642159481692C54800561288C40CCAD3
:10034000441692C5244149501215CB0057198B44CD
:100350000E8A6422128594429288242489486293EA
:10036000A14C281301581188C40CCA44169A04C71A
:10037000C3C828269910591088C40CCA441693047F
:100380002551B12A09005A0A86C48B9B6CB44D765C
:100390005B08A3348A8A7E195C0C84C48A583016A0
:1003A0008C0563015D08A3348A897E295E0B655440
:1003B000AB606C144993055F0616340B036007238A
:1003C000740A9100610854C48A998462620D86C4DB
:1003D0000BA116C984449A4C00630B55449B896851
:1003E000268A4C00640B86C4BBA1CA8965A200653D
:1003F0000955449B89E42024660D85C4AA892422DA
:1004000022C9942800670C8634CBD048A26966BB09
:1004100000680B86C40BA116C984C424690A84C46D
:100420001A9174A485006A0AA3B41AB5892E14001F
:100430006B0C86440BA11609892451196C0884C4DD
:100440008A91BE106D0E5AC40D8948B24212914471
:1004500024056E0A56C40B89644262126F0A56C4A0
:100460001B8A88494201700D76B40B896442225D73
:10047000843300710F77B49B8A482292484612A9B0
:100480009000720954C40AC9490900730854C49AF7
:1004900012A902740973449A88A4A224750956C447
:1004A0000B11978902760C56C48B894A4812138A1D
:1004B00000770F59448D892E21892426114A440042
:1004C000780B56C48B894A4C165119790E76B48B29
:1004D000894A4812138A6642007A0955440B8B48B0
:1004E000C9007B0BA4B42A89484526D2267C078103
:1004F000468B43007D0CA4B40A99484D22D22202B7
:100500007E0826DC9B89640200000004FFFF0000D7
:10051000701919008B00000070191900800000008C
:100520008B000000CD000000578B2E008080000063
:10053000A09E5F00FF0000008B8B0000ED95640023
:10054000D4FF7F00578B2E00FFFF0000FACE8700FC
:10055000000000090003020000040508000000007C
:10056000000000000000000102040810204080018B
:1005700002040810200102040810204080400404F6
:10058000040404040404020202020202030303033B
:1005900003030202030000000023002600290000DC
:1005A000000000250028002B000000000024002788
:1005B000002A00003A0E2C1A671E11241FBECFEF2E
:1005C000D8E0DEBFCDBF11E0A0E0B1E0E0E2FDE4A5
:1005D00002C005900D92A43EB107D9F726E0A4EE23
:1005E000B1E001C01D92AF3DB207E1F712E0CDEDE1
:1005F000D2E004C02197FE010E947226CA3DD107B5
:10060000C9F70E948C210C948E260C940000CF9286
:10061000DF92EF92FF920F931F93CF93DF936C01C2
:10062000EB017B01E40EF51E00E010E0CE15DF05C6
:1006300061F06991D601ED91FC910190F081E02D7E
:10064000C6010995080F191FF1CFC801DF91CF919D
:100650001F910F91FF90EF90DF90CF900895482F5A
:10066000982F46FD9095E92FEF739F7046FD9F5F91
:10067000E695E695E695E670F0E0EF5AFE4F2181AB
:10068000299F802D212D112482958F702295207F06
:10069000822B3081982F930F892F47FD81958058A9
:1006A0000895FC01858596850895CF93DF9300D04A
:1006B00000D000D0CDB7DEB7AB011C821D821E82F8
:1006C000DC01ED91FC910190F081E02D19821A82FC
:1006D0001B829E012F5F3F4FBE016C5F7F4F0995CC
:1006E00026960FB6F894DEBF0FBECDBFDF91CF9137
:1006F000089580E090E0089561E08AE793E00C942B
:1007000000180F931F93CF93DF93EC018C010C5FC4
:100710001F4FFC01E058FF4F0190F081E02DC80110
:1007200009958E3F2FEF920770F4FE01ED57FF4FB2
:10073000CE57DF4F9C0140816881C8010E947C1226
:100740009881890F888381E090E0DF91CF911F919C
:100750000F9108950F931F93CF93DF93EC01062F12
:10076000142F8F3F910509F010F4DC2FCC270E9445
:10077000E5219B01AC01A8E1B1E00E9467269B0145
:10078000AC01DE010E946726892F0E942F03101BF7
:10079000282F219F020E20E0211D1124822F800F7F
:1007A000DF91CF911F910F91089560910A0170918F
:1007B0000B0145E058E0649F9001659F300D749FE8
:1007C000300D1124275E394C30930B0120930A0120
:1007D000230F289FC0011124892F0895CF92DF9203
:1007E000EF92FF921F93CF93DF93EC010E94E521DC
:1007F000C880D980EA80FB80DC01CB018C199D097F
:10080000AE09BF09CC80DD80EE80FF8011E08C1541
:100810009D05AE05BF0508F410E08C159D05AE05DD
:10082000BF0530F00E94E521688379838A839B832A
:10083000812FDF91CF911F91FF90EF90DF90CF90AC
:100840000895FC0160810C941E198EE480937C0055
:1008500080917A00806480937A0080917A0086FD8E
:10086000FCCF209178008091790030E0382B032E66
:10087000000C440B550B60E57AED81E190E00E949D
:100880004826CA01B90108958F929F92AF92BF92F4
:10089000CF92DF92EF92FF921F93CF93DF930E944C
:1008A00025046B017C016091040170910501072E04
:1008B000000C880B990B0E94C72420E030E04FE722
:1008C00053E40E94242420E030E048EC52E40E94EB
:1008D0007C254B015C0160E08AE793E00E940018F0
:1008E00068E670E08AE793E00E9474138AE793E079
:1008F0000E94730F2CE031E048E060E08AE793E06B
:100900000E941F1312E51093F80388E08093F90307
:1009100022E030E0B501A40186E793E00E9488213F
:1009200029E131E044E160E08AE793E00E941F138F
:100930001093F80384E18093F9034AE050E0B60194
:1009400086E793E00E94A7208AE793E00E94870F42
:10095000E09107012CE8C2162AE0D20658F4F0E034
:10096000CF01880F991FE80FF91FE059FC4F128241
:10097000118211C0C6018D589A408B32914070F49B
:10098000F0E0CF01880F991FE80FF91FE059FC4FE5
:10099000128288E2818388E780836FC0C601895B09
:1009A0009B40873C910558F4F0E0CF01880F991FD8
:1009B000E80FF91FE059FC4F128280E5EBCFC6012A
:1009C00081589C40873C910560F4F0E0CF01880F8E
:1009D000991FE80FF91FE059FC4F128288E78183C5
:1009E000DBCFC60189549D40873C910568F4F0E057
:1009F000CF01880F991FE80FF91FE059FC4F1282B1
:100A000088E7818388E2C8CFC60181519E40833642
:100A1000910550F4F0E0CF01880F991FE80FF91FFE
:100A2000E059FC4F128222C0C60185579E40833692
:100A3000910550F4F0E0CF01880F991FE80FF91FDE
:100A4000E059FC4F88E211C089EDC81A8EE0D80A3F
:100A5000F0E0CF01880F991FE80FF91FE059FC4F14
:100A600025E9C216D10420F480E5828388E703C01B
:100A700088E7828388E28183108289E096E0DF91B3
:100A8000CF911F91FF90EF90DF90CF90BF90AF90EC
:100A90009F908F900C9421040F931F93CF93DF931B
:100AA00000EF10E0CFEFD0E06091040170910501FC
:100AB0006F3F7105B4F1D0930501C09304016FEF4E
:100AC00070E08AE00E9496220E94440480910F0305
:100AD00090E02091040130910501FC01EE0FFF1F11
:100AE000DF01A80FB91FA059BC4FAE01421B530B29
:100AF00057FF02C04F5F5F4F5595479512964C9335
:100B00008E0F9F1FFC01E059FC4F1182C90137FD78
:100B1000019695958795808389E096E00E9421044F
:100B20003BC06B5F7F4F70930501609304018AE0C7
:100B30000E9496220E94440480910F0390E020912D
:100B4000040130910501FC01EE0FFF1FDF01A80F2A
:100B5000B91FA059BC4FA801421B530B57FF02C03D
:100B60004F5F5F4F5595479512964C938E0F9F1F81
:100B7000FC01E059FC4F1182C90137FD01969595A2
:100B80008795808389E096E00E9421046EE170E001
:100B900080E090E00E94162280E10E948923019764
:100BA00009F082CFDF91CF911F910F910895CF93DC
:100BB000DF93CFEFD0E060910401709105016230C6
:100BC0007105D4F5109205011092040160E070E007
:100BD0008AE00E9496220E94440480910F0390E0D4
:100BE0002091040130910501FC01EE0FFF1FDF0190
:100BF000A80FB91FA059BC4FAE01421B530B57FFA2
:100C000002C04D5F5F4F5595479555954795129694
:100C10004C938E0F9F1FFC01E059FC4F1182C901BC
:100C200037FD03969595879595958795808389E0FF
:100C300096E00E9421043BC0625071097093050147
:100C4000609304018AE00E9496220E9444048091ED
:100C50000F0390E02091040130910501FC01EE0F9B
:100C6000FF1FDF01A80FB91FA059BC4FAE01421BE7
:100C7000530B57FF02C04F5F5F4F55954795129634
:100C80004C938E0F9F1FFC01E059FC4F1182C9014C
:100C900037FD019695958795808389E096E00E94BF
:100CA000210462E370E080E090E00E94162281E17E
:100CB0000E948923019709F07ECFDF91CF9108959B
:100CC00068EE73E080E090E00E94162262E080E12E
:100CD0000E941E2362E081E10E941E2361E08AE0FF
:100CE0000E941E2360910401709105018AE00E9418
:100CF000962280910F0390E020910401309105012C
:100D0000FC01EE0FFF1FDF01A80FB91FA059BC4F58
:100D10004FEF50E0421B530B57FF02C04F5F5F4F36
:100D20005595479512964C938E0F9F1FFC01E059E5
:100D3000FC4F1182C90137FD0196959587958083F7
:100D4000E0910701F0E0CF01880F991FE80FF91F2C
:100D5000E059FC4F87E382838183108289E096E02B
:100D60000E9421048091F901811145C01092040272
:100D7000109203028FEF8093070280930802809302
:100D8000090280930A0280930B0280930C0281E097
:100D900080930D0210920F0210920E021092060222
:100DA000109205028091070690910806892B31F474
:100DB00081E092E09093080680930706E091050693
:100DC000F0910606309721F081E092E095838483CC
:100DD00081E092E0909306068093050683E491E01B
:100DE000909302028093010210921102109210025D
:100DF00081E08093F90120E030E042E050E060E7DC
:100E000073E081E092E00E94EE19809106018093E8
:100E1000090680E195E0A0E4B3E0FC01459155911D
:100E2000659174916C9311965C93119712964C9303
:100E300012970496139623E0A037B20771F78AE75A
:100E400093E00E94F6178AE793E00E94DB0F60E0D0
:100E50008AE793E00E9400180E9444042CE733E0E4
:100E600048E853E160E070E08AE292E00C94821C72
:100E70007F928F929F92AF92BF92CF92DF92EF922A
:100E8000FF920F931F93CF93DF9300D01F92CDB7A4
:100E9000DEB740E460EC86E090E00E94AA03B82E42
:100EA00040E460EC87E090E00E94AA0390E7E92E1E
:100EB00093E0F92E20E4C22EC80ED12CAB2CA094C6
:100EC0008B2D8D0D87FF02C08A2D8D19382F330F82
:100ED000432F439F040E40E0411D242F239F020E09
:100EE00020E0211D83E0489FA0011124E2E02E9F15
:100EF00040195109112450FD4FEF142F16958C2DD8
:100F00000E942F03782E7694872C912C810E911CB1
:100F100040E660E087E090E00E94AA0390E0881538
:100F2000990554F440E660E087E090E00E94AA034F
:100F30009401281B310902C020E030E080910801B3
:100F400090910901412F470D8C0160E473E0CE01BF
:100F500001960E94301A8981F70180838A818183FA
:100F60008B818283F7E1DF0E83E0E80EF11CEFE076
:100F7000CE0EFEE2DF12A4CF0F900F900F90DF9104
:100F8000CF911F910F91FF90EF90DF90CF90BF9086
:100F9000AF909F908F907F90089581E090E0909324
:100FA00005018093040161E070E08AE00E949622CE
:100FB000E0910F03F0E0CF01880F991FE80FF91FB0
:100FC000E059FC4F128211821082E0910701F0E09B
:100FD000CF01880F991FE80FF91FE059FC4F1282CB
:100FE0001182108289E096E00C9421040F931F93E4
:100FF0000E94E5210091DA021091DB022091DC02CF
:101000003091DD02DC01CB01801B910BA20BB30BF5
:101010008C3B9240A105B10538F081E090E09093BF
:10102000D7028093D6021BC00E94E5210091DA020C
:101030001091DB022091DC023091DD02DC01CB015A
:10104000801B910BA20BB30B8C3B9240A105B10509
:1010500080F40E94CD071092D7021092D6020E940F
:10106000E5216093DA027093DB028093DC029093B7
:10107000DD021F910F9108950E9425046FEF70E02B
:101080008AE00E949622E0910F03F0E0CF01880FE2
:10109000991FE80FF91FE059FC4F128211828FEF60
:1010A000808389E096E00E94210464EC79E080E08E
:1010B00090E00E94162260910401709105018AE07F
:1010C0000E949622E0910F03F0E0909104019F01AD
:1010D000220F331FE20FF31FE059FC4F80EF891BF3
:1010E00082831182908389E096E00C9421040F930F
:1010F0001F930E94E5210091E6021091E7022091E2
:10110000E8023091E902DC01CB01801B910BA20BBC
:10111000B30B8C3B9240A105B10538F081E090E023
:101120009093E3028093E2021BC00E94E5210091AC
:10113000E6021091E7022091E8023091E902DC0119
:10114000CB01801B910BA20BB30B8C3B9240A105F2
:10115000B10580F40E943C081092E3021092E20272
:101160000E94E5216093E6027093E7028093E80213
:101170009093E9021F910F9108952F923F924F9201
:101180005F926F927F928F929F92AF92BF92CF9217
:10119000DF92EF92FF920F931F93CF93DF93CDB720
:1011A000DEB729970FB6F894DEBF0FBECDBF2C0176
:1011B0006B01DA015901F80126173707C0F42081C5
:1011C000918182813C91308311963C9111973183BA
:1011D00012963C91129732832C9311969C931197FF
:1011E00012968C9312978D2D6501A62EB82E228112
:1011F000222319F08181811102C08C918083129683
:101200006C9012978081662029F011969C9111971D
:10121000911101C08C9311960C911197802E912CF5
:10122000E181F0E0E819F909F695FE2FEE27F79530
:10123000E795712C30E0261937093695322F222791
:10124000379527954C91841B52E0E516F10451F433
:10125000682F082E000C770BE72EEE1CEE24EE1CF8
:10126000F12C07C093E0E916F10419F487FF08C0D8
:1012700002C0EF2829F450E8859FC001112408C05E
:10128000819550E8859FC001112491958195910920
:10129000B5016C197D0911F07B0103C0EE24E394C4
:1012A000F12CB7010E9412268B01CF01B7010E94D9
:1012B0001226FB01C901B7010E941226C801880F3E
:1012C000991F9D838C83CF01880F991F9F838E83E5
:1012D000CB01880F991F99878887E42EF12CFE2C6B
:1012E000EE24182D0027762C66241601220C331CC0
:1012F0002C0C3D1C812C912CAC14BD04F8F0F9820F
:101300001A837B82B101680D791D640D751DCE01B4
:1013100001960E94C31A8C819D81E80EF91E8E8170
:101320009F81080F191F88859985680E791E9FEF88
:10133000C91AD90A53E0850E911CDECF29960FB643
:10134000F894DEBF0FBECDBFDF91CF911F910F91FB
:10135000FF90EF90DF90CF90BF90AF909F908F90D5
:101360007F906F905F904F903F902F9008952F92B5
:101370003F924F925F926F927F928F929F92AF9225
:10138000BF92CF92DF92EF92FF920F931F93CF9372
:10139000DF93CDB7DEB7E7970FB6F894DEBF0FBE89
:1013A000CDBF8AE292E00E94CA1C80E10E9489239C
:1013B0006C01009791F480910201909103010197D3
:1013C00009F01FC20E94E5216093EA027093EB02CC
:1013D0008093EC029093ED0214C2019759F580912D
:1013E000020190910301892B29F50E94E5210091CA
:1013F000EA021091EB022091EC023091ED02DC0147
:10140000CB01801B910BA20BB30BC397A105B105B8
:1014100038F08091E4029091E502019709F017C23B
:101420008091E4029091E502019721F41092E50287
:101430001092E402D0920301C09202018091E20274
:101440009091E3020197B1F40E94E5210091E60238
:101450001091E7022091E8023091E902DC01CB0112
:10146000801B910BA20BB30B8D3B9240A105B105E4
:1014700008F0F0C181E10E9489236C01009791F48A
:101480008091000190910101019709F0EAC10E9449
:10149000E5216093DE027093DF028093E002909377
:1014A000E102DFC1019759F580910001909101019E
:1014B000892B29F50E94E5210091DE021091DF02BF
:1014C0002091E0023091E102DC01CB01801B910B05
:1014D000A20BB30BC397A105B10538F08091D802D8
:1014E0009091D902019709F0E2C18091D8029091C0
:1014F000D902019721F41092D9021092D802D09209
:101500000101C09200018091D6029091D70201970B
:10151000B1F40E94E5210091DA021091DB022091E2
:10152000DC023091DD02DC01CB01801B910BA20BB0
:10153000B30B8D3B9240A105B10508F0BBC1809172
:10154000040190910501892B09F0BBC177247394A4
:10155000B8EE8B2EB3E09B2EA12CB12CDD24DA94B7
:1015600010ECC12E60E08AE793E00E94001868E664
:1015700070E08AE793E00E9474138AE793E00E9488
:10158000730F23E231E048E060E08AE793E00E94D5
:101590001F138AE793E00E94870F80912202811136
:1015A00018C00E94E5216093F0017093F1018093CF
:1015B000F2019093F30189E190E0A0E0B0E0809324
:1015C000F4019093F501A093F601B093F7017092A6
:1015D000220280EF91E00E94EE0381110E94380701
:1015E00080911A02811118C00E94E5216093E801E0
:1015F0007093E9018093EA019093EB0184EF91E00D
:10160000A0E0B0E08093EC019093ED01A093EE0197
:10161000B093EF0170921A0288EE91E00E94EE03FF
:10162000882339F048E360E173E080E493E00E94AE
:101630009F1A80911202811112C00E94E521A5011A
:1016400094010E9426263093E5012093E401A2E351
:10165000B0E0B093E701A093E601709212020E94FD
:10166000E521A50194010E9426268091E401909134
:10167000E501281B390B8091E6019091E7012817BD
:10168000390708F48BC00E94E521A50194010E944E
:1016900026263093E5012093E40120910A01309140
:1016A0000B0145E058E0249FC001259F900D349F19
:1016B000900D1124875E994C90930B0180930A0141
:1016C000192F180F8FE70E94D5038FAB80E20E947D
:1016D000D503282E210E8FE70E94D503E0E86E2E59
:1016E000680E80E20E94D503582E510E8FE70E94AB
:1016F000D503F0E84F2E480E80E20E94D503382E25
:10170000310E8FE70E94D503082F80E20E94D50397
:1017100039AADAAA4BAA810F8CABCDAA00580EAB1E
:10172000A2E0EA2EF12C8E010F5C1F4F25E030E085
:10173000AE014C5C5F4F60E070E0CE0101960E940C
:10174000BD0859AACAAA6BAA3CAADDAA4EAA2AE0D9
:1017500030E0AE014C5C5F4F65E070E0CE01019679
:101760000E94BD0829AADAAA8FA980588BAB5CAA6F
:10177000CDAA6EAA2FE030E0AE014C5C5F4F6AE06C
:1017800070E0CE0101960E94BD0840E350E0BE012A
:101790006F5F7F4F80E193E00E94831B89E096E0BA
:1017A0000E94210480E10E948923892B09F0DACE6E
:1017B00020910F0330E08091040190910501F9011F
:1017C000EE0FFF1FDF01A20FB31FA059BC4FAC01EA
:1017D00097FF02C04F5F5F4F559547954095129612
:1017E0004C932E0F3F1FF901E059FC4F118297FDDA
:1017F000019695958795808389E096E00E94210463
:1018000060C08091020190910301892B09F012CEF2
:101810000E94E5210091EA021091EB022091EC0276
:101820003091ED02DC01CB01801B910BA20BB30BBD
:101830008B3F9105A105B10508F4FCCD0E944C0534
:1018400081E090E09093E5028093E402F3CD0E9462
:101850007708E6CD0E944C051092E3021092E20256
:1018600009CE8091000190910101892B09F047CEAA
:101870000E94E5210091DE021091DF022091E0023A
:101880003091E102DC01CB01801B910BA20BB30B69
:101890008B3F9105A105B10508F431CE0E94D70513
:1018A00081E090E09093D9028093D80228CE0E94E4
:1018B000F6071BCE0E94D7051092D7021092D602CF
:1018C0003ECEE7960FB6F894DEBF0FBECDBFDF91D8
:1018D000CF911F910F91FF90EF90DF90CF90BF902D
:1018E000AF909F908F907F906F905F904F903F90C0
:1018F0002F900895DC018D919C91009739F0DC01C7
:10190000ED91FC910280F381E02D09940895569A9F
:10191000559A0F960C947A0C87FF02C05E9A01C00C
:101920005E985D9A5D9886FF02C05E9A01C05E98DF
:101930005D9A5D9885FF02C05E9A01C05E985D9ACF
:101940005D9884FF02C05E9A01C05E985D9A5D98C2
:1019500083FF02C05E9A01C05E985D9A5D9882FF27
:1019600002C05E9A01C05E985D9A5D9881FF02C0D8
:101970005E9A01C05E985D9A5D9880FF02C05E9A93
:1019800001C05E985D9A5D980895AF92BF92CF9224
:10199000DF92EF92FF920F931F93CF93DF93EB01B0
:1019A0007C012FE0E20EF11CDC011F968D919C91D1
:1019B0005097009739F0DC01ED91FC910190F08196
:1019C000E02D0995CE84BD84AC8480E00E948C0C0F
:1019D00080E00E948C0C80E00E948C0C80E00E94D1
:1019E0008C0C8C819D81181619060CF044C0E8817E
:1019F000F98188899989E80FF91F10812A2D129F92
:101A0000010E10E0111D112401813B2D039F000EDA
:101A100000E0011D1124D2802D2D3C2D239F020EAC
:101A200020E0211D1124D22E8FEF0E948C0C8D2DD1
:101A30000E948C0C802F0E948C0C812F0E948C0C99
:101A400089859E81891B8E838A859F81891B8F83CF
:101A50008B859885891B88872F8588819981820F3E
:101A6000911D27FD9A95998388838C819D8101978B
:101A70009D838C83B6CF8A819B8197FD4F96EC0125
:101A800085E0D595C7958A95E1F78FEF0E948C0C7C
:101A900080E00E948C0C80E00E948C0C80E00E9410
:101AA0008C0C219790F7C701DF91CF911F910F9177
:101AB000FF90EF90DF90CF90BF90AF900C947A0C96
:101AC000FC01118A108A08950F931F93CF93DF931F
:101AD0002091F8012F5F322F37703093F80120FFEB
:101AE00002C020E801C020E031FD2064347009F01C
:101AF0002062205FFC01EC01239600E011E0648588
:101B0000662331F070E0C8010E9412266F5F01C0A9
:101B100060E06187322F369F030E30E0311D1124C3
:101B2000311102C0168202C031503683662311F093
:101B3000615061873196CE17DF0709F7DF91CF91AA
:101B40001F910F910895EF92FF920F931F93CF93E0
:101B5000DF93CDB7DEB762970FB6F894DEBF0FBE46
:101B6000CDBF8C017A01F901DC011C968C917A833E
:101B700069835C834B835E834D8390819D879181D4
:101B80009E8792819F87813029F4CE0101960E9421
:101B9000640D06C01C861B861A86198618861F824D
:101BA00083E0888BB701CE0101960E94600DD801B9
:101BB000ED91FC910484F585E02DBE016F5F7F4FB0
:101BC000C801099562960FB6F894DEBF0FBECDBF6F
:101BD000DF91CF911F910F91FF90EF900895EF92B9
:101BE000FF920F931F93CF93DF93CDB7DEB762972A
:101BF0000FB6F894DEBF0FBECDBF8C017A01F9019C
:101C0000DC011C968C917A8369835C834B835E83B1
:101C10004D8390819D8791819E8792819F8781309E
:101C200029F4CE0101960E94640D06C01C861B8615
:101C30001A86198618861F82188AB701CE01019666
:101C40000E94600DD801ED91FC910484F585E02D92
:101C5000BE016F5F7F4FC801099562960FB6F89479
:101C6000DEBF0FBECDBFDF91CF911F910F91FF90CF
:101C7000EF900895CF93DF93C6E7D3E01B821A82DB
:101C800083E391E09983888382EC95E19093F70355
:101C90008093F6031092F8031092F9038AE793E019
:101CA0000E94CC158BE391E09983888323E73EE083
:101CB00048EE5EE069E571E08AE793E00E94F10F8B
:101CC0002FEF4FEF6FEF8AE793E00E94E30E4AE6B3
:101CD00060E08EEE92E00E94A81B8AE292E0DF9123
:101CE000CF910C94DD1B0F931F93CF93DF93EC01E7
:101CF000862F642F8C3268F48A3208F05CC08832F8
:101D000081F08932E9F570E080E090E00E941622CF
:101D100052C08D32D1F0A0F194EB980F9230F8F0D0
:101D20002FC08E01015E1F4FD0E0F80181918F011D
:101D30008F3F39F0D03110F461E001C062E00E94C1
:101D40001E23DF5FD63189F736C0433018F082E0BA
:101D500090E002C085E090E00E9452222CC08F7378
:101D6000C80FD11D411107C061E08F8D0E941E2355
:101D700060E08F8D11C062E08F8D0E941E231BC01A
:101D80008034D8F08F73FE01E80FF11D178D1F3FCF
:101D900091F0803120F4812F0E945A230CC08031B1
:101DA00011F40E948A21812F0E94892321E0892B2E
:101DB00009F420E02A8F81E001C080E0DF91CF911B
:101DC0001F910F910895FC0162A743A724A70895CE
:101DD000CF93DF93EC01683161F158F4643171F015
:101DE0006731F1F550E0B90186E196E00E94BB1D34
:101DF00030C0693181F1603261F132C08C859D85DE
:101E0000AE85BF85892B8A2B8B2B71F4E881F981F4
:101E1000A585B0E020EA36E841E050E00E94672660
:101E20006C877D878E879F8786E196E00E94271EBC
:101E300010C04C855D856E857F8586E196E00E94A9
:101E4000311E6E8970E07595679586E196E00E9477
:101E50004F1E81E006C086E196E00E94641EF9CF25
:101E600080E0DF91CF910895AF92BF92CF92DF9241
:101E7000EF92FF920F931F93CF93DF93EC01ABACE4
:101E8000ECACE881F981B188FE2CC12CD12CE88121
:101E9000F981208909AD1AAD88E0289FA00111249D
:101EA0004C9DC0014D9D900D5C9D900D1124080F1F
:101EB000191F4F2D60E0CE010E94C917F3948F2D9A
:101EC0008E198A1528F48FEFC81AD80AFB14F8F275
:101ED000DF91CF911F910F91FF90EF90DF90CF9006
:101EE000BF90AF900895FC01A081B18150969C9164
:101EF00043AD949FA001112483E0440F551F8A95A0
:101F0000E1F760E070E081AD92AD0C948726CF934D
:101F1000DF93EC010E94340FCE01DF91CF910C943E
:101F20000A18CF93DF93EC016CAFEFA9F8AD0190E5
:101F3000F081E02D0995EFA9F8AD0280F381E02D45
:101F4000CE01DF91CF910994CF93DF93EC01FC0197
:101F5000E558FF4F8081882319F0CE010E94730F4E
:101F600060E0CE01DF91CF910C94910F1F93CF933E
:101F7000DF93EC010E94340F1CAD8BAD180FE8818C
:101F8000F9818189181728F0CE010E940A1880E093
:101F90000EC0FE01E558FF4F8081882319F0CE0165
:101FA0000E94730F612FCE010E94910F81E0DF919B
:101FB000CF911F910895CF93DF93EC010E94A40F5E
:101FC000CE010E94B60F8111FBCF60E0CE01DF9100
:101FD000CF910C94910F24E0FC0120838AEF93E0D1
:101FE0000895CF92DF92EF92FF920F931F93CF93BA
:101FF000DF931F92CDB7DEB77C016B0189019A0197
:1020000048E956E16FE777E10E943D18CE0101965D
:102010000E94EB0F860123E434E14981BC01C70132
:102020000E9494150F90DF91CF911F910F91FF9017
:10203000EF90DF90CF900895FC01E60FF11D8491A1
:1020400090E0982F88273196E4918E0F911D089586
:10205000213039F020F0223031F4841B0895840FB0
:102060000895860F0895861B0895213039F020F0D9
:10207000223031F4861B0895860F0895841B08953D
:10208000840F089580E008950F931F93CF93DF93FB
:10209000EC018B01FB01849188833196E491E98303
:1020A000FB013296E491EA83FB013396E491EB83E2
:1020B000FB013496E491EC83FB013596E491ED83CA
:1020C000FB013696E491EE83FB013796E491EF83B2
:1020D000FB013896E491E887FB013996E491E987A2
:1020E000FB013A96E491EA87FB013B96E491EB878A
:1020F000FB013C96E491EC87FB013D96E491ED8772
:10210000FB013E96E491EE87FB013F96E491EF8759
:10211000FB017096E491E88B61E1C8010E941C10FC
:102120009A8B898B63E1C8010E941C109C8B8B8B5E
:1021300065E1C8010E941C109E8B8D8BDF91CF91B1
:102140001F910F910895DC0118964C911897ED910D
:10215000FC911197249130E0042E02C0359527950B
:102160000A94E2F7842F860F883010F4E22F0DC016
:1021700031961196FC93EE93E49198E0941B01C084
:10218000EE0F9A95EAF7E22B885018968C9381E02F
:1021900090E001C0880F6A95EAF781508E23089578
:1021A0000F931F93CF93DF938C01EC01C05BDF4F44
:1021B000798368831886FC01EF59FF4F6081CE0157
:1021C0000E94A3108E83F801EE59FF4F6081CE016B
:1021D0000E94A3108F83F801E658FF4F90819A87E1
:1021E00081E0911180E08B87DF91CF911F910F915A
:1021F0000895CF93C62F0E94A310C15021E030E074
:1022000001C0220FCA95EAF7821BCF9108955F9211
:102210006F927F928F929F92AF92BF92CF92DF92F6
:10222000EF92FF920F931F93CF93DF935C01F62EF3
:10223000642EEC01C05BDF4F1C81DD804C018AE71E
:10224000880E911CEE80E11ACF2CEF1408F4CE2CEE
:102250005B800C85202F4D2D612F8A810E943510C7
:10226000782E202F4D2D612F852D0E942810482F6C
:10227000662011F08A8504C08985811108C08B858C
:10228000F40180832C2D672DC5010E949A13FE1442
:1022900020F0FE18D39410E0D5CF1F0D1C83DD82F3
:1022A000DF91CF911F910F91FF90EF90DF90CF9032
:1022B000BF90AF909F908F907F906F905F900895A8
:1022C0008F929F92AF92BF92CF92DF92EF92FF9246
:1022D0000F931F93CF93DF937C01EC01C05BDF4F23
:1022E0000E94D010F701E95AFF4FC0803C966081F0
:1022F000CE010E94F910982EF701EC59FF4F608132
:10230000CE010E94F910B82EF701EB59FF4F608102
:10231000CE010E94F910A82E0E8110160CF072C08A
:10232000DC84BC0CB1942D2D4B2D692D8A810E942B
:102330003510182F8A832D2D4B2D692D8B810E94EE
:1023400028108B8391E0D916B1F0D91678F0E2E02D
:10235000DE16B9F0F3E0DF121FC02C2D210F982FED
:10236000901B01E0080F81E0890F18C0202F210F7A
:102370000C2D080F13C0DC1821E0210F080F1D0DD4
:102380000DC091E0392F301B21E0210F9C1901E095
:10239000080F890F130F02C0082F212F482F612F1C
:1023A000C7010E941714882369F11C821D828701CE
:1023B000015A1F4F470180E6880E911CF801608189
:1023C000CE010E94A310B82EF4016081CE010E94BC
:1023D000A310D82E40E06B2DC7010E94071141E0E9
:1023E0006D2DC7010E94071161E0CE010E94A3106C
:1023F0008111F0CF8D818C150CF3F701E658FF4F5A
:102400008A8580838A2DDF91CF911F910F91FF9054
:10241000EF90DF90CF90BF90AF909F908F900895F6
:10242000EF92FF920F931F93CF93DF93FC01E45B36
:10243000FF4F20813181295E3F4F6F3F710509F0C9
:1024400018F56136710510F0B49606C06134710557
:1024500038F0FC01E259FF4F80819181280F391F2C
:10246000C9010196FC014491442309F43CC0F901DF
:10247000449150E06417750711F4019636C0FC01D1
:102480008491280F311DECCF8B01FC01EE58FF4FDA
:10249000C081D181C20FD31F7E0160E0C7010E94BD
:1024A0001C10C80FD91F62E0C7010E941C10F4E085
:1024B000EF0EF11C8017910780F3FE01849190E0EC
:1024C000982F88273196E4918E2B009761F008179A
:1024D000190719F4CE01039608C0FE013296E49163
:1024E000CE0FD11DEACF80E090E0DF91CF911F9118
:1024F0000F91FF90EF900895EF92FF920F931F932B
:10250000CF93DF93EC01062F142F7901FC01E45ADD
:10251000FF4F80818130C9F070F0823001F183304B
:1025200039F5FE01E25BFF4F0190F081E02DCE0115
:102530000995080F1DC0FE01E25BFF4F0190F0817D
:10254000E02DCE010995180F13C0FE01E25BFF4F8D
:102550000190F081E02DCE010995081B09C0FE0114
:10256000E25BFF4F0190F081E02DCE010995181B31
:10257000FE01EE5AFF4F008331961083B701CE0162
:102580000E941012009751F0BC01CE01DF91CF9153
:102590001F910F91FF90EF900C94601180E0DF91FC
:1025A000CF911F910F91FF90EF900895AF92BF923E
:1025B000DF92EF92FF920F931F93CF93DF93EC0183
:1025C000162F042FB22ED32E0E94CC15EB2CFD2CEF
:1025D000D12C5E012CE5A20EB11CF70161917F01A7
:1025E000EA81FB81CE0109958F3FFFEF9F07E1F064
:1025F0008E3F2FEF920789F39C01402F612FCE0170
:102600000E947C12F5019081913049F030F09230B7
:1026100041F0933039F4081B05C0180F03C0080FB0
:1026200001C0181BD80ED9CF8D2DDF91CF911F91EE
:102630000F91FF90EF90DF90BF90AF900895E2EC84
:10264000F5E1DC011396FC93EE9312970C94D612ED
:10265000CF93DF93FC01E45BFF4F20813181232B7B
:10266000C1F17E962081DC01AA58BF4F2C93319690
:1026700050813C965083EC01CB58DF4F3881332397
:1026800041F1313069F42997388123170CF43C93D8
:10269000DC01A359BF4F8C918517DCF4808319C0EE
:1026A000EC01C959DF4F488122963881822F220FD1
:1026B000990B632F032E000C770B640F711D47FDE0
:1026C0007A958617970714F4430F4C9335170CF43B
:1026D0003083DF91CF910895825B9F4F22E430E1F8
:1026E000FC01318320830895CF93DF93FC01E45BE9
:1026F000FF4F208131812617370761F0EC0171838C
:102700006083835A9F4F0E944410CE01DF91CF9186
:102710000C942813DF91CF9108950F93DC01DF967D
:102720003C91DF97431BD596ED91FC91D697099587
:102730000F9108950F93DC01802FFD01EC58FF4F9E
:102740009081992309F463C0222309F460C02230E8
:1027500048F0023019F46F5F621B04C0033011F4BB
:102760004F5F421B082F0170FD0180FD25C0EA5B11
:10277000FF4F8081481708F44AC03196808148177E
:1027800008F045C03297908131978081260F261737
:1027900030F4691718F42FEF290F03C0682F691759
:1027A000B0F58217A0F5681708F4682F291708F408
:1027B000922F292F261B22C0EC5BFF4F80816817C8
:1027C00030F131968081681710F5329690813197FB
:1027D0008081240F241730F4491718F42FEF290FA4
:1027E00003C0482F491798F4821788F4481708F453
:1027F000482F291708F4922F292F241BD796ED91E3
:10280000FC91D8970480F581E02DCD0109950F91B9
:102810000895461730F4821740F081E0241730F015
:1028200002C08217D0F380E0089581E00895FF92FE
:102830000F931F93CF93DF93EC01162FF22E202FCF
:10284000DC01A95BBF4FFC01EA5BFF4F6C9180810B
:102850000E940914882381F0FE01EB5BFF4FCC5BE3
:10286000DF4F2F2D412F60818881DF91CF911F9104
:102870000F91FF900C94091480E0DF91CF911F918C
:102880000F91FF900895EF92FF920F931F93CF93B4
:10289000DF93EC01742F7770E1E0F0E0072E01C0C8
:1028A000EE0F0A94EAF73E2F7C018AE7E80EF11C4E
:1028B000D7018C91823028F41E2F813019F430E03A
:1028C00001C010E050E0487F89AD9AADA881B98180
:1028D0005096FC91F49FD001F59FB00D1124A60FE6
:1028E000B11DA80FB91F01110BC08C91812B83273B
:1028F0008D932150D1F71CC0110F330F2223C1F04B
:102900009C91912B93279C937F5F7770215071113D
:10291000F3CF8DADA80FB11DF7018081823020F477
:10292000813021F031E002C031E0E8CF11E0E6CFA4
:10293000DF91CF911F910F91FF90EF900895CF936A
:10294000DF93FC01A081B18193AD892F880F880F9F
:10295000880F86AF50968C915097803208F08FE1A7
:10296000880F880F880F85AF24AD822F880F880FBE
:10297000880F87AF51963C915197422F50E0490FF5
:10298000511D632F70E06417750714F4932F921B89
:10299000EF01C05CDF4F8883219628E0929F800D75
:1029A00011248883219680EF888354968D919C9181
:1029B0005597813F910508F48883ED5BFF4F56964C
:1029C0008C918083DF91CF9108950C949F140F9385
:1029D000FC01DC01AD5BBF4F9C91941B492F11970B
:1029E0009C91961B692F011103C04150621B04C0CA
:1029F000013011F46150421BCF010E948D130F91E1
:102A000008958F929F92AF92BF92CF92DF92EF92F2
:102A1000FF920F93CF93DF93EC017C018BE4E80EE0
:102A2000F11C5E01E9E4AE0EB11C6E01FAE4CF0EBA
:102A3000D11C4E0188E4880E911CF7010081F5013C
:102A40002081F6014081F4016081CE010E941714BB
:102A5000FE01EC58FF4F811102C0108225C081E0B9
:102A60008083F4018081FE01EC5BFF4F9081981719
:102A700008F48083F5018081FE01EB5BFF4F9081BC
:102A8000891708F48083F6018081FE01EA5BFF4F1D
:102A90009081981708F48083F7018081C95BDF4F2C
:102AA0009881891708F48883DF91CF910F91FF9067
:102AB000EF90DF90CF90BF90AF909F908F90089550
:102AC000FC01EC5BFF4F10823196DC01AE5BBF4F27
:102AD0002C9120833196108211962C9112973C9163
:102AE000231718F0422F431B4083FC01E95BFF4F83
:102AF000DC01A05CBF4F3C91231B20830C9401158B
:102B0000FC01E85BFF4F10823296108231972FEF65
:102B1000208332962083DC01D796ED91FC91D897E3
:102B20000280F381E02D09940F931F93CF93DF93DD
:102B3000EC01FC01E45BFF4F118210823EAB2DAB38
:102B40007AAF69AF4BAF1CAE3D961082B096108243
:102B5000319681E080833196808318AF0FABD80126
:102B6000ED91FC91CE010995CE010E948015CE0118
:102B70000E946C13C45ADF4F1882DF91CF911F91CE
:102B80000F910895662329F06A3019F0862F90E09E
:102B900008958FEF9FEF0895FC01118E08959A011B
:102BA000DC011896ED91FC911997462F67E1099485
:102BB000CF93DF931F92CDB7DEB76983AE014F5F2E
:102BC0005F4F61E00E94CF150F90DF91CF91089584
:102BD000DC011896ED91FC91199720E030E040E07F
:102BE00068E10994DC011896ED91FC91199720E0B9
:102BF00030E040E069E10994EF92FF921F93CF9398
:102C0000DF93EC01162F7A010E94E81560E4CE01F3
:102C10000E94D815E885F9859701412F67E1CE011B
:102C20000995CE01DF91CF911F91FF90EF900C9409
:102C3000F215462FDC011696ED91FC91179720E0D6
:102C400030E065E10994462FDC011696ED91FC9188
:102C5000179720E030E066E109949A01DC011696AE
:102C6000ED91FC911797462F67E10994DC011696C8
:102C7000ED91FC91179720E030E040E068E1099485
:102C8000DC011696ED91FC91179720E030E040E0D2
:102C900069E10994EF92FF920F931F93CF93DF9313
:102CA0001F92CDB7DEB77C018B01D8016C916731E3
:102CB000E1F078F46531A0F1F80141814983D70151
:102CC0001696ED91FC91179720E030E0C701099529
:102CD00024C06A31A8F06E3F19F5F801418149839B
:102CE00069E2C7010E94141818C0F8018181898324
:102CF000AE014F5F5F4F61E0C7010E942D160DC00E
:102D00000F5F1F4FD7011696ED91FC91179720E0AA
:102D100030E040E0C7010995C8CF0E5F1F4FC5CF17
:102D20000F90DF91CF911F910F91FF90EF90089539
:102D3000EF92FF921F93CF93DF93EC01142F790151
:102D4000663121F128F46431E9F1653149F056C06A
:102D5000683109F44FC0F0F0693109F444C04EC045
:102D60008091FA05882319F0CE010E94F215CE0158
:102D70000E94E81560E0CE010E94D815612FCE01B7
:102D80000E94D81581E08093FA0539C0642F0E9413
:102D9000D81532C08091FA05882319F0CE010E941F
:102DA000F215A701193148F068E1CE010E94FC1527
:102DB000185188E1E80EF11CF4CF612FCE010E947A
:102DC000FC1518C08E898F3F11F488E78E8BE8853B
:102DD000F9859701412F64E1CE01DF91CF911F91D9
:102DE000FF90EF9009948091FA05882319F0CE01A5
:102DF0000E94F2151092FA0581E001C080E0DF9197
:102E0000CF911F91FF90EF900895EF92FF920F9353
:102E10001F93CF93DF93EC01142F79016D30C1F133
:102E200028F46A3029F16B3041F161C06E3009F449
:102E300042C06F3009F05BC00E943616F7018381F3
:102E40000C89F8E08F9F000D1124602F62956F7040
:102E50006061CE010E941916602F6F70CE010E9432
:102E60001916F7016481606BCE010E94191632C0F9
:102E70000E9491176FE871E007C0411103C06AE832
:102E800071E002C065E871E0CE010E944A1620C0E0
:102E9000411108C06EE771E00E944A16E881F9818D
:102EA000828907C067E771E00E944A16E881F981CC
:102EB00083898C8B0DC00E94361661E8CE010E947A
:102EC0001916612FCE010E942316CE010E944016D2
:102ED00081E00EC0F701408151816281660F660F6B
:102EE000660FCE010E942D161150A1F7EECF80E0A3
:102EF000DF91CF911F910F91FF90EF90089569306E
:102F000011F00C9405176FE571E00E94891781E0BC
:102F10000895FC0171836083FB012289FC01248BED
:102F20000895CF93DF93EC01EA85FB8520E030E044
:102F300040E068E20995EE81FF8120E030E040E06A
:102F400064E1CE01099541E06BE4CE010E941418C2
:102F5000E881F981448169E2CE010E94141840E0C1
:102F60006BE4CE010E941418E881F981448169E282
:102F7000CE010E94141841E06BE4CE010E941418A7
:102F8000E881F981458169E2CE01DF91CF910C940E
:102F900014180F931F93CF93DF9300D000D01F928C
:102FA000CDB7DEB76C834D832B831A830983DC0195
:102FB0001496ED91FC9115979E012F5F3F4F41E0D4
:102FC0006FE009950F900F900F900F900F90DF9189
:102FD000CF911F910F910895DC011496ED91FC9112
:102FE000159720E030E040E069E00994DC01149698
:102FF000ED91FC91159720E030E040E06AE0099403
:10300000462FDC011496ED91FC91159720E030E0FD
:103010006BE00994DC011496ED91FC91159720E08A
:1030200030E040E060E10994DC011A96ED91FC91FA
:103030001B9720E030E0099480E00895FC011182A4
:1030400010828CE198E195838483978386839187AE
:10305000808793878287158A108E118E1486158635
:10306000168617868FEF868B838FDF015F96F59626
:103070008D93AE17BF07E1F70895AF92BF92CF923D
:10308000DF92EF92FF920F931F93CF93DF93EC01A8
:103090005B016A0179010E941E18BD82AC82DF8249
:1030A000CE82F986E8861B870A87CE01DF91CF9111
:1030B0001F910F91FF90EF90DF90CF90BF90AF9056
:1030C0000C94EC178F929F92AF92BF92CF92DF92A7
:1030D000EF92FF920F931F93CF93DF93EC0118822F
:1030E00019821A826623C1F1FA0189017C016A0101
:1030F00083E0C80ED11C862E912CA12CB12C2191DD
:10310000222311F1D8016C916623F1F0822F90E017
:10311000A0E0B0E09C01AD012F5F3F4F4F4F5F4FEC
:10312000862F90E0A0E0B0E0BC01CD016F5F7F4F43
:103130008F4F9F4F0E94EE259B01AC01C501B4014A
:103140000E94EE25D7018C930F5F1F4FBFEFEB1A44
:10315000FB0AEC15FD0599F6CE01DF91CF911F9189
:103160000F91FF90EF90DF90CF90BF90AF909F9026
:103170008F900895FC018FEF808312821182148654
:1031800013868FEF9FEFDC0187839087A187B2873B
:103190000895CF92DF92EF92FF920F931F93CF93F8
:1031A000DF932091FF0530910006A9014F5F5F4F2B
:1031B000509300064093FF0526173707B4F1EC0142
:1031C0000E94E5218B019C01E091FF05F091000632
:1031D00088EE93E0E89FB001E99F700DF89F700DB5
:1031E0001124072E000C880B990BC090FB05D09082
:1031F000FC05E090FD05F090FE05A90198012C1951
:103200003D094E095F090E9426263A8329831092C0
:1032100000061092FF050E94E5216093FB05709364
:10322000FC058093FD059093FE05DF91CF911F91E2
:103230000F91FF90EF90DF90CF900895AF92BF92E3
:10324000CF92DF92EF92FF920F931F93CF93DF9372
:1032500000D01F92CDB7DEB77C01D62EF701838157
:103260009481A581B681892B8A2B8B2BD1F00E946A
:10327000F121009101061091020620910306309180
:103280000406DC01CB01801B910BA20BB30BF701F1
:10329000038114812581368180179107A207B30726
:1032A000E8F20E94F1216093010670930206809378
:1032B000030690930406D7011B96ED91FC911C9791
:1032C000309751F0D70117964D915D916D917C919A
:1032D0001A978D2D0995D82E009107061091080692
:1032E0000115110579F1F801C484D70111968D916A
:1032F0009C9112978436910508F41486D801ED91BB
:10330000FC91A280B3809801275F3F4FA8014A5FDC
:103310005F4F6D2DCE0101960E946218F801458520
:103320005685628173819E012F5F3F4FC801F50171
:103330000995D8011C96CC921C9714960D911C915E
:103340001597CECF69E170E0C7010E94C9180F90B0
:103350000F900F90DF91CF911F910F91FF90EF9001
:10336000DF90CF90BF90AF900895CF93DF93EC01A3
:103370004423E1F06115710571F19B0140E050E0DB
:1033800060E472E48FE090E00E9448268B819C818B
:10339000AD81BE8182179307A407B50710F4DA0147
:1033A000C9018B839C83AD83BE8315C061157105F4
:1033B00071F09B0140E050E060E472E48FE090E047
:1033C0000E9448262B833C834D835E8304C01B826E
:1033D0001C821D821E82DF91CF910895CF92DF92D1
:1033E000EF92FF920F931F93CF93DF938C016B01AA
:1033F000EA017901121613061CF07A01C0E0D0E050
:10340000D801ED91FC910480F581E02DC80109956A
:10341000CE01880F991FC80FD91FCC0DDD1DF801F3
:10342000D383C283F686E5860190F081E02D028485
:10343000F385E02DC801099541E0BC0189E096E0E3
:103440000E94B519C801DF91CF911F910F91FF9094
:10345000EF90DF90CF90089589E096E00C94BA1831
:103460000F931F93CF93DF93FC01842F82958F706E
:103470004F70DB01982F990F980FEB01C90FD11DE9
:10348000442319F031E0012B09F430E068815981BF
:103490009A81332309F42CC08F3011F0DE0113968A
:1034A0004295407F142F10953C91619F060E60E07D
:1034B000611D349F030E30E0311D630F11963C9166
:1034C0001197519F050E50E0511D349F030E30E0BF
:1034D000311D530F12967C91392F319F030E30E02E
:1034E000311D749F070E70E0711D932F970F1124EB
:1034F0002F3FE1F02223B9F02F5F662321F0629F76
:10350000060E60E0611D552321F0529F050E50E02C
:10351000511D992331F0392F329F030E30E0311DB8
:10352000932F112403C090E050E060E0608351834A
:103530009283CF01DF91CF911F910F910895FC01EC
:10354000DB01BC01605D7F4F80E090812C91921780
:10355000A1F0921718F49F5F90838F5F90812C9158
:10356000291748F42FEF290F20838F5F3C913217E2
:1035700010F492509083841728F431961196E61730
:10358000F70719F708951F93DC01FB017C91119651
:103590004C91119712961C91972F9F71990F990F2B
:1035A000990F35E5292F239F020E20E0211D1124BC
:1035B000822F672F6074572F507277FD1FC06111E3
:1035C0000AC0511103C0922F909511C025E5280F14
:1035D00090E08BEA34C051110DC0392F2AEA329F96
:1035E000030E30E0311D11249BEA931B280F892F15
:1035F00090E025C090E02095982F0FC0611112C077
:1036000051110DC0392F2AEA329F030E30E0311DCF
:1036100011242BEA231B95E5930F80E010C0922F15
:1036200090950CC0511104C025E5280F9BEA04C0F9
:103630002AEA280F90E0932F981B822F20E04F3F1B
:1036400009F427C0442311F1882331F0382F349F27
:10365000030E30E0311D832F222321F0249F020E20
:1036600020E0211D992331F0392F349F030E30E0E3
:10367000311D932F1124342F3095339F030E30E0EA
:10368000311D1124830F230F930F03C09FEF2FEFE2
:103690008FEF1F3F09F424C030E0112321F0119F68
:1036A000312D09F03F5F3323C1F0882331F0482FDB
:1036B000439F040E40E0411D842F222321F0239FCD
:1036C000020E20E0211D992331F0492F439F040E63
:1036D00040E0411D942F112403C090E020E080E0E1
:1036E0008083218392831F910895FB01DC0140FFB9
:1036F00005C002C001900D9201900D924250D0F78A
:103700005040C0F708958617970710F40C94751B66
:10371000840F951F640F751FFB01DC0140FF05C07E
:1037200002C002900E9202900E924250D0F750408A
:10373000C0F70895FC018BE681838AE08283608371
:10374000611102C041830895613009F442830895F4
:10375000CF93DF93EC010E949A1B81E08B8320EDD5
:1037600037E03D832C8320EA31E03F832E8340E91C
:1037700051E0598748878A878B878C878D8740E1FE
:1037800050E05F874E87398B288B24E630E03B8BF7
:103790002A8B8C8B8D8B8E8B8F8B88EB9BE0998FFC
:1037A000888F8AE090E09B8F8A8F1C8E1E8E1D8EE4
:1037B00018A21F8EDF91CF910895CF92DF92EF92E2
:1037C000FF92CF93DF93EC010E94E5217E012CE86C
:1037D000E20EF11CFE01B8966E019E01245C3F4F83
:1037E000D7011D927D0111921192D6016D937D93A7
:1037F0008D939D936D01AF01425B5F4FDA011D9286
:103800001C92E217F30761F7C655DF4F1982188241
:10381000DF91CF91FF90EF90DF90CF900895FC0162
:10382000E655FF4F208131812A3031056CF4E25892
:10383000F10920E030E081919191892B41F02F5FD7
:103840003F4F2A303105B9F78FEF9FEF0895C90137
:1038500008954F925F926F927F92AF92BF92CF92F4
:10386000DF92EF92FF920F931F93CF93DF93EC01C0
:103870002A013B0169010E940F1C7C0197FD31C0A8
:10388000C114D10471F15C01AA0CBB1CAA0CBB1CB5
:10389000AC0EBD1EF50144AE55AE66AE77AEF70177
:1038A000EE0FFF1FEC0FFD1FD1A6C0A6EC59FF4F76
:1038B00011830083FE01EE0DFF1DE457FF4F81E0F1
:1038C00080830E94E521F501608371838283938365
:1038D000C655DF4F88819981019699838883C701F6
:1038E00002C08FEF9FEFDF91CF911F910F91FF905B
:1038F000EF90DF90CF90BF90AF907F906F905F90F0
:103900004F9008950F931F9300E010E00E94291C30
:103910001F910F910895CF93DF936A307105BCF525
:10392000EC01C655DF4F288139812115310579F128
:10393000DB01AA0FBB1FA80FB91F98964D915C9190
:103940009997452B21F199961C921E929897FC010C
:10395000E60FF71FE457FF4F1082FD01EA56FF4FB5
:1039600011821082615F7F4F660F771F660F771F8E
:10397000FC01E60FF71F1082118212821382A858F1
:10398000BF4F1D921C922150310939832883DF914A
:10399000CF9108952F923F924F925F926F927F92B4
:1039A0008F929F92AF92BF92CF92DF92EF92FF924F
:1039B0000F931F93CF93DF9300D000D000D0CDB7EB
:1039C000DEB79C838B830E94E5216B017C01EB8138
:1039D000FC81EC59FF4F0B811C81980124573F4F0C
:1039E000C80188589F4F9A8389831E830D832224A0
:1039F0002394312C13AA12AACF01CC97DC018D910C
:103A00009C91892BF1F1AD81BE818D909D90AD90FF
:103A1000BC901397DC964D915D916D917C91DF97F1
:103A200026013701481859086A087B0844165506CC
:103A30006606770630F1480D591D6A1D7B1D4D93B2
:103A40005D936D937C931397D9018C918823C9F072
:103A5000408151814115510519F433AA22AA11C0A0
:103A6000848995898417950764F433AA22AA01965C
:103A7000958B848B8417950724F082E090E093ABBC
:103A800082AB3296AD81BE811496BE83AD832F5F2B
:103A90003F4F89819A81E817F90709F0ABCFE12CF4
:103AA000F12CF801EA56FF4F808191818130910518
:103AB00071F0029791F4D8019896ED91FC91999745
:103AC0000995B7018B819C810E948B1C06C0D8018F
:103AD0009896ED91FC9199970995BFEFEB1AFB0A27
:103AE0000E5F1F4F8AE0E816F104D9F626960FB64E
:103AF000F894DEBF0FBECDBFDF91CF911F910F9124
:103B0000FF90EF90DF90CF90BF90AF909F908F90FD
:103B10007F906F905F904F903F902F90089580918D
:103B2000460690E020914706821B910908959091E6
:103B3000470680914606981750F4E92FF0E0E85BBD
:103B4000F94F208130E09F5F9093470602C02FEF2E
:103B50003FEFC9010895E091470680914606E817B6
:103B600030F4F0E0E85BF94F808190E008958FEF4A
:103B70009FEF08950895CF92DF92EF92FF920F93F7
:103B80001F93CF93DF937C01CB018A012091220602
:103B9000222389F0EB016B01C40ED51ECC15DD0587
:103BA00069F06991D701ED91FC910190F081E02DD0
:103BB000C7010995F3CF642F0E94DF1EC801DF9172
:103BC000CF911F910F91FF90EF90DF90CF900895CC
:103BD000CF93DF931F92CDB7DEB769832091220682
:103BE0002223D1F020912306203240F021E030E062
:103BF000FC013383228380E090E015C0809124068D
:103C0000E82FF0E0EB5DF94F998190838F5F80930F
:103C100024068093230605C061E0CE0101960E9430
:103C2000DF1E81E090E00F90DF91CF910895FC01BD
:103C30001382128288EE93E0A0E0B0E08483958343
:103C4000A683B78388EC91E09183808308951092D6
:103C500047061092460610922406109223060C94F2
:103C60006B1E9A01AB0160E072E18AE790E00E946E
:103C70002626DA01C9014097A109B109B695A79591
:103C8000979587958093B800089581E080932206E8
:103C900060934506109224061092230608950C9412
:103CA000451E0F93062F21E04091230665E276E042
:103CB000809145060E94891E1092240610922306C8
:103CC000109222060F91089561E00C94511E86E136
:103CD00096E00C94171E1092D50681E08093D306CF
:103CE0001092D20661E082E10E945A2361E083E1F2
:103CF0000E945A23E9EBF0E080818E7F80838081EF
:103D00008D7F808380E28093B80085E48093BC003F
:103D100008950F93413208F04AC09091D506911151
:103D2000FCCF32E03093D5060093D3063FEF3093BB
:103D300068061092AD064093AC06562FAEEAB6E088
:103D4000FB013E2F351B341718F431913D93F9CF09
:103D50001092D4063091D406880F832B8093D4061A
:103D60008091D206813061F41092D2068091D406FF
:103D70008093BB008091BC0083FDF8CF85EC01C02F
:103D800085EE8093BC00222321F08091D5068230FD
:103D9000D1F3809168068F3F79F080916806803278
:103DA00041F080916806803331F094E005C091E0E5
:103DB00003C092E001C093E0892F0F910895613212
:103DC00098F42091D506243089F460938A06282F30
:103DD000ACE8B6E0FC018E2F821B861718F48191A7
:103DE0008D93F9CF80E0089581E0089582E00895F1
:103DF00085ED8093BC008091BC0084FDFCCF1092C7
:103E0000D506089585EC8093BC001092D5060895E0
:103E10001F920F920FB60F9211242F933F934F933F
:103E20005F936F937F938F939F93AF93BF93EF9322
:103E3000FF938091B900887F803609F49EC078F5A1
:103E4000883209F45DC090F4803109F456C038F42A
:103E5000882309F4F5C0883009F44FC0F5C08831D3
:103E600009F44EC0803209F45FC0EEC0803409F41A
:103E70006AC058F4803309F457C0883309F0E4C0AD
:103E8000809368060E94021FDFC0803509F44FC08E
:103E9000883509F45DC0883409F0D6C0D3C08839AC
:103EA00009F4C4C0A8F4883709F467C038F4883628
:103EB00009F463C0803709F460C0C6C0883809F4CB
:103EC000B5C0803909F45FC0803809F0BDC05BC05F
:103ED000803B09F483C038F4803A09F466C0883A1C
:103EE00009F47CC0B1C0803C09F4A4C0883C09F44A
:103EF000A1C0883B09F487C0A7C08091D40610C038
:103F00009091AD068091AC06981770F5E091AD06E2
:103F100081E08E0F8093AD06F0E0E255F94F80818D
:103F20008093BB0085EC83C0809368068BC0E091D2
:103F3000AD0681E08E0F8093AD068091BB00F0E06E
:103F4000E255F94F80839091AD068091AC066BC02D
:103F5000E091AD0681E08E0F8093AD068091BB00AD
:103F6000F0E0E255F94F80838091D30681116AC059
:103F700081E08093D20684EA5EC083E08093D50618
:103F800010926906CFCF80916906803208F04EC04A
:103F9000E091690681E08E0F809369068091BB00F5
:103FA000F0E0E659F94F8083BDCF0E94021F809157
:103FB0006906803230F4E0916906F0E0E659F94F85
:103FC00010826091690670E0E091CE06F091CF0614
:103FD0008AE696E009951092690636C084E08093DF
:103FE000D50610928B0610928A06E091D006F091C9
:103FF000D106099580918A06811105C081E08093E0
:104000008A0610928C06E0918B0681E08E0F8093D9
:104010008B06F0E0E457F94F80818093BB009091CC
:104020008B0680918A06981708F47CCF85E88093E8
:10403000BC000AC085EC8093BC001092D50604C079
:10404000109268060E94F81EFF91EF91BF91AF9108
:104050009F918F917F916F915F914F913F912F91A0
:104060000F900FBE0F901F9018956115710579F094
:10407000FB0101900020E9F73197AF01461B570B78
:10408000DC01ED91FC910280F381E02D099480E048
:1040900090E00895DC01ED91FC910190F081E02D1C
:1040A00009948F929F92AF92BF92EF92FF920F93DB
:1040B0001F93CF93DF93CDB7DEB7A1970FB6F894D8
:1040C000DEBF0FBECDBF7C01FA01CB0119A22230A9
:1040D00008F42AE08E010F5D1F4F822E912CA12C37
:1040E000B12CBF01A50194010E942626F901CA0145
:1040F000015011096A3014F4605D01C0695CD80197
:104100006C93232B242B252B61F7B801C7010E9448
:104110003520A1960FB6F894DEBF0FBECDBFDF915C
:10412000CF911F910F91FF90EF90BF90AF909F9014
:104130008F9008952115310541F4DC01ED91FC913A
:104140000190F081E02D642F09940C9451209A0184
:10415000AB0160E070E00C949A207F928F929F9266
:10416000AF92BF92CF92DF92EF92FF920F931F9385
:10417000CF93DF938C016A017B01722E9A01AB0110
:10418000C701B6010E94E925882319F067ED71E0A7
:1041900027C046015701E894B7F82FEF3FEF4FE7EC
:1041A0005FE7C501B4010E94E92581110DC02FEF21
:1041B0003FEF4FE75FE7C501B4010E941F241816C7
:1041C0001CF46BED71E00CC02FEF3FEF4FE75FE4A5
:1041D000C701B6010E947725181694F46FED71E0BF
:1041E000C801DF91CF911F910F91FF90EF90DF9069
:1041F000CF90BF90AF909F908F907F900C94352080
:104200002FEF3FEF4FE75FECC701B6010E941F247D
:1042100087FDE4CF20E030E0A901C701B6010E948C
:104220001F2487FF0AC06DE2C8010E944A20EC01EA
:10423000F7FAF094F7F8F09402C0C0E0D0E0B12CA7
:1042400060E070E080E09FE37B1441F020E030E02C
:1042500040E251E40E942424B394F6CFA7019601D2
:104260000E94B3236B017C010E9496244B015C01E8
:104270002AE0AB01BC01C8010E945120C80FD91F20
:104280007720B9F1C501B4010E94C5249B01AC019E
:10429000C701B6010E94B2236B017C016EE2C80126
:1042A0000E944A20C80FD91F20E030E040E251E4CC
:1042B000C701B6010E947C254B015C010E94962437
:1042C0006B017C014AE050E0C8010E94A720C80FA2
:1042D000D91FB60180E090E00E94C5249B01AC018B
:1042E000C501B4010E94B2236B017C017A94711064
:1042F000DBCFCE01DF91CF911F910F91FF90EF9017
:10430000DF90CF90BF90AF909F908F907F90089557
:104310000C94AD20089508950E945B220E948B2189
:104320000E946006C0E0D0E00E94B7092097E1F348
:104330000E940000F9CF1F920F920FB60F92112426
:104340002F933F938F939F93AF93BF938091D70603
:104350009091D806A091D906B091DA063091D60690
:1043600026E0230F2D3720F40296A11DB11D05C0B4
:1043700029E8230F0396A11DB11D2093D606809333
:10438000D7069093D806A093D906B093DA06809109
:10439000DB069091DC06A091DD06B091DE06019669
:1043A000A11DB11D8093DB069093DC06A093DD0672
:1043B000B093DE06BF91AF919F918F913F912F9166
:1043C0000F900FBE0F901F9018952FB7F894609123
:1043D000D7067091D8068091D9069091DA062FBF42
:1043E00008953FB7F8948091DB069091DC06A09188
:1043F000DD06B091DE0626B5A89B05C02F3F19F05B
:104400000196A11DB11D3FBFBA2FA92F982F882754
:10441000820F911DA11DB11DBC01CD0143E0660FAE
:10442000771F881F991F4A95D1F708958F929F9201
:10443000AF92BF92CF92DF92EF92FF926B017C011D
:104440000E94F1214B015C01C114D104E104F1048B
:1044500001F10E948A210E94F121DC01CB0188191F
:104460009909AA09BB09883E9340A105B10560F3EB
:1044700021E0C21AD108E108F10888EE880E83E035
:10448000981EA11CB11CC114D104E104F10419F758
:10449000DBCFFF90EF90DF90CF90BF90AF909F90D9
:1044A0008F9008958330910528F0880F991F049705
:1044B0000197F1F70895789484B5826084BD84B53E
:1044C000816084BD85B5826085BD85B5816085BD0F
:1044D000EEE6F0E0808181608083E1E8F0E0108228
:1044E000808182608083808181608083E0E8F0E069
:1044F000808181608083E1EBF0E080818460808353
:10450000E0EBF0E0808181608083EAE7F0E0808189
:104510008460808380818260808380818E7F8083BD
:104520008081806880831092C10008951F93CF938B
:10453000DF93182FEB0161E00E941E23209711F4F6
:1045400060E004C0CF3FD10539F461E0812FDF91F5
:10455000CF911F910C945A23E12FF0E0E05BFA4FCA
:10456000E491E430F9F048F4E230B9F0E330A1F539
:1045700084B5806284BDC8BD34C0E830E9F0E9305C
:1045800019F1E53049F580918000806280938000C8
:10459000D0938B00C0938A0024C084B5806884BD0A
:1045A000C7BD1FC080918000806880938000D09339
:1045B0008900C093880015C08091B0008068809306
:1045C000B000C093B3000DC08091B00080628093B2
:1045D000B000C093B40005C0C038D1050CF0B5CF11
:1045E000AFCFDF91CF911F910895843081F028F4EF
:1045F000823099F08330A1F008958830A9F0893095
:10460000B9F08530D1F4809180008F7D03C0809116
:1046100080008F7780938000089584B58F7702C0E3
:1046200084B58F7D84BD08958091B0008F7703C0DD
:104630008091B0008F7D8093B0000895CF93DF9379
:1046400090E0FC01E959FA4F2491FC01E258FA4F3D
:104650008491882361F190E0880F991FFC01E75550
:10466000FA4FC591D491FC01E156FA4FA591B4914E
:10467000611109C09FB7F8948881209582238883AF
:10468000EC912E230BC0623061F49FB7F8948881BF
:10469000322F309583238883EC912E2B2C939FBF50
:1046A00006C08FB7F894E8812E2B28838FBFDF9147
:1046B000CF9108951F93CF93DF93282F30E0F90116
:1046C000E05BFA4F8491F901E959FA4FD491F9016D
:1046D000E258FA4FC491CC23C1F0162F81110E94E9
:1046E000F522EC2FF0E0EE0FFF1FE156FA4FA591F7
:1046F000B4919FB7F894111104C08C91D095D82330
:1047000002C0EC91DE2BDC939FBFDF91CF911F9114
:104710000895CF93DF93282F30E0F901E05BFA4F43
:104720008491F901E959FA4FD491F901E258FA4F0D
:10473000C491CC2391F081110E94F522EC2FF0E07E
:10474000EE0FFF1FEB56FA4FA591B491EC91ED23BC
:1047500081E090E021F480E002C080E090E0DF9111
:10476000CF9108955058BB27AA270E94CA230C94C2
:104770003D250E942F2538F00E94362520F039F47F
:104780009F3F19F426F40C942C250EF4E095E7FBDA
:104790000C942625E92F0E944E2558F3BA1762077C
:1047A00073078407950720F079F4A6F50C9470251B
:1047B0000EF4E0950B2EBA2FA02D0B01B90190013C
:1047C0000C01CA01A0011124FF27591B99F0593F80
:1047D00050F4503E68F11A16F040A22F232F342FC8
:1047E0004427585FF3CF469537952795A795F04016
:1047F0005395C9F77EF41F16BA0B620B730B840B2B
:10480000BAF09150A1F0FF0FBB1F661F771F881FE2
:10481000C2F70EC0BA0F621F731F841F48F487953A
:1048200077956795B795F7959E3F08F0B0CF93952C
:10483000880F08F09927EE0F9795879508950E94A5
:10484000022508F481E008950E9438240C943D2547
:104850000E94362558F00E942F2540F029F45F3F32
:1048600029F00C94262551110C9471250C942C25BB
:104870000E944E2568F39923B1F3552391F3951BBC
:10488000550BBB27AA2762177307840738F09F5F71
:104890005F4F220F331F441FAA1FA9F335D00E2EDE
:1048A0003AF0E0E832D091505040E695001CCAF74B
:1048B0002BD0FE2F29D0660F771F881FBB1F26170E
:1048C00037074807AB07B0E809F0BB0B802DBF01E5
:1048D000FF2793585F4F3AF09E3F510578F00C94B4
:1048E00026250C9471255F3FE4F3983ED4F386951A
:1048F00077956795B795F7959F5FC9F7880F911DD5
:104900009695879597F90895E1E0660F771F881FC0
:10491000BB1F621773078407BA0720F0621B730B73
:10492000840BBA0BEE1F88F7E09508950E94562578
:1049300088F09F5798F0B92F9927B751B0F0E1F060
:10494000660F771F881F991F1AF0BA95C9F714C010
:10495000B13091F00E947025B1E008950C9470255B
:10496000672F782F8827B85F39F0B93FCCF3869549
:1049700077956795B395D9F73EF4909580957095A6
:1049800061957F4F8F4F9F4F0895E89409C097FB23
:104990003EF490958095709561957F4F8F4F9F4F16
:1049A0009923A9F0F92F96E9BB279395F69587955A
:1049B00077956795B795F111F8CFFAF4BB0F11F41D
:1049C00060FF1BC06F5F7F4F8F4F9F4F16C08823C4
:1049D00011F096E911C0772321F09EE8872F762FFA
:1049E00005C0662371F096E8862F70E060E02AF03B
:1049F0009A95660F771F881FDAF7880F9695879527
:104A000097F90895990F0008550FAA0BE0E8FEEFFB
:104A100016161706E807F907C0F012161306E40782
:104A2000F50798F0621B730B840B950B39F40A267B
:104A300061F0232B242B252B21F408950A2609F459
:104A4000A140A6958FEF811D811D089597F99F675D
:104A500080E870E060E008959FEF80EC0895002406
:104A60000A941616170618060906089500240A94D3
:104A700012161306140605060895092E0394000C59
:104A800011F4882352F0BB0F40F4BF2B11F460FFE8
:104A900004C06F5F7F4F8F4F9F4F089557FD905811
:104AA000440F551F59F05F3F71F04795880F97FBF2
:104AB000991F61F09F3F79F08795089512161306AC
:104AC0001406551FF2CF4695F1DF08C016161706DB
:104AD0001806991FF1CF8695710561050894089510
:104AE000E894BB2766277727CB0197F908950E94A2
:104AF000022508F48FEF08950E948F250C943D2520
:104B00000E942F2538F00E94362520F0952311F0C1
:104B10000C9426250C942C2511240C9471250E94AC
:104B20004E2570F3959FC1F3950F50E0551F629F7E
:104B3000F001729FBB27F00DB11D639FAA27F00DF6
:104B4000B11DAA1F649F6627B00DA11D661F829F1D
:104B50002227B00DA11D621F739FB00DA11D621F02
:104B6000839FA00D611D221F749F3327A00D611D1F
:104B7000231F849F600D211D822F762F6A2F112401
:104B80009F5750409AF0F1F088234AF0EE0FFF1F34
:104B9000BB1F661F771F881F91505040A9F79E3F8B
:104BA000510580F00C9426250C9471255F3FE4F3A9
:104BB000983ED4F3869577956795B795F795E795E1
:104BC0009F5FC1F7FE2B880F911D9695879597F9EA
:104BD00008950E940225880B990B0895DB018F939D
:104BE0009F930E946726BF91AF91A29F800D911D58
:104BF000A39F900DB29F900D11240895AA1BBB1B7B
:104C000051E107C0AA1FBB1FA617B70710F0A61BCC
:104C1000B70B881F991F5A95A9F780959095BC01ED
:104C2000CD01089597FB072E16F4009407D077FD69
:104C300009D00E94FE2507FC05D03EF49095819591
:104C40009F4F0895709561957F4F0895A1E21A2EA8
:104C5000AA1BBB1BFD010DC0AA1FBB1FEE1FFF1F20
:104C6000A217B307E407F50720F0A21BB30BE40B70
:104C7000F50B661F771F881F991F1A9469F76095B7
:104C80007095809590959B01AC01BD01CF01089571
:104C9000052E97FB1EF400940E945F2657FD07D057
:104CA0000E94262607FC03D04EF40C945F265095F4
:104CB0004095309521953F4F4F4F5F4F0895909508
:104CC0008095709561957F4F8F4F9F4F08950E94FB
:104CD0007826A59F900DB49F900DA49F800D911DE7
:104CE00011240895EE0FFF1F0590F491E02D099413
:104CF000A29FB001B39FC001A39F700D811D11241D
:104D0000911DB29F700D811D1124911D0895DC012C
:104D100001C06D9341505040E0F70895F894FFCFE3
:104D2000010001000100FF010100390542726967BD
:104D300068746E6573733A2000566F6C74616765B2
:104D40003A2000504C41534D4120212121200000A8
:104D50000000008103070300000000810307030037
:104D6000000000EF0DA30D870C550351037903C517
:104D70000C003131295A1B750AE5146015E714003F
:104D800001140A6464323200127A0000042896107A
:104D9000040000800020001815A015C019FF181588
:104DA000A115C819FF1815AE19FF1815AF19FF186E
:104DB00015AE15D5168015A8161F15D3160015406B
:104DC000158D16141520160015A115C815DA160232
:104DD0001581168F15D916F115DB1640152E15A461
:104DE00015A619FF00000000E81DBB1D8F1D971DB3
:104DF000AB1DBA1D0D0A006E616E00696E66006F14
:044E000076660000D2
:00000001FF
