:100000000C9486050C9449280C9470280C94AE0529
:100010000C94AE050C94AE050C94AE050C94AE0594
:100020000C94AE050C94AE050C94AE050C94AE0584
:100030000C94AE050C94AE050C94AE050C94AE0574
:100040000C94A8280C94AE050C94AE050C94AE0547
:100050000C94AE050C94AE050C94AE050C94AE0554
:100060000C9434260C94AE05B90003040404020475
:10007000060F0FFFFD09FD0900016702CD07F22001
:1000800005006209210792E2082602220A45B60904
:10009000112A225100231098621A21918710217988
:1000A0007908111201240DA6E2293116A14A226C09
:1000B0004200250F88668AB1912093C1598C42C6AF
:1000C00006260B66EA294121264121002708433AEA
:1000D00089941000280A96E249B1A1196714290BE6
:1000E00096E209C139CD2608002A0F77269AB090EA
:1000F0002965632553C242002B0B66E62941212660
:100100004121002C08331E191112002D0625AE09BD
:10011000052E0632E208032F138AE27A107180E17D
:1001200011B1A191C1E271906000300896E20927F7
:100130003A39310792E2888701320C96E2891243FC
:100140001115414106330C96E28912C31343C116BF
:1001500000340996E209214A8E72350B96E209C7EE
:100160001243C11600360C96E299C61224221412CC
:1001700000370896E20946F901380E96E219122472
:1001800011122422141200390E96E219122422941C
:1001900042911212003A0772E20823033B0A831EBF
:1001A0001919454448003C0D95A2C930A19114A2EB
:1001B00031C1003D0756EA0966063E0E95E38940C7
:1001C000B121929421B140003F0F96E219122441CF
:1001D00021A27120412100400F99A25AA413A3919A
:1001E0006922328A6001410C96E2191224A287200A
:1001F0004A02420D96E2891224A21321A21600435C
:100200000996E29946399A14440A96E28912243AE8
:10021000B500450B96E209C79212414106460C967D
:10022000E20947C19212418900470A96E29946497C
:1002300094500A480B96E209214A0F4134094909B2
:100240009462091421B9204A0B96E249391211A18E
:1002500090004B0D96230A212A2825224594044C10
:100260000996E20941F9C8004D0D98620AC1A2073A
:100270001311421A054E0C96E209A1928790229A18
:10028000044F0B96E21912243AA19000500C96E20A
:10029000891224A216418900510BA6DE1912243AB4
:1002A0001D150A520C96E2891224A216214A025305
:1002B0000B96E299C6A242C11600540A96E209269C
:1002C00041F90400550B96E20921FA8442020056D6
:1002D0000B96E20921FA82420400571098620A4103
:1002E0005A444844484448449A06580C96E2092126
:1002F0004A2824489404590C96E209214A28648229
:1003000032015A0997220AC7B1393A5B0894620947
:100310002539215C0C99A2BAE1690F6CC3D3005D49
:10032000089462092439295E0836FA293112035FDC
:100330000728568A87006016CC1DDBE325A543B449
:1003400021A2C121B120612161214D00610B76E222
:1003500019124391239402620C96E20941C11224BE
:100360004A2D00630976E29946892605640A96E2D9
:1003700049294D94500A650B76E21912244513124F
:1003800000660C9561A911122115319900670EA61E
:10039000D61912244A288522252400680B96E209E2
:1003A00041C112243A09690792E20821076A0AB496
:1003B0005A296121794A016B0E96E20941492428A4
:1003C00025224544026C0792E28887016D1078620D
:1003D0008A13151112111211121112096E0976E207
:1003E0008912243A096F0B76E21912244A28240054
:1003F000700C96DA8912244A2D828200710A96DAEC
:1004000099264A288512720876E2994639027309BC
:1004100076E29956D21600740C95A2193121153145
:10042000694403750976E209213AA114760A76E255
:100430000921BAA01001771278620A111112111263
:100440001112111211151300780C76E209212214F1
:1004500012242201790BA6D609213AA114B6007AFA
:100460000877220AB7D91C7B0B59AACA7080D1B26F
:1004700093047C07B2DE8887037D0C59A28A94B36B
:10048000D2718040007E0F4AEA9AA111A121A121D8
:1004900091A11100A005006209A11ADB1E3B712089
:1004A0007120712011611191401129212A0F2F4AC9
:1004B000692700A21FC9A2BA708090E090E010D115
:1004C000901021912822B188848A0388038404072C
:1004D0009900A30DA8622A3223B93C10193D10A43B
:1004E000107AE6EA7020C1A3871141A1D03000A59F
:1004F000139C627B807040E1C3A487132551B1E057
:100500004000A6119862AA6051A323A1A130D1A1F5
:10051000322200A7119862DA700031132511B1A0C0
:10052000E1422200A81DBC627BA071107200720023
:100530007200720072207180719071A071907120B0
:1005400000A918AAE27A10D190C1E2E190C1908886
:1005500021C121C1E300E22000AB0D7866BA485208
:10056000465626498B00AC1399A2AAB293B1A22099
:100570009211A2A0B291B32200AE1CAEE25B31E1B7
:10058000414112A12491249124912411311221C1BD
:100590004161312100B00B46FA19122122111200DB
:1005A000B40777268A1F08B50F88660AC1A21133DF
:1005B000423293A14201B60D7726AAB112316A22C6
:1005C000654300B70C7726AAB1920793B22100BB0E
:1005D0001278668AB03021A19191951121A1B03095
:1005E00000C00E96E209C131A29215A2314100C1AC
:1005F0000E96E209C131A29215A2314100C20E96B7
:10060000E209C131A29215A2314100C30E96E2095E
:10061000C131A29215A2314100C40E96E209C13146
:10062000A29215A2314100C50E96E209C131A292F3
:1006300015A2314100C81799A20A11419131112226
:10064000911211941211229131114100C91799A2EE
:100650000A114191311122911211941211229131FA
:10066000114100CA1799A20A114191311122911228
:1006700011941211229131114100CB1799A20A1144
:100680004191311122911211941211229131114193
:1006900000CC0E98620A41B222939723B34201CD57
:1006A0000E98620A41B222939723B34201CE0E986C
:1006B000620A41B222939723B34201CF0E98620A95
:1006C00041B222939723B34201D10777268A1F08AC
:1006D000D2117AE60AB1B02121929197912221B2EA
:1006E00008D3117AE60AB1B0212192919791222183
:1006F000B208D4117AE60AB1B021219291979122E1
:1007000021B208D5117AE60AB1B0212192919791D0
:100710002221B208D6117AE60AB1B021219291972E
:10072000912221B208D70F88620AC1A21133423246
:1007300093A14201D80F99A2CA7080D1B293877158
:10074000A08701D9127AE68AB03022A1929197113E
:1007500022A1B13001DA127AE68AB03022A1929158
:10076000971122A1B13001DB127AE68AB03022A1C2
:100770009291971122A1B13001DC127AE68AB03051
:1007800022A19291971122A1B13001DF0C97225A38
:10079000C1B10735C25101E00998628A21FBD3003B
:1007A000E10998628A21FBD300E20998628A21FB61
:1007B000D300E30998628A21FBD300E40998628A96
:1007C00021FBD300E50998628A21FBD300E70E984C
:1007D000620A41B222939723B34201E80D7726BA09
:1007E000D0B19293B2D13000E90D7726BAD0B19250
:1007F00093B2D13000EA0D7726BAD0B19293B2D13C
:100800003000EB0D7726BAD0B19293B2D13000F818
:100810000D7726AAB112316A22654300F90C97229E
:100820005AC1B10735C25101FA149B225B71907114
:10083000001291A34C6224A2E3408200FB1A9EE2C4
:100840005B31E1414112A124912491241131122103
:10085000C14161312100FC1999A25A914091409106
:100860002092B09148222182216341E3004200009E
:10087000000004FFFF01060B99A28A8752BA3E14BA
:1008800001071399A28A0793909228252125514A9E
:10089000421E0C0108179AE20A1414529168422170
:1008A000524244462405895049010139116EEA2B10
:1008B0006A2C63434663236C444400013B146EEA94
:1008C0002B41322293D120A3D011233242210001A7
:1008D000541099A2AAB293B152AA652367450001A8
:1008E000551699A2AAB29391909228252125514A92
:1008F0004246CE8A0001561499A2AAB293B1A22010
:100900009211A2A0B291B3220001581299A2AAB2E8
:100910009321A3939123A391B32200017B19BB1EC2
:10092000ABD2B3494241524684848284C6C610D1B8
:1009300081C68104017C17BB1EABD2B349A242A27F
:1009400042A242636388E840E34002017D18BB1E77
:10095000ABD2B349A242222342A242636388E84059
:10096000E34002017E19BB1EABD2B34922518484FD
:1009700082A444111A1B4344071A071201921899C2
:10098000A20A114191311122911211941211229156
:100990003111410002C6179AE20A141452916842BA
:1009A000215242444624058950490102D90B99A29B
:1009B0008A8752BA3E1402DA1099A2AAB293B152AF
:1009C000AA652367450002DC0D7726AAB19207933A
:1009D000B2210003C00E7726BAD0B19293B2D130C3
:1009E000002020159B225B719071001291A34C6234
:1009F00024A2E340820020AC0EB8622A3223797D23
:100A000020327A2022020A98628A21FBD300220631
:100A10000F98620A41B222939723B3420122110830
:100A200077268A1F08221A148AE27A107180E1114F
:100A3000B1A191C1E271906000222B0F96E209C131
:100A400031A29215A23141002248127AE60AB1B0D1
:100A50002121929197912221B20830000600220CA8
:100A60000000701919008B00000070191900800037
:100A700000008B000000CD000000578B2E0080800E
:100A80000000A09E5F00FF0000008B8B0000ED9532
:100A90006400D4FF7F00578B2E00FFFF0000FACECA
:100AA00087000000000900030200000405080000A0
:100AB00000000000000000000001020408102040B7
:100AC0008001020408102001020408102040804028
:100AD00004040404040404040202020202020303E4
:100AE0000303030302020300000000230026002981
:100AF0000000000000250028002B0000000000245A
:100B00000027002A00005E11E31D4B2511241FBEA3
:100B1000CFEFD8E0DEBFCDBF11E0A0E0B1E0E4E36D
:100B2000FBE502C005900D92AC3CB107D9F726E079
:100B3000ACECB1E001C01D92A93CB207E1F715E0B1
:100B4000C6E8D5E004C02197FE010E947C2DC33881
:100B5000D107C9F70E9499280C94982D0C94000095
:100B6000CF92DF92EF92FF920F931F93CF93DF9379
:100B70006C01EB017B01E40EF51E00E010E0CE15E8
:100B8000DF0561F06991D601ED91FC910190F08152
:100B9000E02DC6010995080F191FF1CFC801DF919B
:100BA000CF911F910F91FF90EF90DF90CF9008951C
:100BB000482F982F46FD9095E92FEF739F7046FDC3
:100BC0009F5FE695E695E695E670F0E0E75BFE4F01
:100BD0002181299F802D212D112482958F702295AE
:100BE000207F822B3081982F930F892F47FD81958D
:100BF00080580895FC01858596850895CF93DF93ED
:100C000000D000D000D0CDB7DEB7AB011C821D8272
:100C10001E82DC01ED91FC910190F081E02D1982A2
:100C20001A821B829E012F5F3F4FBE016C5F7F4F78
:100C3000099526960FB6F894DEBF0FBECDBFDF91A3
:100C4000CF91089580E090E008958091D6028F5F63
:100C50008093D602089561E083E693E00C94B71B7D
:100C60000F931F93CF93DF93EC018C010C5F1F4F09
:100C7000FC01E058FF4F0190F081E02DC80109957B
:100C80008E3F2FEF920770F4FE01ED57FF4FCE57C6
:100C9000DF4F9C0140816881C8010E94DF15988167
:100CA000890F888381E090E0DF91CF911F910F91B0
:100CB00008950F931F93CF93DF93EC01062F142F0A
:100CC0008F3F910509F010F4DC2FCC270E94F22809
:100CD0009B01AC01A8E1B1E00E94712D9B01AC0128
:100CE000DE010E94712D892F0E94D805101B282F2C
:100CF000219F020E20E0211D1124822F800FDF9101
:100D0000CF911F910F91089560910A0170910B018D
:100D100045E058E0649F9001659F300D749F300D51
:100D20001124275E394C30930B0120930A01230FC5
:100D3000289FC0011124892F0895CF92DF92EF924E
:100D4000FF921F93CF93DF93EC010E94F228C8809B
:100D5000D980EA80FB80DC01CB018C199D09AE09AA
:100D6000BF09CC80DD80EE80FF8011E08C159D05F1
:100D7000AE05BF0508F410E08C159D05AE05BF0556
:100D800030F00E94F228688379838A839B83812FC5
:100D9000DF91CF911F91FF90EF90DF90CF9008955A
:100DA000FC0160810C94D51C8EE480937C008091C2
:100DB0007A00806480937A0080917A0086FDFCCF6F
:100DC000209178008091790030E0382B032E000CC0
:100DD000440B550B60E57AED81E190E00E94522DC5
:100DE000CA01B90108954F925F926F927F928F92DC
:100DF0009F92AF92BF92CF92DF92EF92FF920F93AA
:100E0000CF93DF9300D000D000D0CDB7DEB787ED11
:100E100092E00E9476200E949E2B69837A838B83C6
:100E20009C830E94D4066B017C017E836D8360915C
:100E3000040170910501072E000C880B990B0E948C
:100E4000D62B20E030E04FE753E40E942C2B20E02B
:100E500030E048EC52E40E948B2C2B013C01B6019F
:100E60006C587A4080E090E00E94D42B20E030E87B
:100E70004BEB54E40E942C2B20E030E048EC52E491
:100E80000E948B2C4B015C01E09107018CE8C81695
:100E90008AE0D80658F4F0E0CF01880F991FE80FD8
:100EA000F91FE75AFC4F1282118211C0C6018D58FA
:100EB0009A408B32914068F4F0E0CF01880F991F7F
:100EC000E80FF91FE75AFC4F128288E2818388E716
:100ED00073C0C601895B9B40873C910558F4F0E0E4
:100EE000CF01880F991FE80FF91FE75AFC4F1282B4
:100EF00080E5ECCFC60181589C40873C910558F4B1
:100F0000F0E0CF01880F991FE80FF91FE75AFC4F57
:100F1000128288E750C0C60189549D40873C9105E4
:100F200068F4F0E0CF01880F991FE80FF91FE75A26
:100F3000FC4F128288E7818388E23EC0C60181515E
:100F40009E408336910550F4F0E0CF01880F991F41
:100F5000E80FF91FE75AFC4F128220C0C6018557DF
:100F60009E408336910550F4F0E0CF01880F991F21
:100F7000E80FF91FE75AFC4F88E20FC0C601895DF0
:100F80009E40F0E08539910568F4CF01880F991FE4
:100F9000E80FF91FE75AFC4F80E5828388E78183D9
:100FA00010820BC0CF01880F991FE80FF91FE75A75
:100FB000FC4F84E682838183808382EF95E00E94E8
:100FC000D00660E083E693E00E94B71B68E670E01D
:100FD00083E693E00E94E01683E693E00E94D61237
:100FE00004E024E640E06CE083E693E00E945812BF
:100FF0001E821D822D813E81B901330F880B990B12
:101000000E94D62B9B01AC01C301B2010E94862C29
:10101000181674F46D81645F22E041E083E693E08A
:101020000E9475178D819E8101969E838D83E2CFEC
:1010300020E131E04EE06CE083E693E00E9482160E
:1010400091E49093E1038EE08093E2034AE050E064
:1010500069817A818FE593E00E94212826E131E0C1
:101060004EE06FE583E693E00E948B162AE131E0C3
:1010700048E16CE083E693E00E94821621E420932D
:10108000E10388E18093E2034AE050E0B6018FE596
:1010900093E00E94D32724E231E048E16FE583E644
:1010A00093E00E94821604E024E64BE16CE083E6C4
:1010B00093E00E9458121A82198229813A81B9015B
:1010C000330F880B990B0E94D62B9B01AC01C501F5
:1010D000B4010E94862C181674F46981645F22E0C2
:1010E0004CE183E693E00E94751789819A8101960D
:1010F0009A838983E2CF83E693E026960FB6F8942D
:10110000DEBF0FBECDBFDF91CF910F91FF90EF906B
:10111000DF90CF90BF90AF909F908F907F906F9017
:101120005F904F900C94EA12CF93DF93CFEFD0E013
:1011300060910401709105016A3F71050CF1D09333
:101140000501C09304016FEF70E08AE00E94A329BB
:101150000E94F306E091F802F0E0809104019F0103
:10116000220F331FE20FF31FE75AFC4F982F909581
:1011700092831182808382EF95E00E94D00626C080
:101180006B5F7F4F70930501609304018AE00E94BA
:10119000A3290E94F306E091F802F0E08091040197
:1011A0009F01220F331FE20FF31FE75AFC4F982FC6
:1011B000909592831182808382EF95E00E94D00601
:1011C0006EE170E080E090E00E94232980E10E94BF
:1011D000962A019709F0ACCFDF91CF9108956091E5
:1011E000040170910501633071050CF51092050141
:1011F0001092040160E070E08AE00E94A3290E943E
:10120000F306E091F802F0E0809104019F01220FC3
:10121000331FE20FF31FE75AFC4F982F90959283EC
:101220001182808382EF95E00E94D00626C0625032
:10123000710970930501609304018AE00E94A3295B
:101240000E94F306E091F802F0E0809104019F0112
:10125000220F331FE20FF31FE75AFC4F982F909590
:1012600092831182808382EF95E00E94D00662E330
:1012700070E080E090E00E94232981E10E94962A9C
:10128000019709F0ACCF0895CF93DF931F92CDB7AC
:10129000DEB768EE73E080E090E00E94232987EDDE
:1012A00092E00E94302181E6898341E660E187ED8A
:1012B00092E00E949B1F43E1BE016F5F7F4F87ED6D
:1012C00092E00E948B2089818F77898342E068E5D4
:1012D00087ED92E00E949B1F45E069E587ED92E073
:1012E0000E949B1F4FE76AE587ED92E00E949B1FDB
:1012F00040E86BE587ED92E00E949B1F48E46EE5B5
:1013000087ED92E00E949B1F62E083E00E942B2AFF
:1013100043E050E065E276E081E00E942928809178
:10132000E101811145C01092EC011092EB018FEFA9
:101330008093EF018093F0018093F1018093F2019B
:101340008093F3018093F40181E08093F501109282
:10135000F7011092F6011092EE011092ED018091CA
:10136000F0059091F105892B31F489EE91E090938D
:10137000F1058093F005E091EE05F091EF053097CF
:1013800021F089EE91E09583848389EE91E090933A
:10139000EF058093EE058BE391E09093EA01809353
:1013A000E9011092F9011092F80181E08093E101C6
:1013B00020E030E042E050E069E573E089EE91E042
:1013C0000E94A51D809106018093F20582E69AE0B5
:1013D000A9E2B3E0FC0145915591659174916C933C
:1013E00011965C93119712964C931297049613964C
:1013F00023E0A935B20771F762E080E10E942B2A51
:1014000062E081E10E942B2A61E08AE00E942B2A9F
:1014100060910401709105018AE00E94A3298091E6
:10142000F80290E02091040130910501FC01EE0FDB
:10143000FF1FDF01A80FB91FA75ABC4F4FEF50E0A5
:10144000421B530B57FF02C04F5F5F4F55954795A7
:1014500012964C938E0F9F1FFC01E75AFC4F11828E
:10146000C90137FD019695958795808382EF95E0B8
:101470000E94D00683E693E00E94AD1B83E693E0D2
:101480000E943E1360E083E693E00E94B71B0E9437
:10149000F3062BE236E048E853E160E070E082E1D9
:1014A00092E00E94C9220F90DF91CF9108957F9220
:1014B0008F929F92AF92BF92CF92DF92EF92FF9264
:1014C0000F931F93CF93DF9300D01F92CDB7DEB75A
:1014D00040E460EC86E090E00E945906B82E40E4BB
:1014E00060EC87E090E00E94590699E5E92E93E0D0
:1014F000F92E20E4C22EC80ED12CAB2CA0948B2D3B
:101500008D0D87FF02C08A2D8D19382F330F432F81
:10151000439F040E40E0411D242F239F020E20E034
:10152000211D83E0489FA0011124E2E02E9F401975
:101530005109112450FD4FEF142F16958C2D0E9448
:10154000D805782E7694872C912C810E911C40E63C
:1015500060E087E090E00E94590690E088159905C8
:1015600054F440E660E087E090E00E945906940160
:10157000281B310902C020E030E0809108019091E1
:101580000901412F470D8C0169E273E0CE010196FC
:101590000E94E71D8981F70180838A8181838B8185
:1015A0008283F7E1DF0E83E0E80EF11CEFE0CE0E60
:1015B000FEE2DF12A4CF0F900F900F90DF91CF913A
:1015C0001F910F91FF90EF90DF90CF90BF90AF9061
:1015D0009F908F907F90089581E090E09093050117
:1015E0008093040161E070E08AE00E94A329E09109
:1015F000F802F0E0CF01880F991FE80FF91FE75AB2
:10160000FC4F128211821082E0910701F0E0CF01BD
:10161000880F991FE80FF91FE75AFC4F12821182B9
:10162000108282EF95E00E94D0060C94F3060F938F
:101630001F930E94F2280091C2021091C3022091D0
:10164000C4023091C502DC01CB01801B910BA20BBF
:10165000B30B8C3B9240A105B10538F081E090E0DE
:101660009093BF028093BE021BC00E94F22800919B
:10167000C2021091C3022091C4023091C502DC0164
:10168000CB01801B910BA20BB30B8C3B9240A105AD
:10169000B10580F40E94EC0A1092BF021092BE02C3
:1016A0000E94F2286093C2027093C3028093C40226
:1016B0009093C5021F910F9108950E94D4066FEF79
:1016C00070E08AE00E94A329E091F802F0E0CF01E7
:1016D000880F991FE80FF91FE75AFC4F12821182F9
:1016E0008FEF808382EF95E00E94D00664EC79E072
:1016F00080E090E00E94232960910401709105012F
:101700008AE00E94A329E091F802F0E090910401A0
:101710009F01220F331FE20FF31FE75AFC4F80EFA8
:10172000891B82831182908382EF95E00C94D0060E
:101730000F931F930E94F2280091CE021091CF02C6
:101740002091D0023091D102DC01CB01801B910BA2
:10175000A20BB30B8C3B9240A105B10538F081E0A0
:1017600090E09093CB028093CA021BC00E94F228A3
:101770000091CE021091CF022091D0023091D1027F
:10178000DC01CB01801B910BA20BB30B8C3B924075
:10179000A105B10580F40E945D0B1092CB0210925E
:1017A000CA020E94F2286093CE027093CF02809307
:1017B000D0029093D1021F910F9108952F923F92E2
:1017C0004F925F926F927F928F929F92AF92BF9251
:1017D000CF92DF92EF92FF920F931F93CF93DF93FD
:1017E000CDB7DEB729970FB6F894DEBF0FBECDBFD9
:1017F0002C016B01DA015901F80126173707C0F4F3
:101800002081918182813C91308311963C91119786
:10181000318312963C91129732832C9311969C93AC
:10182000119712968C9312978D2D6501A62EB82EC6
:101830002281222319F08181811102C08C91808341
:1018400012966C9012978081662029F011969C91D7
:101850001197911101C08C9311960C911197802EC4
:10186000912CE181F0E0E819F909F695FE2FEE27B9
:10187000F795E795712C30E0261937093695322F08
:101880002227379527954C91841B52E0E516F104E9
:1018900051F4682F082E000C770BE72EEE1CEE2477
:1018A000EE1CF12C07C093E0E916F10419F487FF50
:1018B00008C002C0EF2829F450E8859FC001112418
:1018C00008C0819550E8859FC001112491958195AC
:1018D0009109B5016C197D0911F07B0103C0EE245B
:1018E000E394F12CB7010E941C2D8B01CF01B701AD
:1018F0000E941C2DFB01C901B7010E941C2DC801CB
:10190000880F991F9D838C83CF01880F991F9F8318
:101910008E83CB01880F991F99878887E42EF12C3D
:10192000FE2CEE24182D0027762C66241601220C9E
:10193000331C2C0C3D1C812C912CAC14BD04F8F0F4
:10194000F9821A837B82B101680D791D640D751DC2
:10195000CE0101960E947A1E8C819D81E80EF91EAF
:101960008E819F81080F191F88859985680E791EC1
:101970009FEFC91AD90A53E0850E911CDECF299634
:101980000FB6F894DEBF0FBECDBFDF91CF911F9190
:101990000F91FF90EF90DF90CF90BF90AF909F900E
:1019A0008F907F906F905F904F903F902F90089511
:1019B0002F923F924F925F926F927F928F929F925F
:1019C000AF92BF92CF92DF92EF92FF920F931F934D
:1019D000CF93DF93CDB7DEB7E6970FB6F894DEBFAF
:1019E0000FBECDBF82E192E00E9411238091D6020A
:1019F0008823A1F06CE271E080E090E00E9423294E
:101A00008091D602813011F40E94F3068091D602B3
:101A1000823010F00E945D0B1092D60280E10E948D
:101A2000962A6C01009791F4809102019091030134
:101A3000019709F00AC20E94F2286093D2027093C3
:101A4000D3028093D4029093D502FFC1019759F538
:101A50008091020190910301892B29F50E94F228BF
:101A60000091D2021091D3022091D4023091D5027C
:101A7000DC01CB01801B910BA20BB30BC397A1051B
:101A8000B10538F08091CC029091CD02019709F018
:101A900002C28091CC029091CD02019721F4109264
:101AA000CD021092CC02D0920301C092020180912B
:101AB000CA029091CB020197B1F40E94F2280091E2
:101AC000CE021091CF022091D0023091D102DC01E0
:101AD000CB01801B910BA20BB30B8D3B9240A10558
:101AE000B10508F0DBC181E10E94962A6C010097E4
:101AF00091F48091000190910101019709F0D5C105
:101B00000E94F2286093C6027093C7028093C802B5
:101B10009093C902CAC1019759F580910001909133
:101B20000101892B29F50E94F2280091C60210912B
:101B3000C7022091C8023091C902DC01CB01801B91
:101B4000910BA20BB30BC397A105B10538F080919F
:101B5000C0029091C102019709F0CDC18091C002ED
:101B60009091C102019721F41092C1021092C0021B
:101B7000D0920101C09200018091BE029091BF02FB
:101B80000197B1F40E94F2280091C2021091C302A1
:101B90002091C4023091C502DC01CB01801B910B66
:101BA000A20BB30B8D3B9240A105B10508F0A6C175
:101BB0008091040190910501892B09F0A6C1B8EE2E
:101BC0008B2EB3E09B2EA12CB12CDD24DA9410ECEB
:101BD000C12E61E083E693E00E94B71B80910A0268
:101BE000811119C00E94F2286093D8017093D90125
:101BF0008093DA019093DB0189E190E0A0E0B0E00E
:101C00008093DC019093DD01A093DE01B093DF01AE
:101C100081E080930A0288ED91E00E949D06811187
:101C20000E94570A80910202811119C00E94F22875
:101C30006093D0017093D1018093D2019093D3012E
:101C400084EF91E0A0E0B0E08093D4019093D501BF
:101C5000A093D601B093D70181E08093020280ED7A
:101C600091E00E949D06882339F048E369EF72E015
:101C700089E293E00E94561E8091FA01811113C0FF
:101C80000E94F228A50194010E94302D3093CD01CD
:101C90002093CC01A2E3B0E0B093CF01A093CE019A
:101CA00081E08093FA010E94F228A50194010E942C
:101CB000302D8091CC019091CD01281B390B809162
:101CC000CE019091CF012817390708F48BC00E94EC
:101CD000F228A50194010E94302D3093CD0120936C
:101CE000CC0120910A0130910B0145E058E0249F7E
:101CF000C001259F900D349F900D1124875E994C53
:101D000090930B0180930A01192F180F8FE70E94FF
:101D10008406782E80E20E948406282E210E8FE70A
:101D20000E948406E0E86E2E680E80E20E9484061F
:101D3000582E510E8FE70E948406F0E84F2E480E71
:101D400080E20E948406382E310E8FE70E948406BE
:101D5000082F80E20E94840639AADAAA4BAA810FD2
:101D60008CABCDAA00580EABA2E0EA2EF12C8E016E
:101D70000F5C1F4F25E030E0AE014C5C5F4F60E030
:101D800070E0CE0101960E94DE0B59AACAAA6BAA86
:101D90003CAADDAA4EAA2AE030E0AE014C5C5F4FBF
:101DA00065E070E0CE0101960E94DE0B29AADAAA56
:101DB00080E8870D8BAB5CAACDAA6EAA2FE030E03D
:101DC000AE014C5C5F4F6AE070E0CE0101960E946C
:101DD000DE0B40E350E0BE016F5F7F4F89EF92E082
:101DE0000E943A1F82EF95E00E94D00680E10E9497
:101DF000962A892B09F0EDCE2091F80230E08091EF
:101E0000040190910501F901EE0FFF1FDF01A20F00
:101E1000B31FA75ABC4FAC0197FF02C04F5F5F4F83
:101E200055954795409512964C932E0F3F1FF901FB
:101E3000E75AFC4F118297FD01969595879580830F
:101E400082EF95E00E94D00660C0809102019091DF
:101E50000301892B09F027CE0E94F2280091D202BB
:101E60001091D3022091D4023091D502DC01CB0134
:101E7000801B910BA20BB30B8B3F9105A105B10504
:101E800008F411CE0E94940881E090E09093CD0276
:101E90008093CC0208CE0E94980BFBCD0E94940840
:101EA0001092CB021092CA021ECE80910001909136
:101EB0000101892B09F05CCE0E94F2280091C60234
:101EC0001091C7022091C8023091C902DC01CB01F8
:101ED000801B910BA20BB30B8B3F9105A105B105A4
:101EE00008F446CE0E94EF0881E090E09093C10292
:101EF0008093C0023DCE0E94170B30CE0E94EF08A7
:101F00001092BF021092BE0253CEE6960FB6F8941E
:101F1000DEBF0FBECDBFDF91CF911F910F91FF901C
:101F2000EF90DF90CF90BF90AF909F908F907F9079
:101F30006F905F904F903F902F900895DC018D91AE
:101F40009C91009739F0DC01ED91FC910280F381C6
:101F5000E02D09940895569A559A0F960C949E0F69
:101F600087FF02C05E9A01C05E985D9A5D9886FF09
:101F700002C05E9A01C05E985D9A5D9885FF02C0BE
:101F80005E9A01C05E985D9A5D9884FF02C05E9A79
:101F900001C05E985D9A5D9883FF02C05E9A01C0A1
:101FA0005E985D9A5D9882FF02C05E9A01C05E985D
:101FB0005D9A5D9881FF02C05E9A01C05E985D9A4D
:101FC0005D9880FF02C05E9A01C05E985D9A5D9840
:101FD0000895AF92BF92CF92DF92EF92FF920F934C
:101FE0001F93CF93DF93EB017C012FE0E20EF11CF6
:101FF000DC011F968D919C915097009739F0DC0180
:10200000ED91FC910190F081E02D0995CE84BD8485
:10201000AC8480E00E94B00F80E00E94B00F80E0AE
:102020000E94B00F80E00E94B00F8C819D81181635
:1020300019060CF044C0E881F98188899989E80F74
:10204000F91F10812A2D129F010E10E0111D11247D
:1020500001813B2D039F000E00E0011D1124D28061
:102060002D2D3C2D239F020E20E0211D1124D22E68
:102070008FEF0E94B00F8D2D0E94B00F802F0E9415
:10208000B00F812F0E94B00F89859E81891B8E839E
:102090008A859F81891B8F838B859885891B88877B
:1020A0002F8588819981820F911D27FD9A959983AB
:1020B00088838C819D8101979D838C83B6CF8A8193
:1020C0009B8197FD4F96EC0185E0D595C7958A9544
:1020D000E1F78FEF0E94B00F80E00E94B00F80E028
:1020E0000E94B00F80E00E94B00F219790F7C701C7
:1020F000DF91CF911F910F91FF90EF90DF90CF90E4
:10210000BF90AF900C949E0FFC01118A108A089525
:102110000F931F93CF93DF932091E0012F5F322F16
:1021200037703093E00120FF02C020E801C020E0BA
:1021300031FD2064347009F02062205FFC01EC0165
:10214000239600E011E06485662331F070E0C80159
:102150000E941C2D6F5F01C060E06187322F369FA7
:10216000030E30E0311D1124311102C0168202C06D
:1021700031503683662311F0615061873196CE1756
:10218000DF0709F7DF91CF911F910F910895EF922B
:10219000FF920F931F93CF93DF93CDB7DEB7629774
:1021A0000FB6F894DEBF0FBECDBF8C017A01F901E6
:1021B000DC011C968C917A8369835C834B835E83FC
:1021C0004D8390819D8791819E8792819F878130E9
:1021D00029F4CE0101960E94881006C01C861B8639
:1021E0001A86198618861F8283E0888BB701CE0174
:1021F00001960E948410D801ED91FC910484F5852C
:10220000E02DBE016F5F7F4FC801099562960FB642
:10221000F894DEBF0FBECDBFDF91CF911F910F911C
:10222000FF90EF900895EF92FF920F931F93CF933B
:10223000DF93CDB7DEB762970FB6F894DEBF0FBE5F
:10224000CDBF8C017A01F901DC011C968C917A8357
:1022500069835C834B835E834D8390819D879181ED
:102260009E8792819F87813029F4CE0101960E943A
:10227000881006C01C861B861A86198618861F823F
:10228000188AB701CE0101960E948410D801ED9101
:10229000FC910484F585E02DBE016F5F7F4FC8017E
:1022A000099562960FB6F894DEBF0FBECDBFDF91E1
:1022B000CF911F910F91FF90EF900895CF93DF93EF
:1022C000CFE5D3E01B821A828BE291E09983888369
:1022D00084E399E19093E0038093DF031092E1039C
:1022E0001092E20383E693E00E94831983E391E076
:1022F0009983888327E931E14CE052E161E571E09F
:1023000083E693E00E9454132FEF4FEF6FEF83E6C5
:1023100093E00E9407124AE660E087ED92E00E9497
:10232000661F82E192E0DF91CF910C9424220F93FB
:102330001F93CF93DF93EC01862F642F8C3268F4C8
:102340008A3208F05CC0883281F08932E9F570E0A9
:1023500080E090E00E94232952C08D32D1F0A0F19C
:1023600094EB980F9230F8F02FC08E01015E1F4F52
:10237000D0E0F80181918F018F3F39F0D03110F416
:1023800061E001C062E00E942B2ADF5FD63189F74D
:1023900036C0433018F082E090E002C085E090E063
:1023A0000E945F292CC08F73C80FD11D411107C037
:1023B00061E08F8D0E942B2A60E08F8D11C062E05A
:1023C0008F8D0E942B2A1BC08034D8F08F73FE01A2
:1023D000E80FF11D178D1F3F91F0803120F4812F00
:1023E0000E94672A0CC0803111F40E949728812F27
:1023F0000E94962A21E0892B09F420E02A8F81E0AF
:1024000001C080E0DF91CF911F910F910895FC01F1
:1024100062A743A724A70895CF93DF93EC01683107
:1024200061F158F4643171F06731F1F550E0B901B0
:1024300080E096E00E94382430C0693181F160323A
:1024400061F132C08C859D85AE85BF85892B8A2B35
:102450008B2B71F4E881F981A585B0E020EA36E89C
:1024600041E050E00E94712D6C877D878E879F87A9
:1024700080E096E00E94A42410C04C855D856E85A6
:102480007F8580E096E00E94AE246E8970E07595AD
:10249000679580E096E00E94CC2481E006C080E051
:1024A00096E00E944825F9CF80E0DF91CF91089512
:1024B000BF92CF92DF92EF92FF920F931F93CF9331
:1024C000DF93EC01162FF42EC22EB02EE42EE00E78
:1024D000D62ED20E0E2D2D2D0E9489178823E9F0BD
:1024E00000E02C2D4F2D612FCE010E94061701E038
:1024F0002B2D4F2D612FCE010E9406176FEF6D0D12
:102500002B2D4F2DCE010E9406174FEF4E0D00E0F0
:102510002C2D612FCE010E940617DF91CF911F91C4
:102520000F91FF90EF90DF90CF90BF900895AF9202
:10253000BF92CF92DF92EF92FF920F931F93CF93B0
:10254000DF93EC01ABACECACE881F981B188FE2CF7
:10255000C12CD12CE881F981208909AD1AAD88E020
:10256000289FA00111244C9DC0014D9D900D5C9DA4
:10257000900D1124080F191F4F2D60E0CE010E940D
:10258000801BF3948F2D8E198A1528F48FEFC81AAB
:10259000D80AFB14F8F2DF91CF911F910F91FF90B1
:1025A000EF90DF90CF90BF90AF900895FC01A08195
:1025B000B18150969C9143AD949FA001112483E07A
:1025C000440F551F8A95E1F760E070E081AD92AD50
:1025D0000C94912DCF93DF93EC010E949712CE01C2
:1025E000DF91CF910C94C11BCF93DF93EC016CAFC3
:1025F000EFA9F8AD0190F081E02D0995EFA9F8ADB4
:102600000280F381E02DCE01DF91CF910994CF9329
:10261000DF93EC01FC01E558FF4F8081882319F01E
:10262000CE010E94D61260E0CE01DF91CF910C94D2
:10263000F4121F93CF93DF93EC010E9497121CAD0D
:102640008BAD180FE881F9818189181728F0CE0128
:102650000E94C11B80E00EC0FE01E558FF4F808143
:10266000882319F0CE010E94D612612FCE010E945C
:10267000F41281E0DF91CF911F910895CF93DF9302
:10268000EC010E940713CE010E9419138111FBCFA8
:1026900060E0CE01DF91CF910C94F41224E0FC01B4
:1026A000208383EE93E00895CF92DF92EF92FF9222
:1026B0000F931F93CF93DF931F92CDB7DEB77C01AB
:1026C0006B0189019A014FE45AE166E37BE10E94C4
:1026D000F41BCE0101960E944E13860125EB37E1D3
:1026E0004981BC01C7010E9406190F90DF91CF916B
:1026F0001F910F91FF90EF90DF90CF900895FC0114
:10270000E60FF11D849190E0982F88273196E4918F
:102710008E0F911D0895213039F020F0223031F4D0
:10272000841B0895840F0895860F0895861B0895CD
:10273000213039F020F0223031F4861B0895860FC5
:102740000895841B0895840F089580E008950F93E1
:102750001F93CF93DF93EC018B01FB01849188835E
:102760003196E491E983FB013296E491EA83FB011F
:102770003396E491EB83FB013496E491EC83FB0107
:102780003596E491ED83FB013696E491EE83FB01EF
:102790003796E491EF83FB013896E491E887FB01DB
:1027A0003996E491E987FB013A96E491EA87FB01C7
:1027B0003B96E491EB87FB013C96E491EC87FB01AF
:1027C0003D96E491ED87FB013E96E491EE87FB0197
:1027D0003F96E491EF87FB017096E491E88B61E10D
:1027E000C8010E947F139A8B898B63E1C8010E9404
:1027F0007F139C8B8B8B65E1C8010E947F139E8B9E
:102800008D8BDF91CF911F910F910895DC01189668
:102810004C911897ED91FC911197249130E0042E82
:1028200002C0359527950A94E2F7842F860F8830E9
:1028300010F4E22F0DC031961196FC93EE93E491C3
:1028400098E0941B01C0EE0F9A95EAF7E22B8850AE
:1028500018968C9381E090E001C0880F6A95EAF7A2
:1028600081508E2308950F931F93CF93DF938C0194
:10287000EC01C05BDF4F798368831886FC01EF5958
:10288000FF4F6081CE010E9406148E83F801EE593D
:10289000FF4F6081CE010E9406148F83F801E65835
:1028A000FF4F90819A8781E0911180E08B87DF91C3
:1028B000CF911F910F910895CF93C62F0E940614B8
:1028C000C15021E030E001C0220FCA95EAF7821B17
:1028D000CF9108955F926F927F928F929F92AF9265
:1028E000BF92CF92DF92EF92FF920F931F93CF93FD
:1028F000DF935C01F62E642EEC01C05BDF4F1C8180
:10290000DD804C018AE7880E911CEE80E11ACF2C05
:10291000EF1408F4CE2C5B800C85202F4D2D612FF9
:102920008A810E949813782E202F4D2D612F852D9E
:102930000E948B13482F662011F08A8504C0898578
:10294000811108C08B85F40180832C2D672DC50172
:102950000E940617FE1420F0FE18D39410E0D5CF85
:102960001F0D1C83DD82DF91CF911F910F91FF908E
:10297000EF90DF90CF90BF90AF909F908F907F901F
:102980006F905F9008958F929F92AF92BF92CF9277
:10299000DF92EF92FF920F931F93CF93DF937C010F
:1029A000EC01C05BDF4F0E943314F701E95AFF4F7F
:1029B000C0803C966081CE010E945C14982EF70185
:1029C000EC59FF4F6081CE010E945C14B82EF701D4
:1029D000EB59FF4F6081CE010E945C14A82E0E813E
:1029E00010160CF072C0DC84BC0CB1942D2D4B2D54
:1029F000692D8A810E949813182F8A832D2D4B2DC3
:102A0000692D8B810E948B138B8391E0D916B1F0D5
:102A1000D91678F0E2E0DE16B9F0F3E0DF121FC05D
:102A20002C2D210F982F901B01E0080F81E0890FBA
:102A300018C0202F210F0C2D080F13C0DC1821E027
:102A4000210F080F1D0D0DC091E0392F301B21E023
:102A5000210F9C1901E0080F890F130F02C0082FE6
:102A6000212F482F612FC7010E948917882369F100
:102A70001C821D828701015A1F4F470180E6880E84
:102A8000911CF8016081CE010E940614B82EF40159
:102A90006081CE010E940614D82E40E06B2DC70144
:102AA0000E946A1441E06D2DC7010E946A1461E022
:102AB000CE010E9406148111F0CF8D818C150CF38C
:102AC000F701E658FF4F8A8580838A2DDF91CF91E9
:102AD0001F910F91FF90EF90DF90CF90BF90AF903C
:102AE0009F908F900895EF92FF920F931F93CF9333
:102AF000DF93FC01E45BFF4F20813181295E3F4F72
:102B00006F3F710509F018F56136710510F0B49644
:102B100006C06134710538F0FC01E259FF4F808135
:102B20009181280F391FC9010196FC01449144236A
:102B300009F43CC0F901449150E06417750711F4A1
:102B4000019636C0FC018491280F311DECCF8B011A
:102B5000FC01EE58FF4FC081D181C20FD31F7E010F
:102B600060E0C7010E947F13C80FD91F62E0C70150
:102B70000E947F13F4E0EF0EF11C8017910780F3A1
:102B8000FE01849190E0982F88273196E4918E2B56
:102B9000009761F00817190719F4CE01039608C0D1
:102BA000FE013296E491CE0FD11DEACF80E090E095
:102BB000DF91CF911F910F91FF90EF900895EF92C9
:102BC000FF920F931F93CF93DF93EC01062F142FE7
:102BD0007901FC01E45AFF4F80818130C9F070F027
:102BE000823001F1833039F5FE01E25BFF4F019045
:102BF000F081E02DCE010995080F1DC0FE01E25BBA
:102C0000FF4F0190F081E02DCE010995180F13C000
:102C1000FE01E25BFF4F0190F081E02DCE010995AE
:102C2000081B09C0FE01E25BFF4F0190F081E02D1F
:102C3000CE010995181BFE01EE5AFF4F0083319615
:102C40001083B701CE010E947315009751F0BC01AB
:102C5000CE01DF91CF911F910F91FF90EF900C94D7
:102C6000C31480E0DF91CF911F910F91FF90EF90FF
:102C70000895AF92BF92DF92EF92FF920F931F934E
:102C8000CF93DF93EC01162F042FB22ED32E0E9488
:102C90008319EB2CFD2CD12C5E012CE5A20EB11C6E
:102CA000F70161917F01EA81FB81CE0109958F3F98
:102CB000FFEF9F07E1F08E3F2FEF920789F39C0112
:102CC000402F612FCE010E94DF15F50190819130D8
:102CD00049F030F0923041F0933039F4081B05C0D0
:102CE000180F03C0080F01C0181BD80ED9CF8D2DA7
:102CF000DF91CF911F910F91FF90EF90DF90BF90E8
:102D0000AF900895E4E3F9E1DC011396FC93EE93B0
:102D100012970C943916EEE3F9E1DC011396FC935B
:102D2000EE9312970C943916CF93DF93FC01E45B7A
:102D3000FF4F20813181232BC1F17E962081DC0160
:102D4000AA58BF4F2C93319650813C965083EC018A
:102D5000CB58DF4F3881332341F1313069F4299763
:102D6000388123170CF43C93DC01A359BF4F8C919D
:102D70008517DCF4808319C0EC01C959DF4F488105
:102D800022963881822F220F990B632F032E000C7D
:102D9000770B640F711D47FD7A958617970714F41A
:102DA000430F4C9335170CF43083DF91CF91089586
:102DB000825B9F4F25EA33E1FC0131832083089534
:102DC000CF93DF93FC01E45BFF4F20813181261715
:102DD000370761F0EC0171836083835A9F4F0E9433
:102DE000A713CE01DF91CF910C949416DF91CF9170
:102DF00008950F93DC01DF963C91DF97431BD59636
:102E0000ED91FC91D69709950F9108950F93DC01F0
:102E1000802FFD01EC58FF4F9081992309F463C086
:102E2000222309F460C0223048F0023019F46F5FA9
:102E3000621B04C0033011F44F5F421B082F017066
:102E4000FD0180FD25C0EA5BFF4F8081481708F433
:102E50004AC031968081481708F045C0329790816A
:102E600031978081260F261730F4691718F42FEF59
:102E7000290F03C0682F6917B0F58217A0F56817EE
:102E800008F4682F291708F4922F292F261B22C037
:102E9000EC5BFF4F8081681730F1319680816817B5
:102EA00010F53296908131978081240F241730F4E9
:102EB000491718F42FEF290F03C0482F491798F42A
:102EC000821788F4481708F4482F291708F4922F1E
:102ED000292F241BD796ED91FC91D8970480F5817A
:102EE000E02DCD0109950F9108950F9301E00E9407
:102EF00006170F910895461730F4821740F081E0CD
:102F0000241730F002C08217D0F380E0089581E0EA
:102F10000895FF920F931F93CF93DF93EC01162F29
:102F2000F22E202FDC01A95BBF4FFC01EA5BFF4FB3
:102F30006C9180810E947B17882381F0FE01EB5BFE
:102F4000FF4FCC5BDF4F2F2D412F60818881DF91B8
:102F5000CF911F910F91FF900C947B1780E0DF9130
:102F6000CF911F910F91FF900895EF92FF920F93D1
:102F70001F93CF93DF93EC01742F7770E1E0F0E0C3
:102F8000072E01C0EE0F0A94EAF73E2F7C018AE774
:102F9000E80EF11CD7018C91823028F41E2F81306D
:102FA00019F430E001C010E050E0487F89AD9AADDF
:102FB000A881B9815096FC91F49FD001F59FB00D86
:102FC0001124A60FB11DA80FB91F01110BC08C91C0
:102FD000812B83278D932150D1F71CC0110F330F04
:102FE0002223C1F09C91912B93279C937F5F777054
:102FF00021507111F3CF8DADA80FB11DF701808164
:10300000823020F4813021F031E002C031E0E8CF9D
:1030100011E0E6CFDF91CF911F910F91FF90EF90DC
:103020000895CF93DF93FC01A081B18193AD892FE7
:10303000880F880F880F86AF50968C9150978032FA
:1030400008F08FE1880F880F880F85AF24AD822F9D
:10305000880F880F880F87AF51963C915197422F68
:1030600050E0490F511D632F70E06417750714F489
:10307000932F921BEF01C05CDF4F8883219628E0DD
:10308000929F800D11248883219680EF8883549627
:103090008D919C915597813F910508F48883ED5B54
:1030A000FF4F56968C918083DF91CF9108950C94B9
:1030B00011180F93FC01DC01AD5BBF4F9C91941B79
:1030C000492F11979C91961B692F011103C0415004
:1030D000621B04C0013011F46150421BCF010E94F9
:1030E000F9160F9108958F929F92AF92BF92CF924F
:1030F000DF92EF92FF920F93CF93DF93EC017C016D
:103100008BE4E80EF11C5E01E9E4AE0EB11C6E0129
:10311000FAE4CF0ED11C4E0188E4880E911CF70111
:103120000081F5012081F6014081F4016081CE012A
:103130000E948917FE01EC58FF4F811102C01082D6
:1031400025C081E08083F4018081FE01EC5BFF4FAC
:103150009081981708F48083F5018081FE01EB5B74
:10316000FF4F9081891708F48083F6018081FE016A
:10317000EA5BFF4F9081981708F48083F701808104
:10318000C95BDF4F9881891708F48883DF91CF915D
:103190000F91FF90EF90DF90CF90BF90AF909F90F6
:1031A0008F900895FC01EC5BFF4F10823196DC019B
:1031B000AE5BBF4F2C9120833196108211962C91DB
:1031C00012973C91231718F0422F431B4083FC01B8
:1031D000E95BFF4FDC01A05CBF4F3C91231B2083C8
:1031E0000C947318FC01E85BFF4F1082329610823A
:1031F00031972FEF208332962083DC01D796ED9113
:10320000FC91D8970280F381E02D09940F931F93CE
:10321000CF93DF93EC01FC01E45BFF4F118210823E
:103220003EAB2DAB7AAF69AF4BAF1CAE3D96108273
:10323000B0961082319681E080833196808318AFFA
:103240000FABD801ED91FC91CE010995CE010E9402
:10325000F218CE010E94D816C45ADF4F1882DF91AF
:10326000CF911F910F910895662329F06A3019F0CC
:10327000862F90E008958FEF9FEF0895FC0166235D
:10328000D9F16A30C9F1818D811124C06C3F20F0E1
:1032900085E0818F61701AC0683F20F084E0818FE3
:1032A000637014C0603F20F083E0818F67700EC0B0
:1032B000603E20F082E0818F6F7008C0603C20F09B
:1032C00081E0818F6F7102C070E01BC070E0738B72
:1032D000628B15C08150818F2289338996E0220F3D
:1032E000331F9A95E1F76F73A901462BBA01738BCF
:1032F000628B811104C005C06FEF7FEF02C06EEFDB
:103300007FEFCB010895FC01118E08959A01DC0135
:103310001896ED91FC911997462F67E10994CF9388
:10332000DF931F92CDB7DEB76983AE014F5F5F4F6A
:1033300061E00E9486190F90DF91CF910895DC0122
:103340001896ED91FC91199720E030E040E068E19B
:103350000994DC011896ED91FC91199720E030E07A
:1033600040E069E10994EF92FF921F93CF93DF93BE
:10337000EC01162F7A010E949F1960E4CE010E9491
:103380008F19E885F9859701412F67E1CE010995ED
:10339000CE01DF91CF911F91FF90EF900C94A9196E
:1033A000462FDC011696ED91FC91179720E030E056
:1033B00065E10994462FDC011696ED91FC91179773
:1033C00020E030E066E109949A01DC011696ED9167
:1033D000FC911797462F67E10994DC011696ED9151
:1033E000FC91179720E030E040E068E10994DC01AF
:1033F0001696ED91FC91179720E030E040E069E1EE
:103400000994EF92FF920F931F93CF93DF931F9234
:10341000CDB7DEB77C018B01D8016C916731E1F04B
:1034200078F46531A0F1F80141814983D7011696FE
:10343000ED91FC91179720E030E0C701099524C079
:103440006A31A8F06E3F19F5F8014181498369E2BC
:10345000C7010E94CB1B18C0F80181818983AE018E
:103460004F5F5F4F61E0C7010E94E4190DC00F5F1D
:103470001F4FD7011696ED91FC91179720E030E091
:1034800040E0C7010995C8CF0E5F1F4FC5CF0F9011
:10349000DF91CF911F910F91FF90EF900895EF92E0
:1034A000FF921F93CF93DF93EC01142F79016631C4
:1034B00021F128F46431E9F1653149F056C06831F1
:1034C00009F44FC0F0F0693109F444C04EC0809156
:1034D000E305882319F0CE010E94A919CE010E94AC
:1034E0009F1960E0CE010E948F19612FCE010E94CA
:1034F0008F1981E08093E30539C0642F0E948F19F2
:1035000032C08091E305882319F0CE010E94A919E9
:10351000A701193148F068E1CE010E94B319185192
:1035200088E1E80EF11CF4CF612FCE010E94B3199F
:1035300018C08E898F3F11F488E78E8BE885F98556
:103540009701412F64E1CE01DF91CF911F91FF9050
:10355000EF9009948091E305882319F0CE010E9431
:10356000A9191092E30581E001C080E0DF91CF91BD
:103570001F91FF90EF900895EF92FF920F931F938A
:10358000CF93DF93EC01142F79016D30C1F128F452
:103590006A3029F16B3041F161C06E3009F442C0EC
:1035A0006F3009F05BC00E94ED19F70183810C892F
:1035B000F8E08F9F000D1124602F62956F7060619D
:1035C000CE010E94D019602F6F70CE010E94D019D9
:1035D000F7016481606BCE010E94D01932C00E9455
:1035E000481B67E871E007C0411103C062E871E061
:1035F00002C06DE771E0CE010E94011A20C04111A6
:1036000008C066E771E00E94011AE881F9818289A9
:1036100007C06FE671E00E94011AE881F981838991
:103620008C8B0DC00E94ED1961E8CE010E94D0196B
:10363000612FCE010E94DA19CE010E94F71981E0B4
:103640000EC0F701408151816281660F660F660FDF
:10365000CE010E94E4191150A1F7EECF80E0DF9176
:10366000CF911F910F91FF90EF900895693011F065
:103670000C94BC1A67E571E00E94401B81E008953C
:10368000FC0171836083FB012289FC01248B089576
:10369000CF93DF93EC01EA85FB8520E030E040E04A
:1036A00068E20995EE81FF8120E030E040E064E1CE
:1036B000CE01099541E06BE4CE010E94CB1BE8816D
:1036C000F981448169E2CE010E94CB1B40E06BE4AA
:1036D000CE010E94CB1BE881F981448169E2CE01D1
:1036E0000E94CB1B41E06BE4CE010E94CB1BE88122
:1036F000F981458169E2CE01DF91CF910C94CB1B1A
:103700000F931F93CF93DF9300D000D01F92CDB7BC
:10371000DEB76C834D832B831A830983DC011496F7
:10372000ED91FC9115979E012F5F3F4F41E06FE0B7
:1037300009950F900F900F900F900F90DF91CF9100
:103740001F910F910895DC011496ED91FC9115974E
:1037500020E030E040E069E00994DC011496ED914E
:10376000FC91159720E030E040E06AE00994462F94
:10377000DC011496ED91FC91159720E030E06BE0B0
:103780000994DC011496ED91FC91159720E030E04E
:1037900040E060E10994DC011A96ED91FC911B97E1
:1037A00020E030E0099480E00895FC01118210824D
:1037B00083ED9BE1958384839783868391878087BC
:1037C00093878287158A108E118E14861586168629
:1037D00017868FEF868B838FDF015F96F5968D932B
:1037E000AE17BF07E1F70895AF92BF92CF92DF9275
:1037F000EF92FF920F931F93CF93DF93EC015B0146
:103800006A0179010E94D51BBD82AC82DF82CE8223
:10381000F986E8861B870A87CE01DF91CF911F9139
:103820000F91FF90EF90DF90CF90BF90AF900C94EE
:10383000A31B8F929F92AF92BF92CF92DF92EF9293
:10384000FF920F931F93CF93DF93EC01188219829D
:103850001A826623C1F1FA0189017C016A0183E0C1
:10386000C80ED11C862E912CA12CB12C2191222383
:1038700011F1D8016C916623F1F0822F90E0A0E065
:10388000B0E09C01AD012F5F3F4F4F4F5F4F862F40
:1038900090E0A0E0B0E0BC01CD016F5F7F4F8F4FA3
:1038A0009F4F0E94F82C9B01AC01C501B4010E94FE
:1038B000F82CD7018C930F5F1F4FBFEFEB1AFB0A59
:1038C000EC15FD0599F6CE01DF91CF911F910F9177
:1038D000FF90EF90DF90CF90BF90AF909F908F9030
:1038E0000895FC018FEF8083128211821486138663
:1038F0008FEF9FEFDC0187839087A187B2870895C0
:10390000CF92DF92EF92FF920F931F93CF93DF93AB
:103910002091E8053091E905A9014F5F5F4F509371
:10392000E9054093E80526173707B4F1EC010E943A
:10393000F2288B019C01E091E805F091E90588EE01
:1039400093E0E89FB001E99F700DF89F700D11247E
:10395000072E000C880B990BC090E405D090E5056C
:10396000E090E605F090E705A90198012C193D09C2
:103970004E095F090E94302D3A8329831092E90590
:103980001092E8050E94F2286093E4057093E50523
:103990008093E6059093E705DF91CF911F910F91FA
:1039A000FF90EF90DF90CF900895AF92BF92CF92AB
:1039B000DF92EF92FF920F931F93CF93DF9300D08C
:1039C0001F92CDB7DEB77C01D62EF701838194819B
:1039D000A581B681892B8A2B8B2BD1F00E94FE28E2
:1039E0000091EA051091EB052091EC053091ED0571
:1039F000DC01CB01801B910BA20BB30BF701038100
:103A000014812581368180179107A207B307E8F258
:103A10000E94FE286093EA057093EB058093EC0505
:103A20009093ED05D7011B96ED91FC911C97309773
:103A300051F0D70117964D915D916D917C911A9738
:103A40008D2D0995D82E0091F0051091F1050115E5
:103A5000110579F1F801C484D70111968D919C91DB
:103A600012978436910508F41486D801ED91FC91E3
:103A7000A280B3809801275F3F4FA8014A5F5F4F44
:103A80006D2DCE0101960E94191CF80145855685C1
:103A9000628173819E012F5F3F4FC801F501099537
:103AA000D8011C96CC921C9714960D911C911597D9
:103AB000CECF69E170E0C7010E94801C0F900F908B
:103AC0000F90DF91CF911F910F91FF90EF90DF90BA
:103AD000CF90BF90AF900895CF93DF93EC01442334
:103AE000E1F06115710571F19B0140E050E060E487
:103AF00072E48FE090E00E94522D8B819C81AD8119
:103B0000BE8182179307A407B50710F4DA01C90133
:103B10008B839C83AD83BE8315C06115710571F0E5
:103B20009B0140E050E060E472E48FE090E00E948E
:103B3000522D2B833C834D835E8304C01B821C82E9
:103B40001D821E82DF91CF910895CF92DF92EF9276
:103B5000FF920F931F93CF93DF938C016B01EA01C8
:103B60007901121613061CF07A01C0E0D0E0D801EA
:103B7000ED91FC910480F581E02DC8010995CE01FD
:103B8000880F991FC80FD91FCC0DDD1DF801D383F5
:103B9000C283F686E5860190F081E02D0284F385EC
:103BA000E02DC801099541E0BC0182EF95E00E943B
:103BB0006C1DC801DF91CF911F910F91FF90EF9085
:103BC000DF90CF90089582EF95E00C94711C0F93D5
:103BD0001F93CF93DF93FC01842F82958F704F70DA
:103BE000DB01982F990F980FEB01C90FD11D4423CA
:103BF00019F031E0012B09F430E0688159819A8194
:103C0000332309F42CC08F3011F0DE011396429556
:103C1000407F142F10953C91619F060E60E0611D5E
:103C2000349F030E30E0311D630F11963C911197C4
:103C3000519F050E50E0511D349F030E30E0311DA1
:103C4000530F12967C91392F319F030E30E0311DB6
:103C5000749F070E70E0711D932F970F11242F3F53
:103C6000E1F02223B9F02F5F662321F0629F060E58
:103C700060E0611D552321F0529F050E50E0511D5B
:103C8000992331F0392F329F030E30E0311D932FED
:103C9000112403C090E050E060E060835183928380
:103CA000CF01DF91CF911F910F910895FC01DB01AE
:103CB000BC01605D7F4F80E090812C919217A1F054
:103CC000921718F49F5F90838F5F90812C91291732
:103CD00048F42FEF290F20838F5F3C91321710F4A7
:103CE00092509083841728F431961196E617F707BF
:103CF00019F708951F93DC01FB017C9111964C91FB
:103D0000119712961C91972F9F71990F990F990FE8
:103D100035E5292F239F020E20E0211D1124822F3B
:103D2000672F6074572F507277FD1FC061110AC052
:103D3000511103C0922F909511C025E5280F90E0F6
:103D40008BEA34C051110DC0392F2AEA329F030E7D
:103D500030E0311D11249BEA931B280F892F90E03E
:103D600025C090E02095982F0FC0611112C051110D
:103D70000DC0392F2AEA329F030E30E0311D112485
:103D80002BEA231B95E5930F80E010C0922F9095AE
:103D90000CC0511104C025E5280F9BEA04C02AEA93
:103DA000280F90E0932F981B822F20E04F3F09F4BB
:103DB00027C0442311F1882331F0382F349F030E9C
:103DC00030E0311D832F222321F0249F020E20E0BA
:103DD000211D992331F0392F349F030E30E0311D1E
:103DE000932F1124342F3095339F030E30E0311D73
:103DF0001124830F230F930F03C09FEF2FEF8FEF3B
:103E00001F3F09F424C030E0112321F0119F312D10
:103E100009F03F5F3323C1F0882331F0482F439FDF
:103E2000040E40E0411D842F222321F0239F020E27
:103E300020E0211D992331F0492F439F040E40E0DB
:103E4000411D942F112403C090E020E080E0808386
:103E5000218392831F910895FB01DC0140FF05C07F
:103E600002C001900D9201900D924250D0F7504047
:103E7000C0F708958617970710F40C942C1F840F31
:103E8000951F640F751FFB01DC0140FF05C002C0D8
:103E900002900E9202900E924250D0F75040C0F71E
:103EA00008958EBD00000DB407FEFDCF8EB50895B8
:103EB000FC018BE681838AE082836083611102C00A
:103EC00041830895613009F442830895CF93DF93CD
:103ED000EC010E94581F81E08B8320ED37E03D8389
:103EE0002C8320EA31E03F832E8340E951E059875B
:103EF00048878A878B878C878D8740E150E05F8772
:103F00004E87398B288B24E630E03B8B2A8B8C8BB9
:103F10008D8B8E8B8F8B88EB9BE0998F888F8AE0BF
:103F200090E09B8F8A8F1C8E1E8E1D8E18A21F8E76
:103F3000DF91CF9108950F931F93CF93DF93EC01FF
:103F4000062F142F8881882389F0813049F560E09D
:103F50008A810E94672A802F0E94511F812F0E9410
:103F6000511F61E08A810E94672A1AC0698180E03E
:103F700096E00E94C224602F80E096E00E946524B3
:103F8000612F80E096E00E94652480E096E00E9428
:103F9000482521E090E0811101C020E0822F02C07D
:103FA00080E090E0DF91CF911F910F910895CF9223
:103FB000DF92EF92FF920F931F93CF93DF938C01C9
:103FC000EB01E42EF22EFC018081882389F0813000
:103FD00009F04DC060E0F80182810E94672A8E2DB1
:103FE00080680E94511F6E01CF0CD11CE12C2CC0A7
:103FF000F801618180E096E00E94C2246E2D80E08D
:1040000096E00E94652480E096E00E944825811198
:104010002BC04F2DF801618180E096E00E9445257C
:104020008E010F0D111D80E096E00E940C24892B5B
:10403000F1F0C017D107F1F41AC080E00E94511FBF
:104040008F3F09F4E3948993CC15DD05B1F7EF10A8
:1040500003C0C5E0D0E002C0C0E0D0E061E0F801FC
:1040600082810E94672A0CC0C1E0D0E009C0C0E094
:10407000D0E006C080E096E00E9414248993D3CF5C
:10408000CE01DF91CF911F910F91FF90EF90DF90C4
:10409000CF9008950F931F93CF93DF9300D0CDB7A8
:1040A000DEB78B0122E0BE016F5F7F4F0E94D71FFA
:1040B00029813A81F801318320830F900F90DF919D
:1040C000CF911F910F910895CF93DF9300D0CDB77B
:1040D000DEB740E2BE016F5F7F4F0E944A208981B8
:1040E0009A810F900F90DF91CF9108950E946420E4
:1040F000BC01990F880B990B0E94D62B20E030E071
:1041000040E85DE30E948B2C20E030E048EC51E475
:104110000E94C02A0895CF92DF92FF920F931F93BF
:10412000CF93DF938C016B01C42FFC018081882326
:1041300019F0813041F13EC0F801618180E096E0E4
:104140000E94C2246C2F80E096E00E94652480E0EB
:1041500096E00E944825D1E0C0E0811101C0D0E086
:1041600041E0F801618180E096E00E94452580E011
:1041700096E00E940C24892BF9F080E096E00E94E2
:104180001424F82EF4CF60E0F80182810E94672A9F
:104190008C2F80680E94511F80E00E94511FF82ED2
:1041A00061E0F80182810E94672AFFEFFF1202C0DE
:1041B000D5E001C0D0E0C0E0F601F0828D2F9C2F49
:1041C000DF91CF911F910F91FF90DF90CF900895D5
:1041D0000F931F93CF93DF9300D0CDB7DEB78C0141
:1041E000FC0180818823D9F08130E9F40E94D62334
:1041F0008CB58C7F8CBD8DB58E7F8DBD8CB58F7D44
:104200008CBD8CB58C608CBD61E0F80182810E9410
:104210002B2A61E0F80182810E94672A04C080E0B5
:1042200096E00E94A4241A8280E197E22A812F5FFF
:104230002A830197D9F74FE0BE016F5F7F4FC80116
:104240000E948B2081E090E02981293611F480E0E2
:1042500090E00F900F90DF91CF911F910F910895F3
:10426000EF92FF920F931F93CF93DF9300D0CDB7C0
:10427000DEB78C011A820E94E8207C011A82F801C4
:104280002485213009F065C082899389843691059F
:1042900039F0883C910539F0C29731F483E001C0D0
:1042A00082E08A8301C02A83F801268537858A81C6
:1042B0002430310541F02830310539F02230310504
:1042C00031F0846003C0886001C08C608A83F8018B
:1042D000208931898A81203AF1E03F0771F180F429
:1042E0002A31310511F128F42D30310511F58061A5
:1042F0002FC024333105D9F0203D3105E1F019C03C
:104300002230EDE03E07F9F040F4213493E0390724
:10431000B1F02C373640A9F00CC02430FAE13F0749
:10432000A1F02231344399F004C0806211C080634F
:104330000FC080640DC080650BC0806609C08067B7
:1043400007C0806805C0806903C0806A01C0806BB7
:104350008A834A8160E1C8010E949B1F43E1BE013C
:104360006E5F7F4FC8010E948B208A818F778A837E
:10437000F8019585913011F480688A834A8163E160
:10438000C8010E949B1F1A82F8018381813009F0C5
:1043900045C084819581853F910599F028F48D373A
:1043A000910569F482E00CC0843FF1E09F0729F099
:1043B000883E934021F488E003C084E001C08CE093
:1043C0008A83F801268137818A81203D3105F1F009
:1043D00058F42A313105A1F02433310599F02D30FC
:1043E000310591F4806119C02134F3E03F0791F069
:1043F0002C3796E0390781F0203A314029F408C083
:1044000080620BC0806309C0806407C0806505C0FE
:10441000806603C0806701C080688A834A8161E149
:10442000C8010E949B1F4FE0BE016F5F7F4FC80114
:104430000E948B20C7010F900F90DF91CF911F91A9
:104440000F91FF90EF900895CF92DF92EF92FF923D
:10445000CF93DF93EC010E94F2287E012CE8E20E5C
:10446000F11CFE01B8966E019E01245C3F4FD701FE
:104470001D927D0111921192D6016D937D938D93C2
:104480009D936D01AF01425B5F4FDA011D921C925B
:10449000E217F30761F7C655DF4F19821882DF91E3
:1044A000CF91FF90EF90DF90CF900895FC01E655FB
:1044B000FF4F208131812A3031056CF4E258F10937
:1044C00020E030E081919191892B41F02F5F3F4FA7
:1044D0002A303105B9F78FEF9FEF0895C90108958C
:1044E0004F925F926F927F92AF92BF92CF92DF9284
:1044F000EF92FF920F931F93CF93DF93EC012A016A
:104500003B0169010E9456227C0197FD31C0C11414
:10451000D10471F15C01AA0CBB1CAA0CBB1CAC0E33
:10452000BD1EF50144AE55AE66AE77AEF701EE0F97
:10453000FF1FEC0FFD1FD1A6C0A6EC59FF4F118342
:104540000083FE01EE0DFF1DE457FF4F81E08083E5
:104550000E94F228F5016083718382839383C6559C
:10456000DF4F88819981019699838883C70102C0B2
:104570008FEF9FEFDF91CF911F910F91FF90EF9001
:10458000DF90CF90BF90AF907F906F905F904F90F3
:1045900008950F931F9300E010E00E9470221F9176
:1045A0000F910895CF93DF936A307105BCF5EC014C
:1045B000C655DF4F288139812115310579F1DB019D
:1045C000AA0FBB1FA80FB91F98964D915C919997A0
:1045D000452B21F199961C921E929897FC01E60FAB
:1045E000F71FE457FF4F1082FD01EA56FF4F11827B
:1045F0001082615F7F4F660F771F660F771FFC0188
:10460000E60FF71F1082118212821382A858BF4F43
:104610001D921C922150310939832883DF91CF915B
:1046200008952F923F924F925F926F927F928F9256
:104630009F92AF92BF92CF92DF92EF92FF920F9331
:104640001F93CF93DF9300D000D000D0CDB7DEB75B
:104650009C838B830E94F2286B017C01EB81FC819F
:10466000EC59FF4F0B811C81980124573F4FC80123
:1046700088589F4F9A8389831E830D832224239415
:10468000312C13AA12AACF01CC97DC018D919C91F9
:10469000892BF1F1AD81BE818D909D90AD90BC9044
:1046A0001397DC964D915D916D917C91DF9726017A
:1046B0003701481859086A087B08441655066606EB
:1046C000770630F1480D591D6A1D7B1D4D935D9392
:1046D0006D937C931397D9018C918823C9F0408105
:1046E00051814115510519F433AA22AA11C08489B8
:1046F00095898417950764F433AA22AA0196958BAD
:10470000848B8417950724F082E090E093AB82AB12
:104710003296AD81BE811496BE83AD832F5F3F4F2D
:1047200089819A81E817F90709F0ABCFE12CF12CC8
:10473000F801EA56FF4F808191818130910571F037
:10474000029791F4D8019896ED91FC91999709956B
:10475000B7018B819C810E94D22206C0D801989615
:10476000ED91FC9199970995BFEFEB1AFB0A0E5F4B
:104770001F4F8AE0E816F104D9F626960FB6F89492
:10478000DEBF0FBECDBFDF91CF911F910F91FF9084
:10479000EF90DF90CF90BF90AF909F908F907F90E1
:1047A0006F905F904F903F902F900895CF93CFB729
:1047B000F8948091FF05811127C0EAEDFAE0849119
:1047C000E3ECFAE09491E82FF0E0EE0FFF1FE550E4
:1047D000F54FA591B491EC91E92321F461E08AE0D1
:1047E0000E94672A61E08AE00E942B2A8CB58061D2
:1047F0008CBD8CB580648CBD61E08DE00E942B2A5D
:1048000061E08BE00E942B2A8091FF058F5F8093EF
:10481000FF05CFBFCF9108958091300690E02091A1
:104820003106821B910908959091310680913006DE
:10483000981750F4E92FF0E0EE5CF94F208130E05A
:104840009F5F9093310602C02FEF3FEFC90108959B
:10485000E091310680913006E81730F4F0E0EE5C2C
:10486000F94F808190E008958FEF9FEF08950895AC
:10487000CF92DF92EF92FF920F931F93CF93DF932C
:104880007C01CB018A0120910C06222389F0EB01E7
:104890006B01C40ED51ECC15DD0569F06991D701F9
:1048A000ED91FC910190F081E02DC7010995F3CFC6
:1048B000642F0E940B26C801DF91CF911F910F91A9
:1048C000FF90EF90DF90CF900895CF93DF931F92EA
:1048D000CDB7DEB7698320910C062223D1F0209159
:1048E0000D06203240F021E030E0FC0133832283CA
:1048F00080E090E015C080910E06E82FF0E0E15FC7
:10490000F94F998190838F5F80930E0680930D06F7
:1049100005C061E0CE0101960E940B2681E090E087
:104920000F90DF91CF910895FC011382128288EEDF
:1049300093E0A0E0B0E084839583A683B78380EC06
:1049400091E0918380830895109231061092300691
:1049500010920E0610920D060C944F259A01AB0191
:1049600060E072E18AE790E00E94302DDA01C9012F
:104970004097A109B109B695A7959795879580931A
:10498000B800089581E080930C0660932F06109282
:104990000E0610920D0608950C94C2240F93062F54
:1049A00021E040910D066FE076E080912F060E9495
:1049B000B52510920E0610920D0610920C060F915E
:1049C00008954F925F926F927F92AF92BF92CF9273
:1049D000EF92FF920F931F93CF93DF935C01F62E1C
:1049E000D42F28013901EE2021F10E94C224CE2DBE
:1049F000C43008F0C3E0C150C0F028E0C29FC0013D
:104A00001124A301920104C0569547953795279527
:104A10008A95D2F7CA01B901D501ED91FC910190B7
:104A2000F081E02DC5010995E6CF60E0C5010E9447
:104A3000CE244D2FD13208F040E22C2D62E376E0F7
:104A40008F2D0E946D251092310680933006DF91E4
:104A5000CF911F910F91FF90EF90CF90BF90AF90AB
:104A60007F906F905F904F900895CF92EF920F9349
:104A70001F93C22EE12C00E010E098010E94E12477
:104A80001F910F91EF90CF90089521E00C94352560
:104A900061E00C94CE2480E096E00C949424109273
:104AA000BF0681E08093BD061092BC0661E082E102
:104AB0000E94672A61E083E10E94672AE9EBF0E047
:104AC00080818E7F808380818D7F808380E2809350
:104AD000B80085E48093BC000895413208F043C0DB
:104AE0009091BF069111FCCF91E09093BF06209367
:104AF000BD062FEF2093520610929706240F2093A5
:104B000096069093BE069091BE06880F892B8093DF
:104B1000BE068091BC06813061F41092BC06809183
:104B2000BE068093BB008091BC0083FDF8CF85EC6E
:104B300001C085EE8093BC008091BF068130E1F317
:104B400080919706841710F440919706A8E9B6E083
:104B5000962FFB018E2F891B841718F48D9181935A
:104B6000F9CF842F089580E008950F93413208F023
:104B70004AC09091BF069111FCCF32E03093BF063E
:104B80000093BD063FEF3093520610929706409374
:104B90009606562FA8E9B6E0FB013E2F351B3417C9
:104BA00018F431913D93F9CF1092BE063091BE06B4
:104BB000880F832B8093BE068091BC06813061F400
:104BC0001092BC068091BE068093BB008091BC0011
:104BD00083FDF8CF85EC01C085EE8093BC002223D5
:104BE00021F08091BF068230D1F3809152068F3F31
:104BF00079F080915206803241F0809152068033E4
:104C000031F094E005C091E003C092E001C093E070
:104C1000892F0F910895613298F42091BF062430B6
:104C200089F460937406282FA6E7B6E0FC018E2F66
:104C3000821B861718F481918D93F9CF80E0089537
:104C400081E0089582E0089585ED8093BC00809115
:104C5000BC0084FDFCCF1092BF06089585EC8093C4
:104C6000BC001092BF0608951F920F920FB60F92CC
:104C700011242F933F934F935F936F937F938F9361
:104C80009F93AF93BF93EF93FF938091B900887F79
:104C9000803609F49EC078F5883209F45DC090F43E
:104CA000803109F456C038F4882309F4F5C08830FF
:104CB00009F44FC0F5C0883109F44EC0803209F4C0
:104CC0005FC0EEC0803409F46AC058F4803309F440
:104CD00057C0883309F0E4C0809352060E942E2604
:104CE000DFC0803509F44FC0883509F45DC08834D1
:104CF00009F0D6C0D3C0883909F4C4C0A8F48837F5
:104D000009F467C038F4883609F463C0803709F4C1
:104D100060C0C6C0883809F4B5C0803909F45FC0E6
:104D2000803809F0BDC05BC0803B09F483C038F413
:104D3000803A09F466C0883A09F47CC0B1C0803C6E
:104D400009F4A4C0883C09F4A1C0883B09F487C0D9
:104D5000A7C08091BE0610C09091970680919606DC
:104D6000981770F5E091970681E08E0F8093970673
:104D7000F0E0E856F94F80818093BB0085EC83C05A
:104D8000809352068BC0E091970681E08E0F80934E
:104D900097068091BB00F0E0E856F94F8083909130
:104DA0009706809196066BC0E091970681E08E0F82
:104DB000809397068091BB00F0E0E856F94F80831E
:104DC0008091BD0681116AC081E08093BC0684EAAF
:104DD0005EC083E08093BF0610925306CFCF8091D0
:104DE0005306803208F04EC0E091530681E08E0FEA
:104DF000809353068091BB00F0E0EC5AF94F80831A
:104E0000BDCF0E942E2680915306803230F4E0916F
:104E10005306F0E0EC5AF94F10826091530670E0AF
:104E2000E091B806F091B90684E596E009951092F4
:104E3000530636C084E08093BF0610927506109228
:104E40007406E091BA06F091BB060995809174064C
:104E5000811105C081E08093740610927606E0917E
:104E6000750681E08E0F80937506F0E0EA58F94FE1
:104E700080818093BB00909175068091740698178D
:104E800008F47CCF85E88093BC000AC085EC809351
:104E9000BC001092BF0604C0109252060E94242645
:104EA000FF91EF91BF91AF919F918F917F916F9102
:104EB0005F914F913F912F910F900FBE0F901F90D8
:104EC00018956115710579F0FB0101900020E9F753
:104ED0003197AF01461B570BDC01ED91FC9102802D
:104EE000F381E02D099480E090E00895DC01ED91DC
:104EF000FC910190F081E02D09948F929F92AF92E6
:104F0000BF92EF92FF920F931F93CF93DF93CDB792
:104F1000DEB7A1970FB6F894DEBF0FBECDBF7C0100
:104F2000FA01CB0119A2223008F42AE08E010F5DAC
:104F30001F4F822E912CA12CB12CBF01A5019401F1
:104F40000E94302DF901CA01015011096A3014F490
:104F5000605D01C0695CD8016C93232B242B252B49
:104F600061F7B801C7010E946127A1960FB6F894B6
:104F7000DEBF0FBECDBFDF91CF911F910F91FF908C
:104F8000EF90BF90AF909F908F90089521153105BD
:104F900041F4DC01ED91FC910190F081E02D642F52
:104FA00009940C947D279A01AB0160E070E00C94A9
:104FB000C627CF92DF92EF92FF920F931F93CF936A
:104FC000DF932115310581F4DC01ED91FC91019015
:104FD000F081E02D642FDF91CF911F910F91FF9011
:104FE000EF90DF90CF9009942A30310501F577FFDB
:104FF0001DC06A017B01EC016DE20E9476278C01E5
:1050000044275527BA014C195D096E097F092AE02A
:10501000CE010E947D27800F911FDF91CF911F91BC
:105020000F91FF90EF90DF90CF9008952AE0DF91ED
:10503000CF911F910F91FF90EF90DF90CF900C9444
:105040007D279A01AB01770F660B770B0C94D9275C
:1050500008958230E8F4E82FF0E0EE0FFF1FE45FE0
:10506000FE4F71836083813041F0809169008C7FB5
:10507000482B40936900E89A089580916900837FE6
:10508000440F551F440F551F482B40936900E99A60
:1050900008951F920F920FB60F9211242F933F93F2
:1050A0004F935F936F937F938F939F93AF93BF9330
:1050B000EF93FF93E0910C01F0910D010995FF91A1
:1050C000EF91BF91AF919F918F917F916F915F9180
:1050D0004F913F912F910F900FBE0F901F901895F9
:1050E0001F920F920FB60F9211242F933F934F935D
:1050F0005F936F937F938F939F93AF93BF93EF9340
:10510000FF93E0910E01F0910F010995FF91EF914E
:10511000BF91AF919F918F917F916F915F914F91CF
:105120003F912F910F900FBE0F901F9018950895EB
:1051300008950E9468290E9498280E944409C0E0AE
:10514000D0E00E94D80C2097E1F30E940000F9CF34
:105150001F920F920FB60F9211242F933F938F93AC
:105160009F93AF93BF938091C1069091C206A09187
:10517000C306B091C4063091C00626E0230F2D3738
:1051800020F40296A11DB11D05C029E8230F039646
:10519000A11DB11D2093C0068093C1069093C20645
:1051A000A093C306B093C4068091C5069091C6062D
:1051B000A091C706B091C8060196A11DB11D8093AC
:1051C000C5069093C606A093C706B093C806BF91C4
:1051D000AF919F918F913F912F910F900FBE0F90A4
:1051E0001F9018952FB7F8946091C1067091C20670
:1051F0008091C3069091C4062FBF08953FB7F894DD
:105200008091C5069091C606A091C706B091C806C8
:1052100026B5A89B05C02F3F19F00196A11DB11D11
:105220003FBFBA2FA92F982F8827820F911DA11D4C
:10523000B11DBC01CD0143E0660F771F881F991F88
:105240004A95D1F708958F929F92AF92BF92CF92D5
:10525000DF92EF92FF926B017C010E94FE284B01CE
:105260005C01C114D104E104F10401F10E9497280A
:105270000E94FE28DC01CB0188199909AA09BB0903
:10528000883E9340A105B10560F321E0C21AD10820
:10529000E108F10888EE880E83E0981EA11CB11C7D
:1052A000C114D104E104F10419F7DBCFFF90EF90B2
:1052B000DF90CF90BF90AF909F908F9008958330F4
:1052C000910528F0880F991F04970197F1F7089529
:1052D000789484B5826084BD84B5816084BD85B5D1
:1052E000826085BD85B5816085BDEEE6F0E0808198
:1052F00081608083E1E8F0E01082808182608083B9
:10530000808181608083E0E8F0E08081816080833B
:10531000E1EBF0E0808184608083E0EBF0E080816D
:1053200081608083EAE7F0E080818460808380810F
:105330008260808380818E7F80838081806880838B
:105340001092C10008951F93CF93DF93182FEB01A4
:1053500061E00E942B2A209711F460E004C0CF3F47
:10536000D10539F461E0812FDF91CF911F910C9429
:10537000672AE12FF0E0EE55F54FE491E430F9F0C3
:1053800048F4E230B9F0E330A1F584B5806284BD21
:10539000C8BD34C0E830E9F0E93019F1E53049F52D
:1053A00080918000806280938000D0938B00C093B6
:1053B0008A0024C084B5806884BDC7BD1FC08091A9
:1053C0008000806880938000D0938900C09388001B
:1053D00015C08091B00080688093B000C093B30086
:1053E0000DC08091B00080628093B000C093B40083
:1053F00005C0C038D1050CF0B5CFAFCFDF91CF914C
:105400001F910895843081F028F4823099F0833020
:10541000A1F008958830A9F08930B9F08530D1F431
:10542000809180008F7D03C0809180008F77809372
:105430008000089584B58F7702C084B58F7D84BDC8
:1054400008958091B0008F7703C08091B0008F7D68
:105450008093B0000895CF93DF9390E0FC01E75470
:10546000F54F2491FC01E053F54F8491882361F1BD
:1054700090E0880F991FFC01E550F54FC591D4913C
:10548000FC01EF50F54FA591B491611109C09FB790
:10549000F8948881209582238883EC912E230BC079
:1054A000623061F49FB7F8948881322F309583235E
:1054B0008883EC912E2B2C939FBF06C08FB7F89456
:1054C000E8812E2B28838FBFDF91CF9108951F9302
:1054D000CF93DF93282F30E0F901EE55F54F8491FB
:1054E000F901E754F54FD491F901E053F54FC49118
:1054F000CC23C1F0162F81110E94022AEC2FF0E07C
:10550000EE0FFF1FEF50F54FA591B4919FB7F894A0
:10551000111104C08C91D095D82302C0EC91DE2BE0
:10552000DC939FBFDF91CF911F910895CF93DF93BD
:10553000282F30E0F901EE55F54F8491F901E75439
:10554000F54FD491F901E053F54FC491CC2391F07C
:1055500081110E94022AEC2FF0E0EE0FFF1FE951AB
:10556000F54FA591B491EC91ED2381E090E021F409
:1055700080E002C080E090E0DF91CF910895505824
:10558000BB27AA270E94D72A0C944C2C0E943E2CA1
:1055900038F00E94452C20F039F49F3F19F426F48E
:1055A0000C943B2C0EF4E095E7FB0C94352CE92F82
:1055B0000E945D2C58F3BA1762077307840795079A
:1055C00020F079F4A6F50C947F2C0EF4E0950B2EC8
:1055D000BA2FA02D0B01B90190010C01CA01A00145
:1055E0001124FF27591B99F0593F50F4503E68F1A0
:1055F0001A16F040A22F232F342F4427585FF3CFE1
:10560000469537952795A795F0405395C9F77EF4B1
:105610001F16BA0B620B730B840BBAF09150A1F0FA
:10562000FF0FBB1F661F771F881FC2F70EC0BA0F80
:10563000621F731F841F48F4879577956795B79508
:10564000F7959E3F08F0B0CF9395880F08F0992703
:10565000EE0F9795879508950E94402B0C944C2C43
:105660000E94452C58F00E943E2C40F029F45F3FE8
:1056700029F00C94352C51110C94802C0C943B2C5B
:105680000E945D2C68F39923B1F3552391F3951B88
:10569000550BBB27AA2762177307840738F09F5F53
:1056A0005F4F220F331F441FAA1FA9F335D00E2EC0
:1056B0003AF0E0E832D091505040E695001CCAF72D
:1056C0002BD0FE2F29D0660F771F881FBB1F2617F0
:1056D00037074807AB07B0E809F0BB0B802DBF01C7
:1056E000FF2793585F4F3AF09E3F510578F00C9496
:1056F000352C0C94802C5F3FE4F3983ED4F38695D0
:1057000077956795B795F7959F5FC9F7880F911DB6
:105710009695879597F90895E1E0660F771F881FA2
:10572000BB1F621773078407BA0720F0621B730B55
:10573000840BBA0BEE1F88F7E09508950E94A52B05
:105740006894B1110C94802C08950E94652C88F007
:105750009F5798F0B92F9927B751B0F0E1F0660F35
:10576000771F881F991F1AF0BA95C9F714C0B13076
:1057700091F00E947F2CB1E008950C947F2C672F4C
:10578000782F8827B85F39F0B93FCCF386957795A5
:105790006795B395D9F73EF490958095709561958E
:1057A0007F4F8F4F9F4F0895E89409C097FB3EF4B9
:1057B00090958095709561957F4F8F4F9F4F99235E
:1057C000A9F0F92F96E9BB279395F69587957795DC
:1057D0006795B795F111F8CFFAF4BB0F11F460FF9C
:1057E0001BC06F5F7F4F8F4F9F4F16C0882311F0F4
:1057F00096E911C0772321F09EE8872F762F05C008
:10580000662371F096E8862F70E060E02AF09A95A2
:10581000660F771F881FDAF7880F9695879597F997
:105820000895990F0008550FAA0BE0E8FEEF161631
:105830001706E807F907C0F012161306E407F50784
:1058400098F0621B730B840B950B39F40A2661F0F8
:10585000232B242B252B21F408950A2609F4A1409B
:10586000A6958FEF811D811D089597F99F6780E8A8
:1058700070E060E008959FEF80EC089500240A94A2
:105880001616170618060906089500240A9412161B
:105890001306140605060895092E0394000C11F44E
:1058A000882352F0BB0F40F4BF2B11F460FF04C0FB
:1058B0006F5F7F4F8F4F9F4F089557FD9058440F54
:1058C000551F59F05F3F71F04795880F97FB991F5F
:1058D00061F09F3F79F0879508951216130614061C
:1058E000551FF2CF4695F1DF08C0161617061806A9
:1058F000991FF1CF86957105610508940895E89484
:10590000BB2766277727CB0197F908950E94112CB2
:1059100008F48FEF08950E949E2C0C944C2C0E944A
:105920003E2C38F00E94452C20F0952311F00C9469
:10593000352C0C943B2C11240C94802C0E945D2C53
:1059400070F3959FC1F3950F50E0551F629FF001D2
:10595000729FBB27F00DB11D639FAA27F00DB11DEB
:10596000AA1F649F6627B00DA11D661F829F222774
:10597000B00DA11D621F739FB00DA11D621F839FFB
:10598000A00D611D221F749F3327A00D611D231FD1
:10599000849F600D211D822F762F6A2F11249F571F
:1059A00050409AF0F1F088234AF0EE0FFF1FBB1F22
:1059B000661F771F881F91505040A9F79E3F5105E1
:1059C00080F00C94352C0C94802C5F3FE4F3983ECF
:1059D000D4F3869577956795B795F795E7959F5F8B
:1059E000C1F7FE2B880F911D9695879597F908951D
:1059F000DB018F939F930E94712DBF91AF91A29F66
:105A0000800D911DA39F900DB29F900D11240895BC
:105A1000AA1BBB1B51E107C0AA1FBB1FA617B707D4
:105A200010F0A61BB70B881F991F5A95A9F78095F0
:105A30009095BC01CD01089597FB072E16F40094B4
:105A400007D077FD09D00E94082D07FC05D03EF451
:105A5000909581959F4F0895709561957F4F08951A
:105A6000A1E21A2EAA1BBB1BFD010DC0AA1FBB1F62
:105A7000EE1FFF1FA217B307E407F50720F0A21BD4
:105A8000B30BE40BF50B661F771F881F991F1A9441
:105A900069F760957095809590959B01AC01BD016B
:105AA000CF010895052E97FB1EF400940E94692DE6
:105AB00057FD07D00E94302D07FC03D04EF40C9404
:105AC000692D50954095309521953F4F4F4F5F4F31
:105AD000089590958095709561957F4F8F4F9F4F5A
